:020000040800F2
:10000000C80400201D0100081D070008DF050008C6
:10001000E3050008B7050008550D000800000000C2
:10002000000000000000000000000000E10A0008DD
:10003000BB05000800000000310A0008E50A0008BE
:1000400037010008370100083701000837010008B0
:1000500037010008370100083701000837010008A0
:100060003701000837010008370100083701000890
:100070003701000837010008370100083701000880
:100080003701000837010008370100083701000870
:100090003701000837010008370100083701000860
:1000A00037010008C10B00083701000837010008BC
:1000B0003701000837010008370100083701000840
:1000C0003701000837010008370100083701000830
:1000D0003701000837010008E10B0008790C00081F
:1000E0003701000837010008370100080000000050
:1000F0000000000000000000000000000000000000
:1001000037010008DFF810D000F034FA004800474B
:1001100021150008AFF30080C8040020064880477E
:1001200006480047FEE7FEE7FEE7FEE7FEE7FEE7DC
:10013000FEE7FEE7FEE7FEE7ED0A0008050100081E
:10014000D2B201E000F8012B491EFBD27047002219
:10015000F6E710B513460A4604461946FFF7F0FFC6
:10016000204610BDF0B480EA0102D40F4200B2EB89
:10017000410F02D20246084611464A0042D0C30D42
:10018000DDB2C1F3C752AD1A202D35DAC1F3160125
:1001900041F4000204B15242C5F1200602FA06F110
:1001A0002A411044B3EBD05F23D0C4B1012DA0EBA2
:1001B000C35009DCF0BC4FF0004202EAC352DBB28C
:1001C00000F5000000F04BB9400000F1807000EB3A
:1001D000C350A0F1807040EAD170490009E049089D
:1001E00041EAC071A0EBC35000F50000400800EBED
:1001F000C350F0BC00F02AB96142012202EB410178
:10020000001BF6E7F0BC704781F00041AAE780F0E0
:100210000040A7E780EA010210B502F00043400069
:1002200022D04A001FD0010E01EB1261C0F356002C
:10023000C2F3560240F4000042F40002A0FB022088
:1002400000047F39140400D0401C50EA124001D44D
:100250004000491EC2B20C0604EBD010401C4008FE
:10026000802A02D003E0002010BD20F00100002908
:1002700000DA0020184310BD2DE9FE4F81EA030487
:1002800004F0004421F0004100944FF0000B23F0F3
:10029000004350EA01045ED052EA03045BD0C3F38A
:1002A0000A54C1F30A552C44A4F2F3340194A0FB80
:1002B0000254C1F3130141F48011C3F3130343F457
:1002C000801301FB024400FB034E840A970A44EAB0
:1002D000815447EA8357A4FB076802958D0A05FB02
:1002E00007854FEA932C04FB0C542705029D4FEA27
:1002F000065847EA1637B5EB08056EEB070C870E74
:10030000920E47EA811742EA8312A7FB0201B6EB7D
:100310000B0164EB00042B0D43EA0C335E1844EB35
:100320001C50DA465146E7FB0201C5F313044FEABD
:100330000B3343EA14534FEA0432019C43EA0603A9
:10034000A4F10C040294009CCDE900B400F0C4F8C0
:1003500003B0BDE8F08F00200146F9E7C10F80EA45
:10036000E0700844CA079623002100F078B80EB563
:10037000C10F80EAE0700844CA07002140F233430D
:100380008DE80E000A460B4600F0A6F803B000BD4B
:1003900000F0004220F00040C10DC0F3160040F410
:1003A00000007F2901DA00207047962903DCC1F1A3
:1003B0009601C84001E096398840002AF4D04042B6
:1003C000704770B5C1F30A5201F000450024C1F333
:1003D000130140F2FF3341F480119A4201DA002008
:1003E00070BD40F233439A42A2F2334203DC5242E0
:1003F00000F01CF800E090402C43F1D0404270BD6A
:1004000030B50B46014600202022012409E021FAE4
:1004100002F59D4205D303FA02F5491B04FA02F5E1
:100420002844151EA2F10102F1DC30BD202A04DBB4
:10043000203A21FA02F00021704721FA02F3D0405D
:10044000C2F1200291400843194670470029A8BF15
:100450007047401C490008BF20F00100704710B4ED
:10046000B0FA80FC00FA0CF050EA010404BF10BCA2
:10047000704749B1CCF1200421FA04F411FA0CF1CF
:1004800018BF012121430843A3EB0C01CB1D4FEA08
:1004900000614FEA102042BF002010BC704700EB03
:1004A000C35010440029A4BF10BC7047401C490031
:1004B00008BF20F0010010BC704710B5141E73F186
:1004C000000408DA401C41F1000192185B411A4314
:1004D00001D120F0010010BD2DE9F04D92469B4660
:1004E00011B1B1FA81F202E0B0FA80F22032904606
:1004F00000F052F804460F4640EA0A0041EA0B01B8
:1005000053465A46084313D0114653EA010019D006
:10051000C8F140025046FFF789FF05460E46504697
:100520005946424600F038F8084305D0012004E05F
:1005300020463946BDE8F08D0020054346EAE076C6
:100540002C4337430A986305E40AA0EB0800002215
:10055000FD0A44EA47540A3002D500200146E9E783
:10056000010510196941DDE9084500196941BDE837
:10057000F04DA2E7064C074D06E0E06840F00103AD
:1005800094E8070098471034AC42F6D3FFF7BEFD5D
:100590003432000854320008202A04DB203A00FAE2
:1005A00002F1002070479140C2F1200320FA03F3CA
:1005B00019439040704700BFFEE700BFFEE770B5EB
:1005C000054600246C6A0021284601F0F3FFB4F5CB
:1005D000004F02DBA4F57F44FF3C204670BD00BF06
:1005E000FEE700BFFEE7000070B504460D46164664
:1005F000002C0ADDA2B20021224801F022FF4FF4B4
:100600008051214800F075FE0AE0604282B200216C
:100610001C4801F016FF4FF480511B4800F06BFEA0
:10062000002D0ADDAAB20121164801F00AFF4FF49D
:100630000051154800F05DFE0AE0684282B20121D7
:10064000104801F0FEFE4FF400510F4800F053FE39
:10065000002E0ADDB2B202210A4801F0F2FE4FF488
:100660008041094800F045FE0AE0704282B2022152
:10067000044801F0E6FE4FF48041034800F03BFEE1
:1006800070BD0000002C0140000C014010B540F28C
:10069000036001F0EFFC4FF48053032210211D484A
:1006A00000F030FE4FF4005303221021194800F0EF
:1006B00029FE4FF4804303221021164800F022FE49
:1006C0004FF4805013491431086040000860400026
:1006D000086040F2026001F0CDFC4FF4C06001F010
:1006E000C9FC4FF48073032218210B4800F00AFE66
:1006F0004FF4007303221821074800F003FE4FF463
:10070000806303221821044800F0FCFD01F0DAFEAA
:1007100010BD0000000C01400008014000BFFEE7D2
:1007200010B5002807DA0A07140E054A00F00F0377
:100730001B1FD45403E00A07130E024A135410BDC2
:1007400018ED00E000E400E070B5002415E004F1CD
:10075000B001C8B200F000F9012000F0FDF810204F
:1007600000F0FAF8002504E0002000F02BF9681CE6
:10077000C5B2842DF8DB601CC4B2082CE7DB70BD69
:1007800010B540F2046001F075FC40F2026001F027
:1007900071FC4FF40043032210214B4800F0B2FDDE
:1007A0004FF40041484800F0A4FD4FF48043032279
:1007B0001021454800F0A6FD4FF48041424800F06A
:1007C00098FD4FF40053032210213F4800F09AFD9A
:1007D0004FF400513C4800F08CFD0123032210210E
:1007E0003A4800F08FFD0121384800F082FD4FF4B7
:1007F0000041354800F07FFD4FF40051324800F0D1
:1008000078FD322000F086FC4FF400512E4800F0B5
:1008100072FDAE2000F0A0F8002000F09DF810203E
:1008200000F09AF8402000F097F8812000F094F84A
:10083000CF2000F091F8A12000F08EF8C82000F041
:100840008BF8A62000F088F8A82000F085F83F205B
:1008500000F082F8D32000F07FF8002000F07CF850
:10086000D52000F079F8802000F076F8D92000F04B
:1008700073F8F12000F070F8DA2000F06DF8122023
:1008800000F06AF8DB2000F067F8402000F064F820
:10089000202000F061F8022000F05EF88D2000F0CA
:1008A0005BF8142000F058F8A42000F055F8A620BA
:1008B00000F052F8AF2000F04FF8FFF745FF00219D
:1008C000084600F037F810BD001001400008014054
:1008D0002DE9F0470446884615464FF000090026EA
:1008E000002720E0E85D203800F0FF097E2C04DDC1
:1008F000002408F1010000F0FF084146204600F006
:1009000019F8002609E009EB4901094A02EB410107
:10091000885D00F057F8701CC6B2062EF3DBA01DF0
:10092000C4B2781CC7B2E85D0028DBD1BDE8F0870F
:100930001C2A000870B504460D4605F1B001C8B286
:1009400000F00AF8102141EA141000F005F804F054
:100950000F0000F001F870BD70B5044608250121B4
:10096000164800F0C6FC2903154800F0C2FC01201F
:1009700000F0CEFD1CE004F0800028B14FF480416F
:100980000F4800F0B8FC04E04FF480410C4800F040
:10099000B0FC4FF400410A4800F0ADFC012000F02B
:1009A000B7FD4FF40041064800F0A3FC6006040EBA
:1009B000281EA5F10101CDB2DDD170BD00080140B6
:1009C0000010014070B5044608250121164800F0CA
:1009D00092FC2903154800F08CFC012000F098FDE2
:1009E0001CE004F0800028B14FF480410F4800F073
:1009F00082FC04E04FF480410C4800F07AFC4FF494
:100A000000410A4800F077FC012000F081FD4FF41E
:100A10000041064800F06DFC6006040E281EA5F19A
:100A20000101CDB2DDD170BD0008014000100140D0
:100A300000BFFEE710B50446052C49D2DFE804F0FC
:100A400003101D2A39000121234800F0B1FC30B900
:100A50000121214800F0ACFC08B9012010BD37E0AD
:100A600002211D4800F0A4FC30B902211A4800F010
:100A70009FFC08B90120F1E72AE00421164800F0A4
:100A800097FC30B90421144800F092FC08B9012009
:100A9000E4E71DE04FF40061104800F089FC38B92C
:100AA0004FF400610D4800F083FC08B90120D5E740
:100AB0000EE04FF48051094800F07AFC38B94FF449
:100AC0008051064800F074FC08B90120C6E700BF59
:100AD00000BF0020C2E70000000C014000080140F8
:100AE00000BFFEE710B500F01FFB10BD08B5304891
:100AF000006840F001002E49086000BF2C480068E3
:100B000000F002000028F9D000BF2948406840F0FA
:100B10008000274948600020009002E00098401CB7
:100B2000009000985028F9D32148406840F0900088
:100B30001F4948600020009002E00098401C00908F
:100B400000985028F9D300BF1948406820F00300EE
:100B5000174948600846006816490840144908606B
:100B60000846406814490840114948600846006832
:100B7000104908400E4908600846006820F48020AB
:100B80000860084640680D49084009494860084621
:100B9000006808490840064908604FF41F00886053
:100BA00001F0FAFA00214FF0006001F00DF808BDE5
:100BB00000100240FFFFF6FE0C00FFE8FFFF00F709
:100BC00010B50121024801F06AFD00F08FFC10BD54
:100BD000002C014001480068704700002000002000
:100BE00010B51C491C4801F0D5FEB0B11A4801F0FF
:100BF0003DFEC1B2194802880088401C174B18807E
:100C0000174881541846008816490978884204D14B
:100C100040F20531104801F0A3FE13490E4801F0DF
:100C2000B9FEA8B1114802780078401C0F4B18702B
:100C30000F48815C084801F01EFE0C4800780D4901
:100C40000978884204D140F20731034801F088FE58
:100C500010BD000005030500004400401600002000
:100C600024000020140000200703070015000020C6
:100C7000080000201300002010B50C490C4801F0BA
:100C800089FE88B10A4801F0F1FD0A49086008466A
:100C9000008881B2064801F0EEFD00BF072104483C
:100CA00001F03BFE0028F9D010BD0000050305004F
:100CB000004800402000002010B5044640F20360C8
:100CC00001F0D8F940F2127001F0D4F94FF48063CA
:100CD000032218211D4800F015FB4FF40063032286
:100CE00004211A4800F00EFB194801F0C9FD214605
:100CF000174801F073FD0021154801F087FE00211F
:100D0000134801F073FE0021114801F05FFE00213D
:100D10000F4801F01BFE00210D4801F00DFE0821D7
:100D20000B4801F06BFE0421094801F057FE08480A
:100D300001F0EEFD00221146272000F0E5FE40F212
:100D40000531034801F019FE10BD0000000C014000
:100D50000048004000BFFEE70FB4084B10B504A9DF
:100D600002AA039800F01CF8044602A9002000F033
:100D7000B8F9204610BC5DF814FB0000E310000831
:100D800002E008C8121F08C1002AFAD17047704754
:100D9000002001E001C1121F002AFBD170470000B2
:100DA0002DE9FF4F8BB088460546002606E0252832
:100DB0000BD0DDE90D1290476D1C761C28780028B9
:100DC000F5D10FB03046BDE8F08F0024A146A24611
:100DD0000122AE4900E0044315F8013F203B02FA2E
:100DE00003F00842F7D128782A2810D06FF02F029C
:100DF0002878A0F13001092915D809EB890102EB07
:100E0000410144F0020400EB01096D1CF0E758F8C1
:100E1000041B5FEA010903D544F40054C9F1000939
:100E200044F002046D1C28782E2817D115F8010F04
:100E300044F004042A280ED06FF02F022878A0F185
:100E4000300109290AD80AEB8A0102EB410100EBC3
:100E5000010A6D1CF2E758F804AB6D1C28786C2869
:100E60000FD006DC4C2817D068280DD06A2814D182
:100E700004E0742810D07A280FD10DE044F4001457
:100E80000AE044F4801401E044F44014697881429B
:100E900002D104F580146D1C6D1C2878692865D07A
:100EA00006DC00288DD0632827D0642806D15DE0B9
:100EB0006E2808D073282AD0752877D0DDE90D1266
:100EC0009047761CE0E0C4F30250022809D00328C2
:100ED0000DD0D8F8001004280DD00E6008F10408D9
:100EE000D2E0D8F80010F217C1E90062F6E7D8F8AE
:100EF00000100E80F2E70E70F0E718F8041B8DF872
:100F0000001000208DF80100EB46012003E058F8A6
:100F100004BB4FF0FF3061074FF0000701D40AE037
:100F20007F1C57450DDA8742FADB1BF807100029B2
:100F3000F6D106E07F1C8742FCDB1BF80710002976
:100F4000F8D1DDE90D23A9EB07008146214600F029
:100F5000B1F83044C61904E0DDE90D121BF8010BAD
:100F600090477F1EF8D22146484688E058F8040B87
:100F7000C4F302514FF00A0B032900D100B2042937
:100F800000D140B2002802DA40422D2102E02105C2
:100F900005D52B218DF82410012104E006E0E1079E
:100FA00010D02021F6E708AF089113E058F8040BA1
:100FB000C4F302514FF00A0B032900D180B2042977
:100FC00000D1C0B20021EEE75946FFF719FA3031DF
:100FD00007F8011D0028F7D1ADEB070000F1200B49
:100FE000600702D524F4803401E04FF0010ADA45AD
:100FF00002DDAAEB0B0000E00020824600EB0B01B3
:1010000008980144A9EB01000A90E00306D4DDE949
:101010000D2321460A9800F04DF806444FF00009D0
:1010200008E009A911F80900DDE90D12904709F15E
:101030000109761C08998945F3DBE0030CD5DDE94D
:101040000D2321460A9800F035F8064404E0DDE956
:101050000D1230209047761CBAF10001AAF1010A66
:10106000F5DC05E0DDE90D1217F8010B9047761C61
:10107000BBF10001ABF1010BF4DC0A982146DDE97C
:101080000D2300F005F806446D1C97E609280100C1
:101090002DE9F041044600251E461746880404D475
:1010A00005E039462020B0476D1C641EF9D528465E
:1010B000BDE8F0812DE9F041044600251E4690462A
:1010C000C80301D5302700E02027880404D505E0B7
:1010D00041463846B0476D1C641EF9D52846BDE828
:1010E000F0810A68531C0B601070704701461E297E
:1010F00003DB322901DC012070470020FCE70246B7
:10110000002000BF03E0002342F82030401C88424A
:10111000F9DB70470349086000BF024909680029EC
:10112000FBD17047040000200448006820B1034848
:101130000068401E0149086070470000040000205C
:101140001FB54FF4E06000F095FF40F2026000F040
:1011500091FF40F2036000F08DFF01211C4800F078
:101160002FF94FF400430322042140F2026000F003
:10117000C9F808230322042140F2036000F0C2F8FA
:101180004FF0804001F018FA0020ADF80000ADF8F3
:101190000200ADF804004FF6FF7002900020ADF899
:1011A0000C008DF80E0069464FF0804001F07AFA8D
:1011B000022300221946580701F0F0FA4FF0804050
:1011C00001F016F84FF0804001F064FA1FBD0000F6
:1011D000000318001FB540F2017000F04BFF40F211
:1011E000036000F047FF40F2036000F043FF01217D
:1011F000194800F0E5F810230322042140F20360AF
:1012000000F080F820230322042140F2036000F064
:1012100079F8124801F0D0F90020ADF80000ADF8DF
:101220000200ADF804004FF6FF7002900020ADF808
:101230000C008DF80E006946084801F033FA0223CD
:1012400000221946054801F0A9FA044800F0D0FF31
:10125000024801F01FFA1FBD00081A0000040040F8
:101260001FB540F2027000F005FF40F2036000F08D
:1012700001FF40F2036000F0FDFE40230322042141
:1012800040F2036000F03EF880230322042140F284
:10129000036000F037F8114801F08EF90020ADF836
:1012A0000000ADF80200ADF804004FF6FF700290A8
:1012B0000020ADF80C008DF80E006946074801F0DB
:1012C000F1F9022300221946044801F067FA0348A5
:1012D00000F08EFF014801F0DDF91FBD000800405D
:1012E0000146192903DB322901DC01207047002067
:1012F000FCE741617047016170470AB1016100E09C
:1013000041617047F0B5044616460025002201F001
:101310000F0501F0100707B1354300201EE001273B
:1013200087401F40C7B122684FEA800C0F2707FA99
:101330000CF7BA43870005FA07F73A43282904D186
:10134000012787401F40676105E0482903D1012735
:1013500087401F4027612260471CB8B20828DED3AF
:10136000082022E0012787401F40E7B16268A0F112
:1013700008074FEA870C0F2707FA0CF7BA43A0F1CA
:101380000807BF0005FA07F73A43282904D10127C7
:1013900087401F40676105E0482903D10127874046
:1013A0001F4027616260471CB8B21028DAD3F0BD35
:1013B00002469068084008B1012070470020FCE711
:1013C000F0B50A46002300240021002500F0004665
:1013D000B6F1004F02D11D4EF16901E01B4E71685C
:1013E000C0F3034583B200F44016B6F5401F08D1A0
:1013F00021F07061154E766826F07066134F7E609E
:1014000012E000F48016B6F5801F06D1032606FA16
:1014100005F4A14341F0706106E0460D360103FA80
:1014200006F6B14341F0706122B1460D360103FA70
:1014300006F6314300F00046B6F1004F02D1034EEC
:10144000F16101E0014E7160F0BD0000000001405B
:1014500010B540F2036000F00DFE012303220421C9
:101460001648FFF74FFF40F2036000F003FE02232F
:10147000032204211148FFF745FF40F2036000F00A
:10148000F9FD0423032219460C48FFF73BFF40F205
:10149000036000F0EFFD4FF40063032204210848CD
:1014A000FFF730FF40F2026000F0E4FD4FF480539C
:1014B000032204210248FFF725FF10BD000C014064
:1014C0000008014010B540F2036000F0D3FD4FF476
:1014D0000043032210210448FFF714FF4FF400419A
:1014E0000148FFF708FF10BD000C014010B54FF494
:1014F00000410648FFF75CFFC0F10100C4B222467C
:101500004FF400410148FFF7F8FE10BD000C014008
:1015100000E000BF011EA0F10100FAD170470000F9
:10152000ADF55C7D00BF00F03BFE002000F004FD47
:1015300000F036FE4FF4C06000F09CFDFFF700FEA7
:10154000FFF748FEFFF78CFEFFF7BCFFFFF780FFB9
:10155000FFF716F96420FFF7DDFDFFF7F5F8FFF759
:1015600095F8FFF70DF9F7A200210A20FFF7B0F96F
:101570003220FFF7CFFD4FF4E130FFF79DFB00274E
:101580000024A346A2460020D39000BFD2908046FC
:10159000D190D090CF90C8219DA8FEF7D8FDC8214A
:1015A0006BA8FEF7D4FDC82139A8FEF7D0FDC821ED
:1015B00007A8FEF7CCFD0025002600BF00BF00BF36
:1015C00000BFA14687E20020FFF734FA012801D1CD
:1015D00008F101080120FFF72DFA012801D14FF091
:1015E00000080220FFF726FA012801D1A8F101081E
:1015F000FFF77CFFD748FEF7E2FFD3904FF0804023
:10160000FEF7DDFFD448FEF7DAFFD290FFF7E2FAEB
:101610000746002F03DB642F01DCBB4617E0642F75
:1016200007DD962F05DCA7F1640044004FF0010AA6
:101630000DE0962F07DDC82F05DAA7F196004400CC
:101640004FF0020A03E04FF0FF344FF0000AB9F107
:10165000000F0DD1BAF1020F3FD12046FFF746FD32
:10166000012802D14FF00B0937E04FF00A0934E0AE
:10167000B9F10A0F10D1BAF1000F02D0BAF1010F7F
:1016800002D14FF0000928E02046FFF72FFD012886
:1016900023D14FF00B0920E0B9F10B0F0ED12046FA
:1016A000FFF724FD10B94FF00A0916E05846FFF77E
:1016B00017FE012811D14FF002090EE0B9F1020F17
:1016C0000BD1BAF1000F02D14FF0000905E05846E6
:1016D000FFF706FE08B94FF00B09B9F1000F7DD1F5
:1016E000BAF1010F7BD1232C1BDB2D2C19DCCFA8E9
:1016F000D1A902AA61C201916BA89DAB424600909C
:10170000D299D39800F06CFA0020D09000BF00BFAF
:10171000322139A8FFF7F3FC322107A8FFF7EFFCCD
:10172000B0E12D2C1EDD322C1CDCCFA8D1A903AAE0
:1017300061C202916BA89DA908F102034246CDE95E
:101740000010D299D39800F011FB0020D09000BF78
:1017500000BF322139A8FFF7D2FC322107A8FFF7DA
:10176000CEFC8FE1322C1EDD3C2C1CDACFA8D1A997
:1017700003AA61C202916BA89DA908F10403424625
:10178000CDE90010D299D39800F0F0FA0020D09063
:1017900000BF00BF322139A8FFF7B1FC322107A8F2
:1017A000FFF7ADFC6EE13C2C2CDD4046FEF7DFFD83
:1017B00000226A4BCDE90201FEF75EFDCDE904018E
:1017C000FEF7FFFD0690CFA8D1A902AA61C2019140
:1017D00007A839AB0090069AD29901E0C2E07FE0F9
:1017E000D39800F0FDF9CF98D190CF98D09000BF5A
:1017F00000BF32219DA8FFF782FC32216BA8FFF7C2
:101800007EFC3FE11E2C1DDB232C1BDACFA8D1A9C7
:1018100003AA61C202916BA89DA943469A1CCDE917
:101820000010D299D39800F0A1FA0020D09000BF08
:1018300000BF322139A8FFF762FC322107A8FFF769
:101840005EFC1FE1142C1DDB1E2C1BDACFA8D1A9D6
:1018500003AA61C202916BA89DA943461A1DCDE956
:101860000010D299D39800F081FA0020D09000BFE8
:1018700000BF322139A8FFF742FC322107A8FFF749
:101880003EFCFFE0142C8DDA002C8BDB4046FEF78B
:101890006EFD0022324BCDE90201FEF7EDFCCDE9F1
:1018A0000401FEF78EFD0690CFA8D1A902AA61C25D
:1018B000019107A839AB0090069AD299D39800F00D
:1018C0008FF9CF98D190CF98D09000BF00BF322130
:1018D0009DA8FFF714FC32216BA8FFF710FCD1E0A4
:1018E000BAF1000F29D14046FEF741FD00221C4B02
:1018F000CDE90201FEF7C0FCCDE90401FEF761FD70
:101900000690CFA8D1A902AA61C2019107A839AB5C
:101910000090069AD299D39800F062F9CF98D190AE
:10192000CF98D09000BF00BF32219DA8FFF7E7FB02
:1019300032216BA8FFF7E3FBA4E00020D190D09008
:10194000CF909FE054657374204843535230342045
:101950000000000000080040000400400000E03FDC
:101960000000E0BFB9F10A0F59D12D2C29DD404606
:10197000FEF7FDFC0022584BCDE90201FEF77CFC8E
:10198000CDE90401FEF71DFD0690CFA8D1A902AA5A
:1019900061C2019107A839AB0090069AD299D398F9
:1019A00000F01EF9CF98D190CF98D09000BF00BF23
:1019B00032219DA8FFF7A3FB32216BA8FFF79FFB05
:1019C00060E0232C5EDA002C5CDB4046FEF7CFFCA7
:1019D0000022424BCDE90201FEF74EFCCDE90401A5
:1019E000FEF7EFFC0690CFA8D1A902AA61C201912F
:1019F00007A839AB0090069AD299D39800F0F0F876
:101A0000CF98D190CF98D09000BF00BF32219DA831
:101A1000FFF775FB32216BA8FFF771FB32E0B9F1DC
:101A20000B0F10D10020D190CF9040F2DC50D0901D
:101A300000BF00BF32219DA8FFF761FB32216BA8D8
:101A4000FFF75DFB1EE0B9F1020F1BD1D3984042B6
:101A5000D290CFA8D1A902AA61C201916BA89DAB77
:101A600042460090D299D39800F0BAF80020D09066
:101A700000BF00BF322139A8FFF741FB322107A880
:101A8000FFF73DFBD19ACF99D098FEF7ADFD2246E6
:101A900013A1D4A8FFF760F9D4AA02210020FEF711
:101AA00017FF5A4611A1D4A8FFF756F9D4AA04216A
:101AB0000020FEF70DFF4B4652460FA1D4A8FFF7BA
:101AC0004BF9D4AA06210020FEF702FFFFF70EFD16
:101AD0003220FFF71FFB76E50000E03F0000E0BF8B
:101AE00062616C6C3A2025640000000067617465D7
:101AF0003A202564000000007374617475733A2005
:101B000025642C20256400002DE9F04103460D4694
:101B1000164600240027A0462448006800F4E06030
:101B2000B0F5A06F15D006DCB0F5407F18D0B0F549
:101B3000806F19D110E0B0F5C06F06D0B0F5E06F3E
:101B400012D100274FF0040815E001274FF00308D9
:101B500011E00227B8460EE003274FF001080AE023
:101B600004274FF0000806E04FF4A06000F022F8D0
:101B70000227B84600BF00BFC7F1040005FA00F411
:101B8000C8F104010F20C840304004432401084834
:101B9000C45403F01F01012088405911890001F14C
:101BA000E021C1F80001BDE8F08100000CED00E08B
:101BB00000E400E002490143024A1160704700005E
:101BC0000000FA050CED00E0034A0A400243034B13
:101BD0001A60BFF34F8F704780FFFF1F08ED00E0D2
:101BE0002DE9F04F95B004460E4615469946DDE9BD
:101BF0001FAB3220149059481390594812905948FD
:101C00001190564810904FF07E500F9040F6B8302B
:101C10000E90DAF80070DBF800806442281B0D900B
:101C2000A81B0C90322248460D9900F067F9322229
:101C30000C991E9800F062F93221484600F06DF9C7
:101C40000B9032211E9800F068F90A902198201A12
:101C500009902298301A08900998FEF77FFB4FF000
:101C60007E510490FEF7D6FA06900B98FEF776FBAD
:101C70003A490290FEF7CEFA04900D98FEF76EFBFB
:101C800038490090FEF7C6FA02902846FEF766FB38
:101C900033490090FEF7BEFA01900299FEF762FA0E
:101CA00003900499FEF75EFA05900699FEF75AFA3A
:101CB0000790FEF76DFB07460898FEF74FFB4FF0C5
:101CC0007E510490FEF7A6FA06900A98FEF746FBAE
:101CD00022490290FEF79EFA04900C98FEF73EFB14
:101CE00020490090FEF796FA02902846FEF736FB50
:101CF0001B490090FEF78EFA01900299FEF732FA26
:101D000003900499FEF72EFA05900699FEF72AFA39
:101D10000790FEF73DFB804640F6B830874200DD75
:101D200000E03846074640F6B830804500DD00E068
:101D3000404680460C48874200DA00E038460746B5
:101D40000948804500DA00E0404680467842CAF8FB
:101D50000000CBF8008015B0BDE8F08F00002041F6
:101D6000000048430000484248F4FFFF2DE9F04FCF
:101D700095B004460D4616461F46DDE920AB3220DD
:101D800014905A4813905A4812905A481190574844
:101D900010904FF07E500F9040F6B8300E90DAF869
:101DA0000080DBF800906442301B0D90781B0C9093
:101DB00032220D991E9800F0A1F832220C991F983A
:101DC00000F09CF832211E9800F0A7F80B90322109
:101DD0001F9800F0A2F80A902298201A09902398E0
:101DE000281A08900998FEF7B9FA4FF07E5104902E
:101DF000FEF710FA06900B98FEF7B0FA3B490290F6
:101E0000FEF708FA04900D98FEF7A8FA39490090F9
:101E1000FEF700FA02903046FEF7A0FA344900902F
:101E2000FEF7F8F901900299FEF79CF903900499E6
:101E3000FEF798F905900699FEF794F90790FEF7DA
:101E4000A7FA80460898FEF789FA4FF07E51049071
:101E5000FEF7E0F906900A98FEF780FA234902900F
:101E6000FEF7D8F904900C98FEF778FA2149009013
:101E7000FEF7D0F902903846FEF770FA1C49009040
:101E8000FEF7C8F901900299FEF76CF903900499E6
:101E9000FEF768F905900699FEF764F90790FEF7DA
:101EA00077FA814640F6B830804500DD00E04046D4
:101EB000804640F6B830814500DD00E04846814666
:101EC0000D48804500DA00E0404680460A488145DA
:101ED00000DA00E048468146C8F10000CAF8000078
:101EE000CBF8009015B0BDE8F08F00000000204155
:101EF000000048430000484248F4FFFF10B50B467D
:101F00000021511E05E04C1E50F8244040F82140AD
:101F1000491E0029F7DC036010BD10B502460B46D0
:101F20000020002100BF03E052F821402044491C5A
:101F30009942F9DB10BD0000044A516821F0F0011C
:101F400041EA0002014B5A60704700000010024055
:101F50002DE9F04F8BB00746002009903EA090E895
:101F6000004CC068CDE905BECDF810A007900FF277
:101F7000EC0ADAE9000ACDE9020A0FF2E00ADAE92E
:101F8000000ACDE9000A38484068C0F381000A9091
:101F90000A9820B1012804D0022829D103E033494E
:101FA00028E0324926E03048406800F48038B8F52F
:101FB000803F09D12D4C2C48406800F40039B9F518
:101FC000003F02D1641000E0294C27484068C0F36C
:101FD00083422548406800F0006008B142F01002DA
:101FE0000F2A01D2921C00E0521C04FB02F101E016
:101FF0001E4900BF00BF1C484068C0F3031504A879
:10200000465D21FA06F318484068C0F3022502A88D
:10201000465D23FA06FC14484068C0F3C2251DF84B
:10202000056023FA06F0089037B1012F06D0022F81
:1020300006D0032F0AD106E0099108E0099306E0D3
:10204000CDF824C003E00898099000E000BF00BF6D
:1020500009980BB0BDE8F08F000000000000000000
:1020600001020304060708090010024000127A006A
:1020700000093D00064A02EB9011096800F01F03B9
:1020800001229A401143024B03EB901211607047FA
:1020900000100240064A02EB9011096800F01F038D
:1020A00001229A409143024B03EB9012116070475A
:1020B00000100240064A02EB9011096800F01F036D
:1020C00001229A401143024B03EB901211607047BA
:1020D00000100240002000212C4A126842F4803295
:1020E0002A4B1A6000BF401C284A126802F40031D3
:1020F00019B94FF6FF729042F5D1244A126802F4E2
:1021000000320AB900BFFEE7204A52681F4B5A60EE
:102110001A4652685A601A46526842F480625A60FF
:102120001A46526822F440325A601A46526842F403
:1021300040325A601A465268154B1A40134B5A6087
:102140001A465268134B1A43104B5A601A461268CB
:1021500042F080721A6000BF0C4A126802F00072EE
:10216000002AF9D0094A526822F00302074B5A604C
:102170001A46526842F002025A6000BF034A52688F
:1021800002F00C02082AF9D170470000001002404A
:10219000FFFFC3F70000040810B5FFF79BFF10BD59
:1021A00010B5124800684FF47A71B0FBF1F4601E6C
:1021B000B0F1807F01D301200FE0601E4FF0E021DD
:1021C00048610F214FF0FF30FEF7AAFA00204FF0D0
:1021D000E021886107200861002008B100BFFEE708
:1021E0000021481EFEF79CFA10BD000000000020F0
:1021F000016841F0800101607047000010B531B105
:1022000001293FD002297DD003297CD1BFE0036A98
:1022100023F001030362836923F003038361036AEC
:10222000148823430362036A23F002030362036AF0
:102230009488234303626A4B984202D0694B9842C8
:102240001FD1036A23F004030362036A5488234303
:102250000362036A23F008030362036AD4882343FA
:102260000362436823F48073436043681489234303
:102270004360436823F400734360436854892343F5
:102280004360ABE0036A23F010030362836923F425
:1022900040738361036A148843EA04130362036A88
:1022A00023F020030362036A948843EA0413036261
:1022B0004B4B984202D04B4B984226D1036A23F0F5
:1022C00040030362036A548843EA04130362036A07
:1022D00023F080030362036AD48843EA0413036291
:1022E000436823F4806343604368148943EA8403AA
:1022F0004360436823F4006343604368548943EABE
:10230000840301E002E068E0436067E0036A23F4CD
:1023100080730362C36923F00303C361036A1488F3
:1023200043EA04230362036A23F400730362036A2B
:10233000948843EA04230362294B984202D0294B34
:10234000984223D1036A23F480630362036A5488AA
:1023500043EA04230362036A23F400630362036A0B
:10236000D48843EA04230362436823F48053436020
:102370004368148943EA04134360436823F4005319
:1023800043604368548943EA0413436026E0036AC8
:1023900023F480530362C36923F44073C361036A67
:1023A000148843EA04330362036A23F4005303628C
:1023B000036A948843EA04330362094B984202D0CB
:1023C000084B984208D1436823F480434360436834
:1023D000148943EA8413436000E000BF00BF10BDCE
:1023E000002C01400034014031B101290CD00229F8
:1023F00013D0032922D118E0836923F0700383618D
:102400008369134383611AE0836923F4E0438361A2
:10241000836943EA0223836111E0C36923F07003F7
:10242000C361C3691343C36109E0C36923F4E04393
:10243000C361C36943EA0223C36100E000BF00BF78
:10244000704731B1012906D0022906D0032908D1ED
:1024500005E0426306E0826304E0C26302E00264D6
:1024600000E000BF00BF704731B101290CD0022944
:1024700013D0032922D118E0836923F00803836174
:102480008369134383611AE0836923F400638361E2
:10249000836943EA0223836111E0C36923F00803DF
:1024A000C361C3691343C36109E0C36923F40063D3
:1024B000C361C36943EA0223C36100E000BF00BFF8
:1024C0007047000000B587B040F20B60FFF7D2FD07
:1024D000374800F071F80020ADF80000ADF80200B8
:1024E000ADF8040041F61F4002900020ADF80C004A
:1024F0008DF80E0069462E4800F0D4F80020ADF8A3
:1025000014000120ADF810000020ADF81600ADF861
:102510001200ADF81800ADF81A0004AA00212448F2
:10252000FFF76CFE04AA01212148FFF767FE04AA09
:1025300002211F48FFF762FE40F2F31200211C48FF
:10254000FFF77FFF602200211948FFF74DFF0022AF
:1025500011461748FFF788FF40F2F3120121144893
:10256000FFF76FFF602201211148FFF73DFF0022B6
:1025700001210F48FFF778FF40F2F31202210C48C7
:10258000FFF75FFF602202210948FFF72DFF0022BD
:1025900002210748FFF768FF0548FFF729FE0121E0
:1025A000034800F0EFF8024800F074F807B000BDEF
:1025B000002C01404162704710B504463349601A4F
:1025C0008C4244D00CDCB4F1804F1CD03048204405
:1025D00010B3B0F5806F28D0B0F5006F52D12DE068
:1025E000B0F5806F3CD0B0F58E3F03D0B0F5923F90
:1025F00048D13EE040F20B30FFF75CFD40F20B307B
:10260000FFF748FD3FE04FF48060FFF753FD4FF4C4
:102610008060FFF73FFD36E040F20140FFF74AFDE2
:1026200040F20140FFF736FD2DE040F20240FFF797
:1026300041FD40F20240FFF72DFD24E040F203404F
:10264000FFF738FD40F20340FFF724FD1BE040F2A6
:102650000440FFF72FFD40F20440FFF71BFD12E09E
:1026600040F20540FFF726FD40F20540FFF712FD5E
:1026700009E040F20D30FFF71DFD40F20D30FFF78D
:1026800009FD00E000BF00BF10BD000000100040C9
:1026900000FCFFBF016841F0010101607047CA43BF
:1026A000026170470A888262294A904220D0B0F1C4
:1026B000804F1DD0274A90421AD0274A904217D007
:1026C000264A904214D0264A904211D0254A904280
:1026D0000ED0254A90420BD0244A904208D0244A7A
:1026E000904205D0234A904202D0234A90420FD113
:1026F000026822F07002026002688B7803F06003C7
:102700001A43026002680B7903F010031A43026057
:102710008A68C262194A90420CD0194A904209D084
:10272000026822F44072026002688B8903F44073ED
:102730001A430260064A904202D0094A904201D1EF
:102740008A7B0263426942F00102426170470000E5
:10275000002C01400004004000080040000C004034
:1027600000340140004C0140005001400054014041
:1027700000180040001C00400020004000100040F5
:1027800000140040012904D1426C42F4004242642A
:1027900003E0426C22F400424264704730B5846822
:1027A00024F00704846084680C438460846940F2E8
:1027B0000335AC438461846940F201152C43846184
:1027C000046A24F00A040462046A24F0A004046287
:1027D000046A42EA03152C43046230BD2DE9F04738
:1027E00004460D460027B846B94600261D49601A22
:1027F0008C421CD006DC1C48204470B1B0F5806FC0
:102800001FD10FE0B0F5806F16D0B0F56C4F18D126
:102810000320FFF79DFB074614E00220FFF798FB1B
:1028200007460FE00220FFF793FB07460AE002206D
:10283000FFF78EFB074605E00220FFF789FB0746FE
:1028400000E000BF00BF07EB5500B0FBF5F64FF608
:10285000F07006EA000806F00F0948EA0900A060D7
:10286000BDE8F087004C004000BCFFBF014648684F
:10287000C0F308007047C1F30802426070470000CF
:1028800010B504462049601A8C4228D006DC1F4847
:10289000204490B1B0F5806F33D117E0B0F5806F70
:1028A00026D0B0F56C4F2CD140F20E30FFF702FC71
:1028B00040F20E30FFF7EEFB24E040F21140FFF74C
:1028C000F9FB40F21140FFF7E5FB1BE040F212403C
:1028D000FFF7F0FB40F21240FFF7DCFB12E040F2A2
:1028E0001340FFF7E7FB40F21340FFF7D3FB09E08B
:1028F00040F21440FFF7DEFB40F21440FFF7CAFB42
:1029000000E000BF00BF10BD004C004000BCFFBF96
:10291000C16841F40051C160704710B5024602EB36
:102920009110006801F01F040123A340184008B172
:10293000012010BD0020FCE7426922F400724261D0
:10294000426901F400731A4342617047426922F4FC
:1029500080724261426901F480731A434261704798
:1029600010B5C1F38912825801F01F040123A3405E
:102970009A43C1F38913C25010BD10B5C1F3891237
:10298000825801F01F040123A3401A43C1F38913A5
:10299000C25010BD70B5024600230024C1F3891057
:1029A000105801F01F060125B54000EA050302EBAF
:1029B00091500068C1F304460125B54000EA0504C2
:1029C00014B10BB1012070BD0020FCE7C26822F4F5
:1029D000C062C260C2680A43C26070470A460021F2
:1029E000C16821F004011143C1607047026922F4FB
:1029F0004052026102690A43026170470A4600219F
:102A0000C16821F008011143C1607047C26822F417
:102A10008052C260C2680A43C26070470000000072
:102A200000000000002F0000000007000700001455
:102A30007F147F1400242A7F2A1200626408132363
:102A400000364955225000000503000000001C22FA
:102A50004100000041221C000014083E0814000838
:102A6000083E0808000000A06000000808080808E8
:102A7000000060600000002010080402003E514980
:102A8000453E0000427F400000426151494600211E
:102A900041454B31001814127F1000274545453938
:102AA000003C4A4949300001710905030036494993
:102AB000493600064949291E00003636000000004C
:102AC0005636000000081422410000141414141497
:102AD0000000412214080002015109060032495940
:102AE000513E007C1211127C007F49494936003E5C
:102AF00041414122007F4141221C007F4949494117
:102B0000007F09090901003E4149497A007F080810
:102B1000087F0000417F4100002040413F01007FCD
:102B200008142241007F40404040007F020C027F99
:102B3000007F0408107F003E4141413E007F0909AB
:102B40000906003E4151215E007F091929460046D1
:102B5000494949310001017F0101003F4040403FA8
:102B6000001F2040201F003F4038403F00631408F2
:102B700014630007087008070061514945430000CD
:102B80007F41410000552A552A55000041417F00F0
:102B900000040201020400404040404000000102E5
:102BA0000400002054545478007F484444380038CE
:102BB0004444442000384444487F00385454541856
:102BC00000087E0901020018A4A4A47C007F080468
:102BD00004780000447D4000004080847D00007F38
:102BE000102844000000417F4000007C0418047855
:102BF000007C0804047800384444443800FC242451
:102C000024180018242418FC007C08040408004838
:102C10005454542000043F444020003C4040207C59
:102C2000001C2040201C003C4030403C0044281048
:102C30002844001CA0A0A07C004464544C441414FC
:102C40001414141400000000000000000000000034
:102C500000000000000000F8000000000000003349
:102C60003000000000100C06100C060000000000F0
:102C70000000000040C07840C0784000043F0404D9
:102C80003F040400007088FC08300000001820FF9A
:102C9000211E0000F008F000E018000000211C03D5
:102CA0001E211E0000F00888700000001E21232451
:102CB0001927211010160E0000000000000000006F
:102CC00000000000000000E01804020000000007FF
:102CD0001820400000020418E00000000040201806
:102CE00007000000404080F0804040000202010FD9
:102CF00001020200000000F0000000000101011FBD
:102D000001010100000000000000000080B0700020
:102D100000000000000000000000000000010101B0
:102D2000010101010000000000000000003030003F
:102D30000000000000000000806018040060180619
:102D40000100000000E010080810E000000F102053
:102D500020100F00001010F8000000000020203F9D
:102D60002020000000700808088870000030282427
:102D700022213000003008888848300000182020C8
:102D800020110E000000C02010F8000000070424ED
:102D9000243F240000F80888880808000019212032
:102DA00020110E0000E0108888180000000F11208C
:102DB00020110E0000380808C83808000000003F45
:102DC000000000000070880808887000001C2221A4
:102DD00021221C0000E010080810E0000000312251
:102DE00022110F00000000C0C000000000000030F1
:102DF0003000000000000080000000000000806043
:102E000000000000000080402010080000010204C3
:102E100008102000404040404040400004040404AA
:102E20000404040000081020408000000020100866
:102E300004020100007048080808F000000000309B
:102E400036010000C030C828E810E0000718272429
:102E500023140B000000C038E0000000203C2302D7
:102E60000227382008F8888888700000203F20203A
:102E700020110E00C030080808083800071820206C
:102E80002010080008F808080810E000203F202063
:102E900020100F0008F88888E8081000203F202044
:102EA0002320180008F88888E8081000203F200038
:102EB00003000000C0300808083800000718202070
:102EC000221E020008F808000008F808203F21012F
:102ED00001213F20000808F8080800000020203FDA
:102EE0002020000000000808F8080800C08080804A
:102EF0007F00000008F888C028180800203F200143
:102F00002638200008F8080000000000203F20209C
:102F10002020300008F8F800F8F80800203F003FB3
:102F2000003F200008F830C00008F808203F2000CB
:102F300007183F00E01008080810E0000F102020DC
:102F400020100F0008F808080808F000203F2101B1
:102F500001010000E01008080810E0000F18242408
:102F600038504F0008F8888888887000203F20007B
:102F7000030C302000708808080838000038202131
:102F800021221C00180808F8080818000000203F3B
:102F90002000000008F808000008F808001F2020A2
:102FA00020201F000878880000C838080000073873
:102FB0000E010000F80800F80008F800033C0700C4
:102FC000073C0300081868808068180820302C032C
:102FD000032C30200838C800C83808000000203F03
:102FE0002000000010080808C838080020382621F2
:102FF00020201800000000FE020202000000007FF6
:1030000040404000000C30C0000000000000000103
:103010000638C00000020202FE00000000404040EE
:103020007F00000000000402020204000000000013
:103030000000000000000000000000008080808090
:103040008080808000020204000000000000000078
:103050000000000000008080808000000019242211
:1030600022223F2008F8008080000000003F11204D
:1030700020110E000000008080800000000E112052
:1030800020201100000000808088F800000E112030
:1030900020103F200000808080800000001F22223E
:1030A00022221300008080F0888888180020203FAA
:1030B000202000000000808080808000006B9494BD
:1030C0009493600008F8008080800000203F210079
:1030D00000203F2000809898000000000020203F42
:1030E00020200000000000809898000000C0808030
:1030F000807F000008F8000080808000203F2402CC
:103100002D302000000808F8000000000020203FBB
:10311000202000008080808080808000203F200070
:103120003F20003F8080008080800000203F210001
:1031300000203F200000808080800000001F2020B1
:1031400020201F00808000808000000080FFA120E0
:1031500020110E000000008080808000000E1120F1
:1031600020A0FF80808080008080800020203F2180
:103170002000010000008080808080000033242433
:1031800024241900008080E0808000000000001FDF
:10319000202000008080000000808000001F202090
:1031A00020103F20808080000080808000010E3051
:1031B0000806010080800080008080800F300C03B2
:1031C0000C300F0000808000808080000020312EB5
:1031D0000E312000808080000080808080818E7091
:1031E0001806010000808080808080000021302C43
:1031F0002221300000000000807C0202000000005C
:10320000003F404000000000FF0000000000000000
:10321000FF0000000002027C800000000040403FF0
:10322000000000000006010102020404000000008A
:1032300000000000543200080000002024000000BC
:10324000800D00087832000824000020A40400004B
:10325000900D000800A24A040000000048454C4CB4
:103260004F574F524C44000A0A0000000000000073
:08327000000000000000000056
:0400000508000105E9
:00000001FF
