:020000040800F2
:10000000F00400201D010008C50800083F06000894
:100010008D07000817060008F10F00080000000017
:10002000000000000000000000000000890C000833
:100030001B06000800000000D90B00088D0C00080A
:1000400037010008370100083701000837010008B0
:1000500037010008370100083701000837010008A0
:100060003701000837010008370100083701000890
:100070003701000837010008370100083701000880
:100080003701000837010008370100083701000870
:100090003701000837010008370100083701000860
:1000A00037010008690D0008370100083701000812
:1000B0003701000837010008370100083701000840
:1000C0003701000837010008370100083701000830
:1000D00037010008370100087D0D0008150E0008E3
:1000E0003701000837010008370100080000000050
:1000F0000000000000000000000000000000000000
:1001000037010008DFF810D000F064FA004800471B
:1001100005180008AFF30080F0040020064880476F
:1001200006480047FEE7FEE7FEE7FEE7FEE7FEE7DC
:10013000FEE7FEE7FEE7FEE7950C00080501000874
:10014000D2B201E000F8012B491EFBD27047002219
:10015000F6E710B513460A4604461946FFF7F0FFC6
:10016000204610BDF0B480EA0102D40F4200B2EB89
:10017000410F02D20246084611464A0042D0C30D42
:10018000DDB2C1F3C752AD1A202D35DAC1F3160125
:1001900041F4000204B15242C5F1200602FA06F110
:1001A0002A411044B3EBD05F23D0C4B1012DA0EBA2
:1001B000C35009DCF0BC4FF0004202EAC352DBB28C
:1001C00000F5000000F07BB9400000F1807000EB0A
:1001D000C350A0F1807040EAD170490009E049089D
:1001E00041EAC071A0EBC35000F50000400800EBED
:1001F000C350F0BC00F05AB96142012202EB410148
:10020000001BF6E7F0BC704781F00041AAE780F0E0
:100210000040A7E780EA010210B502F00043400069
:1002200022D04A001FD0010E01EB1261C0F356002C
:10023000C2F3560240F4000042F40002A0FB022088
:1002400000047F39140400D0401C50EA124001D44D
:100250004000491EC2B20C0604EBD010401C4008FE
:10026000802A02D003E0002010BD20F00100002908
:1002700000DA0020184310BD2DE9FE4F81EA030487
:1002800004F0004421F0004100944FF0000B23F0F3
:10029000004350EA01045ED052EA03045BD0C3F38A
:1002A0000A54C1F30A552C44A4F2F3340194A0FB80
:1002B0000254C1F3130141F48011C3F3130343F457
:1002C000801301FB024400FB034E840A970A44EAB0
:1002D000815447EA8357A4FB076802958D0A05FB02
:1002E00007854FEA932C04FB0C542705029D4FEA27
:1002F000065847EA1637B5EB08056EEB070C870E74
:10030000920E47EA811742EA8312A7FB0201B6EB7D
:100310000B0164EB00042B0D43EA0C335E1844EB35
:100320001C50DA465146E7FB0201C5F313044FEABD
:100330000B3343EA14534FEA0432019C43EA0603A9
:10034000A4F10C040294009CCDE900B400F0F4F890
:1003500003B0BDE8F08F00200146F9E7C10F80EA45
:10036000E0700844CA079623002100F0A8B80EB533
:10037000C10F80EAE0700844CA07002140F233430D
:100380008DE80E000A460B4600F0D6F803B000BD1B
:1003900000F0004220F00040C10DC0F3160040F410
:1003A00000007F2901DA00207047962903DCC1F1A3
:1003B0009601C84001E096398840002AF4D04042B6
:1003C000704770B5C1F30A5201F000450024C1F333
:1003D000130140F2FF3341F480119A4201DA002008
:1003E00070BD40F233439A42A2F2334203DC5242E0
:1003F00000F04CF800E090402C43F1D0404270BD3A
:1004000030B5041E71F1000404DB4FF0004440429B
:1004100064EB0101141E73F1000405DB1C464FF070
:100420000043524263EB04038B4208BF824230BD5B
:1004300030B5041E71F1000404DB4FF0004440426B
:1004400064EB0101141E73F1000405DB1C464FF040
:100450000043524263EB0403994208BF904230BD0F
:1004600030B50B46014600202022012409E021FA84
:1004700002F59D4205D303FA02F5491B04FA02F581
:100480002844151EA2F10102F1DC30BD202A04DB54
:10049000203A21FA02F00021704721FA02F3D040FD
:1004A000C2F1200291400843194670470029A8BFB5
:1004B0007047401C490008BF20F00100704710B48D
:1004C000B0FA80FC00FA0CF050EA010404BF10BC42
:1004D000704749B1CCF1200421FA04F411FA0CF16F
:1004E00018BF012121430843A3EB0C01CB1D4FEAA8
:1004F00000614FEA102042BF002010BC704700EBA3
:10050000C35010440029A4BF10BC7047401C4900D0
:1005100008BF20F0010010BC704710B5141E73F125
:10052000000408DA401C41F1000192185B411A43B3
:1005300001D120F0010010BD2DE9F04D92469B46FF
:1005400011B1B1FA81F202E0B0FA80F220329046A5
:1005500000F052F804460F4640EA0A0041EA0B0157
:1005600053465A46084313D0114653EA010019D0A6
:10057000C8F140025046FFF789FF05460E46504637
:100580005946424600F038F8084305D0012004E0FF
:1005900020463946BDE8F08D0020054346EAE07666
:1005A0002C4337430A986305E40AA0EB08000022B5
:1005B000FD0A44EA47540A3002D500200146E9E723
:1005C000010510196941DDE9084500196941BDE8D7
:1005D000F04DA2E7064C074D06E0E06840F001034D
:1005E00094E8070098471034AC42F6D3FFF78EFD2D
:1005F000C4330008E4330008202A04DB203A00FA60
:1006000002F1002070479140C2F1200320FA03F369
:1006100019439040704700BFFEE700BFFEE770B58A
:10062000054600246C6A0021284602F099F8B4F5CA
:10063000004F02DBA4F57F44FF3C204670BD00BFA5
:10064000FEE700002DE9F05F82464FF0520B58465E
:10065000FFF78DFE8046484A484BFFF70DFE0446E3
:100660000D465046FFF783FE064622462B46FFF70F
:10067000DFFE16D85846FFF77AFE06464FF03332B3
:100680003F4BFFF7F9FD04460D465046FFF76FFE5E
:10069000804622462B46FFF7B3FE02D80020BDE875
:1006A000F09F5846FFF763FE8046334A334BFFF70F
:1006B000E3FD04460D465046FFF759FE0646224626
:1006C0002B46FFF79DFE15D25846FFF750FE064613
:1006D00000222C4BFFF7D0FD04460D465046FFF795
:1006E00046FE804622462B46FFF7A2FE02D84FF078
:1006F000FF30D4E75846FFF73AFE06464FF0333254
:100700001F4BFFF7B9FD804689465046FFF72FFE85
:10071000044642464B46FFF78BFE14D25846FFF77D
:1007200026FE80460022184BFFF7A6FD04460D4624
:100730005046FFF71CFE064622462B46FFF760FE9A
:1007400001D80120ABE75846FFF711FE8046002292
:100750000C4BFFF791FD04460D465046FFF707FE90
:10076000064622462B46FFF74BFE02D26FF00100F1
:1007700095E7022093E700009A9999999999E93FA2
:100780003333F33F0000E03F0000F83F00BFFEE7D7
:1007900070B504460D461646002C0ADDA2B20021B3
:1007A000224801F024FF4FF48051214800F012FF4D
:1007B0000AE0604282B200211C4801F018FF4FF4A9
:1007C00080511B4800F008FF002D0ADDAAB201216C
:1007D000164801F00CFF4FF40051154800F0FAFEE6
:1007E0000AE0684282B20121104801F000FF4FF494
:1007F00000510F4800F0F0FE002E0ADDB2B20221D7
:100800000A4801F0F4FE4FF48041094800F0E2FE8E
:100810000AE0704282B20221044801F0E8FE4FF47F
:100820008041034800F0D8FE70BD0000002C01405C
:10083000000C014010B540F2036001F0F1FC4FF4F0
:100840008053032210211D4800F0CDFE4FF40053C9
:1008500003221021194800F0C6FE4FF48043032202
:100860001021164800F0BFFE4FF480501349143198
:100870000860400008604000086040F2026001F03B
:10088000CFFC4FF4C06001F0CBFC4FF48073032227
:1008900018210B4800F0A7FE4FF400730322182123
:1008A000074800F0A0FE4FF480630322182104489B
:1008B00000F099FE01F0DCFE10BD0000000C0140CC
:1008C0000008014000BFFEE710B5002807DA0A075C
:1008D000140E054A00F00F031B1FD45403E00A074F
:1008E000130E024A135410BD18ED00E000E400E0BE
:1008F00070B5002415E004F1B001C8B200F000F9B1
:10090000012000F0FDF8102000F0FAF8002504E0C6
:10091000002000F02BF9681CC5B2842DF8DB601CA8
:10092000C4B2082CE7DB70BD10B540F2046001F0E2
:1009300077FC40F2026001F073FC4FF400430322A5
:1009400010214B4800F04FFE4FF40041484800F0A2
:1009500041FE4FF4804303221021454800F043FE3E
:100960004FF48041424800F035FE4FF4005303221B
:1009700010213F4800F037FE4FF400513C4800F092
:1009800029FE0123032210213A4800F02CFE012108
:10099000384800F01FFE4FF40041354800F01CFEBF
:1009A0004FF40051324800F015FE322000F0F8FC00
:1009B0004FF400512E4800F00FFEAE2000F0A0F8DA
:1009C000002000F09DF8102000F09AF8402000F080
:1009D00097F8812000F094F8CF2000F091F8A12042
:1009E00000F08EF8C82000F08BF8A62000F088F800
:1009F000A82000F085F83F2000F082F8D32000F016
:100A00007FF8002000F07CF8D52000F079F88020F5
:100A100000F076F8D92000F073F8F12000F070F8BB
:100A2000DA2000F06DF8122000F06AF8DB2000F008
:100A300067F8402000F064F8202000F061F8022000
:100A400000F05EF88D2000F05BF8142000F058F8FC
:100A5000A42000F055F8A62000F052F8AF2000F0D6
:100A60004FF8FFF745FF0021084600F037F810BDAA
:100A700000100140000801402DE9F0470446884677
:100A800015464FF000090026002720E0E85D2038D9
:100A900000F0FF097E2C04DD002408F1010000F0C5
:100AA000FF084146204600F019F8002609E009EB4E
:100AB0004901094A02EB4101885D00F057F8701CBA
:100AC000C6B2062EF3DBA01DC4B2781CC7B2E85D27
:100AD0000028DBD1BDE8F087AA2B000870B50446DA
:100AE0000D4605F1B001C8B200F00AF8102141EA44
:100AF000141000F005F804F00F0000F001F870BDCC
:100B000070B5044608250121164800F063FD29034D
:100B1000154800F05FFD012000F06CFE1CE004F0C1
:100B2000800028B14FF480410F4800F055FD04E0EB
:100B30004FF480410C4800F04DFD4FF400410A484D
:100B400000F04AFD012000F055FE4FF40041064838
:100B500000F040FD6006040E281EA5F10101CDB293
:100B6000DDD170BD000801400010014070B50446A1
:100B700008250121164800F02FFD2903154800F033
:100B800029FD012000F036FE1CE004F0800028B1B1
:100B90004FF480410F4800F01FFD04E04FF4804106
:100BA0000C4800F017FD4FF400410A4800F014FD16
:100BB000012000F01FFE4FF40041064800F00AFD3E
:100BC0006006040E281EA5F10101CDB2DDD170BD75
:100BD000000801400010014000BFFEE710B50446C8
:100BE000052C49D2DFE804F003101D2A3900012149
:100BF000234800F04EFD30B90121214800F049FDA5
:100C000008B9012010BD37E002211D4800F041FD68
:100C100030B902211A4800F03CFD08B90120F1E783
:100C20002AE00421164800F034FD30B904211448AC
:100C300000F02FFD08B90120E4E71DE04FF400614A
:100C4000104800F026FD38B94FF400610D4800F05F
:100C500020FD08B90120D5E70EE04FF48051094886
:100C600000F017FD38B94FF48051064800F011FD2F
:100C700008B90120C6E700BF00BF0020C2E700009E
:100C8000000C01400008014000BFFEE710B500F075
:100C900091FB10BD08B53048006840F001002E49B6
:100CA000086000BF2C48006800F002000028F9D05E
:100CB00000BF2948406840F0800027494860002074
:100CC000009002E00098401C009000985028F9D352
:100CD0002148406840F090001F4948600020009083
:100CE00002E00098401C009000985028F9D300BF03
:100CF0001948406820F0030017494860084600681A
:100D000016490840144908600846406814490840DC
:100D10001149486008460068104908400E490860BB
:100D20000846006820F480200860084640680D49A5
:100D300008400949486008460068084908400649D3
:100D400008604FF41F00886001F0FCFA00214FF0AA
:100D5000006001F00FF808BD00100240FFFFF6FE32
:100D60000C00FFE8FFFF00F710B50121024801F079
:100D70006CFD00F02DFD10BD002C014010B51C498C
:100D80001C4801F0CEFEB0B11A4801F045FEC1B2D8
:100D9000194802880088401C174B18801748815456
:100DA0001846008816490978884204D140F2053176
:100DB000104801F09CFE13490E4801F0B2FEA8B1A4
:100DC000114802780078401C0F4B18700F48815C66
:100DD000084801F026FE0C4800780D490978884241
:100DE00004D140F20731034801F081FE10BD00003C
:100DF00005030500004400402A0000204C000020AC
:100E00002800002007030700290000201C00002004
:100E10002700002070B5FF24FD25FE261D491E4831
:100E200001F07FFEA0B31C4801F0F6FD1B491C4AEF
:100E3000126841F822001A480068401C18490860EE
:100E400016480068FF2801D0002008601348406859
:100E5000FD2806D012480068022802D1002010495F
:100E600008600F480068062812D10C484069FE2827
:100E70000ED10A4880680B4908600848C0680A49D2
:100E800008600648006909490860002004490860B4
:100E900070BD00000503050000480040340000203C
:100EA000040000200C00002010000020140000208E
:100EB00010B5044640F2036001F0B2F940F212703E
:100EC00001F0AEF94FF48063032218211D4800F0B1
:100ED0008AFB4FF40063032204211A4800F083FBCD
:100EE000194801F0A3FD2146174801F04DFD0021EE
:100EF000154801F052FE0021134801F03EFE00218A
:100F0000114801F02AFE00210F4801F0E6FD002102
:100F10000D4801F0D8FD08210B4801F036FE0421F0
:100F2000094801F022FE084801F0C8FD00221146E0
:100F3000272000F0BFFE40F20531034801F0E4FD38
:100F400010BD0000000C0140004800402DE9F041B8
:100F500080460F4615461C4626684EB9012D02D123
:100F60000120206042E0022D40D1032020603DE0BE
:100F7000012E0FD1022D09D14046FFF763FB10B9B6
:100F80000420206032E0032020602FE00DBB002011
:100F900020602BE0032E0CD10DB1012D02D10020D9
:100FA000206023E04046FFF74DFB90B9042020600D
:100FB0001CE0042E0ED14046FFF744FB10B1032085
:100FC000206013E0384600F0D1FA01280ED102204B
:100FD00020600BE0022E09D115B90020206005E049
:100FE000384600F0C3FA08B904202060BDE8F0815B
:100FF00000BFFEE70FB4084B10B504A902AA03987E
:1010000000F01CF8044602A9002000F0B8F92046C0
:1010100010BC5DF814FB00007F13000802E008C854
:10102000121F08C1002AFAD170477047002001E062
:1010300001C1121F002AFBD1704700002DE9FF4FAC
:101040008BB088460546002606E025280BD0DDE952
:101050000D1290476D1C761C28780028F5D10FB032
:101060003046BDE8F08F0024A146A2460122AE49D9
:1010700000E0044315F8013F203B02FA03F0084268
:10108000F7D128782A2810D06FF02F022878A0F105
:101090003001092915D809EB890102EB410144F01F
:1010A000020400EB01096D1CF0E758F8041B5FEA2D
:1010B000010903D544F40054C9F1000944F00204C5
:1010C0006D1C28782E2817D115F8010F44F0040460
:1010D0002A280ED06FF02F022878A0F130010929BC
:1010E0000AD80AEB8A0102EB410100EB010A6D1CF0
:1010F000F2E758F804AB6D1C28786C280FD006DC9A
:101100004C2817D068280DD06A2814D104E0742820
:1011100010D07A280FD10DE044F400140AE044F412
:10112000801401E044F440146978814202D104F54E
:1011300080146D1C6D1C2878692865D006DC002899
:101140008DD0632827D0642806D15DE06E2808D0B2
:1011500073282AD0752877D0DDE90D129047761CC8
:10116000E0E0C4F30250022809D003280DD0D8F8DB
:10117000001004280DD00E6008F10408D2E0D8F861
:101180000010F217C1E90062F6E7D8F800100E80EF
:10119000F2E70E70F0E718F8041B8DF8001000203D
:1011A0008DF80100EB46012003E058F804BB4FF036
:1011B000FF3061074FF0000701D40AE07F1C57455C
:1011C0000DDA8742FADB1BF807100029F6D106E09A
:1011D0007F1C8742FCDB1BF807100029F8D1DDE9F2
:1011E0000D23A9EB07008146214600F0B1F83044F9
:1011F000C61904E0DDE90D121BF8010B90477F1EB4
:10120000F8D22146484688E058F8040BC4F302514E
:101210004FF00A0B032900D100B2042900D140B2DB
:10122000002802DA40422D2102E0210505D52B21BC
:101230008DF82410012104E006E0E10710D0202100
:10124000F6E708AF089113E058F8040BC4F3025115
:101250004FF00A0B032900D180B2042900D1C0B29B
:101260000021EEE75946FFF7FBF8303107F8011D82
:101270000028F7D1ADEB070000F1200B600702D585
:1012800024F4803401E04FF0010ADA4502DDAAEBD4
:101290000B0000E00020824600EB0B01089801449F
:1012A000A9EB01000A90E00306D4DDE90D232146F5
:1012B0000A9800F04DF806444FF0000908E009A92B
:1012C00011F80900DDE90D12904709F10109761CBA
:1012D00008998945F3DBE0030CD5DDE90D232146B0
:1012E0000A9800F035F8064404E0DDE90D123020DC
:1012F0009047761CBAF10001AAF1010AF5DC05E07D
:10130000DDE90D1217F8010B9047761CBBF10001C7
:10131000ABF1010BF4DC0A982146DDE90D2300F066
:1013200005F806446D1C97E6092801002DE9F041F7
:10133000044600251E461746880404D405E03946B5
:101340002020B0476D1C641EF9D52846BDE8F08109
:101350002DE9F041044600251E469046C80301D5FC
:10136000302700E02027880404D505E041463846B0
:10137000B0476D1C641EF9D52846BDE8F0810A68A7
:10138000531C0B60107070470246002000BF03E042
:10139000002342F82030401C8842F9DB70470000EF
:1013A0000349086000BF024909680029FBD1704762
:1013B000180000200448006820B103480068401E5F
:1013C0000149086070470000180000201FB54FF465
:1013D000E06000F025FF40F2026000F021FF40F2E3
:1013E000036000F01DFF01211C4800F05BF94FF481
:1013F00000430322042140F2026000F0F4F80823C5
:101400000322042140F2036000F0EDF84FF0804029
:1014100001F0A8F90020ADF80000ADF80200ADF829
:1014200004004FF6FF7002900020ADF80C008DF81C
:101430000E0069464FF0804001F00AFA02230022B4
:101440001946580701F080FA4FF0804000F0A6FFDF
:101450004FF0804001F0F4F91FBD000000031800B8
:101460001FB540F2017000F0DBFE40F2036000F0B7
:10147000D7FE40F2036000F0D3FE0121194800F0CE
:1014800011F910230322042140F2036000F0ABF8AD
:1014900020230322042140F2036000F0A4F8124844
:1014A00001F060F90020ADF80000ADF80200ADF8E1
:1014B00004004FF6FF7002900020ADF80C008DF88C
:1014C0000E006946084801F0C3F9022300221946BC
:1014D000054801F039FA044800F060FF024801F0C5
:1014E000AFF91FBD00081A00000400401FB540F20C
:1014F000027000F095FE40F2036000F091FE40F2B1
:10150000036000F08DFE40230322042140F20360BB
:1015100000F069F880230322042140F2036000F008
:1015200062F8114801F01EF90020ADF80000ADF896
:101530000200ADF804004FF6FF7002900020ADF8F5
:101540000C008DF80E006946074801F081F902236E
:1015500000221946044801F0F7F9034800F01EFF85
:10156000014801F06DF91FBD000800402DE9F05F52
:1015700082464FF0520B5846FEF7F9FE8046002295
:10158000124BFEF779FE04460D465046FEF7EFFE7D
:10159000064622462B46FEF74BFF15D85846FEF767
:1015A000E6FE804600220A4BFEF766FE04460D4624
:1015B0005046FEF7DCFE064622462B46FEF720FF8D
:1015C00002D80120BDE8F09F0020FBE70000E03FCB
:1015D0000000F83F41617047016170470AB1016145
:1015E00000E041617047F0B5044616460025002230
:1015F00001F00F0501F0100707B1354300201EE090
:10160000012787401F40C7B122684FEA800C0F278F
:1016100007FA0CF7BA43870005FA07F73A43282977
:1016200004D1012787401F40676105E0482903D1A5
:10163000012787401F4027612260471CB8B2082855
:10164000DED3082022E0012787401F40E7B162680F
:10165000A0F108074FEA870C0F2707FA0CF7BA43E7
:10166000A0F10807BF0005FA07F73A43282904D17B
:10167000012787401F40676105E0482903D1012702
:1016800087401F4027616260471CB8B21028DAD338
:10169000F0BD02469068084008B101207047002064
:1016A000FCE70000F0B50A460023002400210025D5
:1016B00000F00046B6F1004F02D11D4EF16901E085
:1016C0001B4E7168C0F3034583B200F44016B6F5B3
:1016D000401F08D121F07061154E766826F07066C3
:1016E000134F7E6012E000F48016B6F5801F06D11D
:1016F000032606FA05F4A14341F0706106E0460DA9
:10170000360103FA06F6B14341F0706122B1460D8D
:10171000360103FA06F6314300F00046B6F1004FF9
:1017200002D1034EF16101E0014E7160F0BD000095
:101730000000014010B540F2036000F071FD01238C
:10174000032204211648FFF74EFF40F2036000F029
:1017500067FD0223032204211148FFF744FF40F2F2
:10176000036000F05DFD0423032219460C48FFF7D7
:101770003AFF40F2036000F053FD4FF40063032290
:1017800004210848FFF72FFF40F2026000F048FDF7
:101790004FF48053032204210248FFF724FF10BDB9
:1017A000000C01400008014010B540F2036000F059
:1017B00037FD4FF40043032210210448FFF713FFC5
:1017C0004FF400410148FFF707FF10BD000C014036
:1017D00010B54FF400410648FFF75BFFC0F1010070
:1017E000C4B222464FF400410148FFF7F7FE10BD96
:1017F000000C014000E000BF011EA0F10100FAD181
:1018000070470000ADF55C7D00F0A0FD002000F009
:1018100069FC00F09BFD4FF4C06000F001FDFFF794
:10182000D5FDFFF71DFEFFF761FEFFF7BDFFFFF7D8
:1018300081FFFFF779F86420FFF7B2FDFFF758F852
:10184000FEF7F8FFFFF770F8FEA200210A20FFF76D
:1018500013F93220FFF7A4FD4FF4E130FFF728FB26
:101860004FF00009CA460020D390834600BFD290B3
:101870000026D190D090CF90C8219DA8FEF767FC9C
:10188000C8216BA8FEF763FCC82139A8FEF75FFCEE
:10189000C82107A8FEF75BFC0024002500BF00BF9D
:1018A00000BF00BF0020069002E20020FFF796F97B
:1018B000012800D1761C0120FFF790F9012800D102
:1018C00000260220FFF78AF9012800D1761EFFF7D3
:1018D0007FFF4FF08040FEF7A2FE8346DE48FEF712
:1018E0009EFEDE48FEF79BFED290DD48D0F80090C9
:1018F000DC48D0F800A0DC480068D39006AB514625
:101900004846D39AFFF722FB069801287ED1484625
:10191000FEF798FEC8B9CFA8D1A902AA31C2019199
:101920006BA89DAB324600905846D29900F02EFA33
:101930000020D09000BF00BF322139A8FFF724FD5E
:10194000322107A8FFF720FD5CE14846FEF77AFE4A
:1019500001281BD1CFA8D1A903AA31C202916BA83B
:101960009DA9F31C3246CDE900105846D29900F0EB
:10197000D3FA0020D09000BF00BF322139A8FFF772
:1019800003FD322107A8FFF7FFFC3BE14846FEF7C5
:1019900059FE022828D13046FEF7E9FC0022B34B5D
:1019A000CDE90201FEF768FC0746FEF70AFD059047
:1019B000CFA8D1A902AA31C2019107A839AB0090E2
:1019C0005846059AD29900F0E1F9CF98D190CF9876
:1019D000D09000BF00BF32219DA8FFF7D5FC322177
:1019E0006BA8FFF7D1FC0DE14846FEF72BFE401C2B
:1019F000E8B9CFA8D1A903AA31C202916BA89DA9C9
:101A00003346F21CCDE90010584600E03EE0D29982
:101A100000F082FA0020D09000BF00BF322139A828
:101A2000FFF7B2FC322107A8FFF7AEFCEAE0484618
:101A3000FEF708FE801C002886D13046FEF797FC92
:101A400000228B4BCDE90201FEF716FC0746FEF79C
:101A5000B8FC0590CFA8D1A902AA31C2019107A86C
:101A600039AB00905846059AD29900F08FF9CF987B
:101A7000D190CF98D09000BF00BF32219DA8FFF732
:101A800083FC32216BA8FFF77FFCBBE0069838BBD4
:101A90003046FEF76CFC0022754BCDE90201FEF7E3
:101AA000EBFB0746FEF78DFCCFA90590D1A801AA54
:101AB00033C207A839AB00905846059AD29900F076
:101AC00065F9CF98D190CF98D09000BF00BF322158
:101AD0009DA8FFF759FC32216BA8FFF755FC91E058
:101AE000069803285BD14846FEF7ACFD012828DBA9
:101AF0003046FEF73CFC00225C4BCDE90201FEF7CC
:101B0000BBFB0746FEF75DFC0590CFA8D1A902AA52
:101B100031C2019107A839AB00905846059AD29975
:101B200000F034F9CF98D190CF98D09000BF00BF8B
:101B300032219DA8FFF728FC32216BA8FFF724FC77
:101B400060E04846FEF77EFD00285BDA3046FEF78F
:101B50000EFC0022464BCDE90201FEF78DFB074645
:101B6000FEF72FFC0590CFA8D1A902AA31C201919E
:101B700007A839AB00905846059AD29900F006F9AB
:101B8000CF98D190CF98D09000BF00BF32219DA8B0
:101B9000FFF7FAFB32216BA8FFF7F6FB32E006985D
:101BA000042810D10020D190CF9040F2DC50D0908A
:101BB00000BF00BF32219DA8FFF7E6FB32216BA8D2
:101BC000FFF7E2FB1EE0069802281BD1CBF10000D4
:101BD000D290CFA8D1A902AA31C201916BA89DAB26
:101BE000324600905846D29900F0D0F80020D090AC
:101BF00000BF00BF322139A8FFF7C6FB322107A87A
:101C0000FFF7C2FBCF9AD099D198FEF7C1FD4A46A3
:101C100018A1D4A8FFF7EEF9D4AA02210020FEF7FC
:101C20002BFF524616A1D4A8FFF7E4F9D4AA042149
:101C30000020FEF721FF15A1D4A8069BD39AFFF739
:101C4000D9F92BE02D2D2D4B494C4C455220524FAC
:101C5000424F542D2D2D000000040040000800408C
:101C60000C00002010000020140000200000E03FC5
:101C70000000E0BF62616C6C3A2025640000000047
:101C8000676174653A202564000000007374617414
:101C900075733A2025642C2025640000D4AA0621FF
:101CA0000020FEF7E9FEFFF793FD3220FFF778FBF7
:101CB000FBE500002DE9F04103460D4616460024E1
:101CC0000027A0462448006800F4E060B0F5A06F4B
:101CD00015D006DCB0F5407F18D0B0F5806F19D173
:101CE00010E0B0F5C06F06D0B0F5E06F12D100275C
:101CF0004FF0040815E001274FF0030811E0022718
:101D0000B8460EE003274FF001080AE004274FF021
:101D1000000806E04FF4A06000F022F80227B84661
:101D200000BF00BFC7F1040005FA00F4C8F10401C8
:101D30000F20C8403040044324010848C45403F035
:101D40001F01012088405911890001F1E021C1F8EB
:101D50000001BDE8F08100000CED00E000E400E0CF
:101D600002490143024A1160704700000000FA0571
:101D70000CED00E0034A0A400243034B1A60BFF334
:101D80004F8F704780FFFF1F08ED00E02DE9F04FF7
:101D900095B004460E4615469946DDE91FAB322044
:101DA0001490594813905948129059481190564828
:101DB00010904FF07E500F9040F6B8300E90DAF849
:101DC0000070DBF800806442281B0D90A81B0C906B
:101DD000322248460D9900F067F932220C991E987C
:101DE00000F062F93221484600F06DF90B90322183
:101DF0001E9800F068F90A902198201A09902298FC
:101E0000301A08900998FEF7A9FA4FF07E51049015
:101E1000FEF700FA06900B98FEF7A0FA3A490290F6
:101E2000FEF7F8F904900D98FEF798FA38490090FB
:101E3000FEF7F0F902902846FEF790FA3349009039
:101E4000FEF7E8F901900299FEF78CF903900499E6
:101E5000FEF788F905900699FEF784F90790FEF7DA
:101E600097FA07460898FEF779FA4FF07E510490EA
:101E7000FEF7D0F906900A98FEF770FA2249029010
:101E8000FEF7C8F904900C98FEF768FA2049009014
:101E9000FEF7C0F902902846FEF760FA1B49009051
:101EA000FEF7B8F901900299FEF75CF903900499E6
:101EB000FEF758F905900699FEF754F90790FEF7DA
:101EC00067FA804640F6B830874200DD00E03846C9
:101ED000074640F6B830804500DD00E040468046C9
:101EE0000C48874200DA00E038460746094880453A
:101EF00000DA00E0404680467842CAF80000CBF89D
:101F0000008015B0BDE8F08F00002041000048437C
:101F10000000484248F4FFFF2DE9F04F95B0044619
:101F20000D4616461F46DDE920AB322014905A4874
:101F300013905A4812905A481190574810904FF0F9
:101F40007E500F9040F6B8300E90DAF80080DBF843
:101F500000906442301B0D90781B0C9032220D993A
:101F60001E9800F0A1F832220C991F9800F09CF8FE
:101F700032211E9800F0A7F80B9032211F9800F034
:101F8000A2F80A902298201A09902398281A0890FB
:101F90000998FEF7E3F94FF07E510490FEF73AF905
:101FA00006900B98FEF7DAF93B490290FEF732F9FA
:101FB00004900D98FEF7D2F939490090FEF72AF9FE
:101FC00002903046FEF7CAF934490090FEF722F934
:101FD00001900299FEF7C6F803900499FEF7C2F843
:101FE00005900699FEF7BEF80790FEF7D1F98046F6
:101FF0000898FEF7B3F94FF07E510490FEF70AF906
:1020000006900A98FEF7AAF923490290FEF702F912
:1020100004900C98FEF7A2F921490090FEF7FAF817
:1020200002903846FEF79AF91C490090FEF7F2F844
:1020300001900299FEF796F803900499FEF792F842
:1020400005900699FEF78EF80790FEF7A1F98146F4
:1020500040F6B830804500DD00E04046804640F65E
:10206000B830814500DD00E0484681460D48804596
:1020700000DA00E0404680460A48814500DA00E088
:1020800048468146C8F10000CAF80000CBF800902D
:1020900015B0BDE8F08F000000002041000048436B
:1020A0000000484248F4FFFF10B50B460021511EC6
:1020B00005E04C1E50F8244040F82140491E0029FC
:1020C000F7DC036010BD10B502460B46002000216E
:1020D00000BF03E052F821402044491C9942F9DB3B
:1020E00010BD0000044A516821F0F00141EA0002ED
:1020F000014B5A6070470000001002402DE9F04F7C
:102100008BB00746002009903EA090E8004CC068C4
:10211000CDE905BECDF810A007900FF2EC0ADAE980
:10212000000ACDE9020A0FF2E00ADAE9000ACDE975
:10213000000A38484068C0F381000A900A9820B12C
:10214000012804D0022829D103E0334928E032498C
:1021500026E03048406800F48038B8F5803F09D167
:102160002D4C2C48406800F40039B9F5003F02D1ED
:10217000641000E0294C27484068C0F3834225489A
:10218000406800F0006008B142F010020F2A01D24E
:10219000921C00E0521C04FB02F101E01E4900BF4A
:1021A00000BF1C484068C0F3031504A8465D21FA2F
:1021B00006F318484068C0F3022502A8465D23FADA
:1021C00006FC14484068C0F3C2251DF8056023FAD8
:1021D00006F0089037B1012F06D0022F06D0032F4A
:1021E0000AD106E0099108E0099306E0CDF824C081
:1021F00003E00898099000E000BF00BF09980BB009
:10220000BDE8F08F000000000000000001020304A0
:10221000060708090010024000127A0000093D007C
:10222000064A02EB9011096800F01F0301229A4050
:102230001143024B03EB90121160704700100240F3
:10224000064A02EB9011096800F01F0301229A4030
:102250009143024B03EB9012116070470010024053
:10226000064A02EB9011096800F01F0301229A4010
:102270001143024B03EB90121160704700100240B3
:10228000002000212C4A126842F480322A4B1A6046
:1022900000BF401C284A126802F4003119B94FF6F9
:1022A000FF729042F5D1244A126802F400320AB952
:1022B00000BFFEE7204A52681F4B5A601A46526818
:1022C0005A601A46526842F480625A601A4652684E
:1022D00022F440325A601A46526842F440325A6040
:1022E0001A465268154B1A40134B5A601A465268E8
:1022F000134B1A43104B5A601A46126842F0807210
:102300001A6000BF0C4A126802F00072002AF9D06D
:10231000094A526822F00302074B5A601A46526873
:1023200042F002025A6000BF034A526802F00C02F7
:10233000082AF9D17047000000100240FFFFC3F7E0
:102340000000040810B5FFF79BFF10BD10B5124840
:1023500000684FF47A71B0FBF1F4601EB0F1807F39
:1023600001D301200FE0601E4FF0E02148610F21F2
:102370004FF0FF30FEF7A8FA00204FF0E02188610F
:1023800007200861002008B100BFFEE70021481EB9
:10239000FEF79AFA10BD000000000020016841F02D
:1023A000800101607047000010B531B101293FD0B4
:1023B00002297DD003297CD1BFE0036A23F0010309
:1023C0000362836923F003038361036A1488234350
:1023D0000362036A23F002030362036A94882343BF
:1023E00003626A4B984202D0694B98421FD1036A3C
:1023F00023F004030362036A548823430362036ADD
:1024000023F008030362036AD4882343036243680A
:1024100023F4807343604368148923434360436813
:1024200023F4007343604368548923434360ABE063
:10243000036A23F010030362836923F4407383610A
:10244000036A148843EA04130362036A23F0200337
:102450000362036A948843EA041303624B4B984275
:1024600002D04B4B984226D1036A23F0400303620B
:10247000036A548843EA04130362036A23F0800367
:102480000362036AD48843EA04130362436823F4B3
:10249000806343604368148943EA8403436043686C
:1024A00023F4006343604368548943EA840301E0F2
:1024B00002E068E0436067E0036A23F4807303622C
:1024C000C36923F00303C361036A148843EA042346
:1024D0000362036A23F400730362036A948843EA85
:1024E00004230362294B984202D0294B984223D1FE
:1024F000036A23F480630362036A548843EA042373
:102500000362036A23F400630362036AD48843EA24
:1025100004230362436823F48053436043681489AF
:1025200043EA04134360436823F400534360436861
:10253000548943EA0413436026E0036A23F480537A
:102540000362C36923F44073C361036A148843EAD6
:1025500004330362036A23F400530362036A94881A
:1025600043EA04330362094B984202D0084B984275
:1025700008D1436823F4804343604368148943EAE5
:102580008413436000E000BF00BF10BD002C014079
:102590000034014031B101290CD0022913D00329A4
:1025A00022D118E0836923F07003836183691343A8
:1025B00083611AE0836923F4E0438361836943EA1A
:1025C0000223836111E0C36923F07003C361C3690F
:1025D0001343C36109E0C36923F4E043C361C369E2
:1025E00043EA0223C36100E000BF00BF704731B17E
:1025F000012906D0022906D0032908D105E042634B
:1026000006E0826304E0C26302E0026400E000BF0F
:1026100000BF704731B101290CD0022913D0032922
:1026200022D118E0836923F008038361836913438F
:1026300083611AE0836923F400638361836943EA59
:102640000223836111E0C36923F00803C361C369F6
:102650001343C36109E0C36923F40063C361C36921
:1026600043EA0223C36100E000BF00BF70470000DF
:1026700000B587B040F20B60FFF7D2FD374800F09D
:1026800071F80020ADF80000ADF80200ADF80400CC
:1026900041F61F4002900020ADF80C008DF80E00AE
:1026A00069462E4800F0D4F80020ADF8140001204F
:1026B000ADF810000020ADF81600ADF81200ADF82E
:1026C0001800ADF81A0004AA00212448FFF76CFE98
:1026D00004AA01212148FFF767FE04AA02211F482E
:1026E000FFF762FE40F2F31200211C48FFF77FFF64
:1026F000602200211948FFF74DFF002211461748BC
:10270000FFF788FF40F2F31201211448FFF76FFF33
:10271000602201211148FFF73DFF002201210F48EF
:10272000FFF778FF40F2F31202210C48FFF75FFF3A
:10273000602202210948FFF72DFF002202210748ED
:10274000FFF768FF0548FFF729FE0121034800F065
:10275000EFF8024800F074F807B000BD002C01400B
:102760004162704710B504463349601A8C4244D028
:102770000CDCB4F1804F1CD03048204410B3B0F5CD
:10278000806F28D0B0F5006F52D12DE0B0F5806F8A
:102790003CD0B0F58E3F03D0B0F5923F48D13EE03B
:1027A00040F20B30FFF75CFD40F20B30FFF748FDC5
:1027B0003FE04FF48060FFF753FD4FF48060FFF778
:1027C0003FFD36E040F20140FFF74AFD40F2014094
:1027D000FFF736FD2DE040F20240FFF741FD40F2E9
:1027E0000240FFF72DFD24E040F20340FFF738FDE3
:1027F00040F20340FFF724FD1BE040F20440FFF7E6
:102800002FFD40F20440FFF71BFD12E040F20540AF
:10281000FFF726FD40F20540FFF712FD09E040F208
:102820000D30FFF71DFD40F20D30FFF709FD00E010
:1028300000BF00BF10BD00000010004000FCFFBF43
:10284000016841F0010101607047CA4302617047AD
:102850000A888262294A904220D0B0F1804F1DD070
:10286000274A90421AD0274A904217D0264A9042CF
:1028700014D0264A904211D0254A90420ED0254AC3
:1028800090420BD0244A904208D0244A904205D06E
:10289000234A904202D0234A90420FD1026822F08C
:1028A0007002026002688B7803F060031A430260D2
:1028B00002680B7903F010031A4302608A68C2624F
:1028C000194A90420CD0194A904209D0026822F469
:1028D0004072026002688B8903F440731A430260FD
:1028E000064A904202D0094A904201D18A7B026393
:1028F000426942F00102426170470000002C014031
:102900000004004000080040000C0040003401407A
:10291000004C0140005001400054014000180040AC
:10292000001C004000200040001000400014004047
:10293000012904D1426C42F40042426403E0426C3B
:1029400022F400424264704730B5846824F00704E2
:10295000846084680C438460846940F20335AC432E
:102960008461846940F201152C438461046A24F077
:102970000A040462046A24F0A0040462046A42EABD
:1029800003152C43046230BD2DE9F04704460D4683
:102990000027B846B94600261D49601A8C421CD053
:1029A00006DC1C48204470B1B0F5806F1FD10FE0E9
:1029B000B0F5806F16D0B0F56C4F18D10320FFF73B
:1029C0009DFB074614E00220FFF798FB07460FE047
:1029D0000220FFF793FB07460AE00220FFF78EFB79
:1029E000074605E00220FFF789FB074600E000BF2D
:1029F00000BF07EB5500B0FBF5F64FF6F07006EAA6
:102A0000000806F00F0948EA0900A060BDE8F08759
:102A1000004C004000BCFFBF01464868C0F30800FE
:102A20007047C1F3080242607047000010B50446C9
:102A30002049601A8C4228D006DC1F48204490B1FF
:102A4000B0F5806F33D117E0B0F5806F26D0B0F5C8
:102A50006C4F2CD140F20E30FFF702FC40F20E30EA
:102A6000FFF7EEFB24E040F21140FFF7F9FB40F2E4
:102A70001140FFF7E5FB1BE040F21240FFF7F0FBCF
:102A800040F21240FFF7DCFB12E040F21340FFF788
:102A9000E7FB40F21340FFF7D3FB09E040F214409C
:102AA000FFF7DEFB40F21440FFF7CAFB00E000BF77
:102AB00000BF10BD004C004000BCFFBFC16841F426
:102AC0000051C1607047426922F40072426142695C
:102AD00001F400731A4342617047426922F4807224
:102AE0004261426901F480731A434261704710B534
:102AF000C1F38912825801F01F040123A3409A43B5
:102B0000C1F38913C25010BD10B5C1F389128258A8
:102B100001F01F040123A3401A43C1F38913C250DB
:102B200010BD70B5024600230024C1F3891010586F
:102B300001F01F060125B54000EA050302EB9150A4
:102B40000068C1F304460125B54000EA050414B14C
:102B50000BB1012070BD0020FCE7C26822F4C06206
:102B6000C260C2680A43C26070470A460021C16859
:102B700021F004011143C1607047026922F4405200
:102B8000026102690A43026170470A460021C16876
:102B900021F008011143C1607047C26822F48052DD
:102BA000C260C2680A43C2607047000000000000B3
:102BB0000000002F000000000700070000147F1431
:102BC0007F1400242A7F2A1200626408132300362F
:102BD0004955225000000503000000001C2241005E
:102BE000000041221C000014083E08140008083EA2
:102BF0000808000000A0600000080808080800009D
:102C000060600000002010080402003E5149453E6B
:102C10000000427F40000042615149460021414589
:102C20004B31001814127F10002745454539003CF0
:102C30004A494930000171090503003649494936BE
:102C400000064949291E00003636000000005636AD
:102C50000000000814224100001414141414000091
:102C60004122140800020151090600324959513E1F
:102C7000007C1211127C007F49494936003E4141D7
:102C80004122007F4141221C007F49494941007F88
:102C900009090901003E4149497A007F0808087F77
:102CA0000000417F4100002040413F01007F0814A7
:102CB0002241007F40404040007F020C027F007FA5
:102CC0000408107F003E4141413E007F090909068A
:102CD000003E4151215E007F0919294600464949BD
:102CE00049310001017F0101003F4040403F001F8A
:102CF0002040201F003F4038403F00631408146309
:102D000000070870080700615149454300007F41F2
:102D1000410000552A552A55000041417F0000041A
:102D20000201020400404040404000000102040053
:102D3000002054545478007F4844443800384444B8
:102D4000442000384444487F003854545418000844
:102D50007E0901020018A4A4A47C007F0804047862
:102D60000000447D4000004080847D00007F1028EA
:102D700044000000417F4000007C04180478007C7F
:102D80000804047800384444443800FC24242418FF
:102D90000018242418FC007C08040408004854543B
:102DA000542000043F444020003C4040207C001C54
:102DB0002040201C003C4030403C00442810284467
:102DC000001CA0A0A07C004464544C4414141414AF
:102DD00014140000000000000000000000000000CB
:102DE0000000000000F80000000000000033300088
:102DF000000000100C06100C06000000000000008F
:102E0000000040C07840C0784000043F04043F0404
:102E10000400007088FC08300000001820FF211E0C
:102E20000000F008F000E018000000211C031E2143
:102E30001E0000F00888700000001E2123241927BE
:102E4000211010160E00000000000000000000001D
:102E50000000000000E01804020000000007182035
:102E6000400000020418E0000000004020180700A5
:102E70000000404080F0804040000202010F01024B
:102E80000200000000F0000000000101011F01012C
:102E90000100000000000000000080B07000000091
:102EA000000000000000000000000001010101011D
:102EB00001010000000000000000003030000000B0
:102EC0000000000000008060180400601806010087
:102ED000000000E010080810E000000F1020201093
:102EE0000F00001010F8000000000020203F2020FC
:102EF0000000007008080888700000302824222193
:102F00003000003008888848300000182020201148
:102F10000E000000C02010F8000000070424243F29
:102F2000240000F8088888080800001921202011D2
:102F30000E0000E0108888180000000F11202011FA
:102F40000E0000380808C83808000000003F0000E4
:102F500000000070880808887000001C22212122CF
:102F60001C0000E010080810E000000031222211CF
:102F70000F00000000C0C000000000000030300062
:102F800000000000008000000000000080600000E1
:102F9000000000008040201008000001020408101A
:102FA0002000404040404040400004040404040429
:102FB00004000008102040800000002010080402D7
:102FC0000100007048080808F000000000303601D9
:102FD0000000C030C828E810E00007182724231498
:102FE0000B000000C038E0000000203C2302022754
:102FF000382008F8888888700000203F20202011A1
:103000000E00C030080808083800071820202010DB
:10301000080008F808080810E000203F20202010D1
:103020000F0008F88888E8081000203F202023209F
:10303000180008F88888E8081000203F20000300E6
:103040000000C03008080838000007182020221EA1
:10305000020008F808000008F808203F21010121BB
:103060003F20000808F8080800000020203F20202A
:10307000000000000808F8080800C08080807F0079
:10308000000008F888C028180800203F20012638D2
:10309000200008F8080000000000203F2020202029
:1030A000300008F8F800F8F80800203F003F003F23
:1030B000200008F830C00008F808203F200007185A
:1030C0003F00E01008080810E0000F10202020103A
:1030D0000F0008F808080808F000203F210101014E
:1030E0000000E01008080810E0000F1824243850F1
:1030F0004F0008F8888888887000203F2000030C63
:10310000302000708808080838000038202121226B
:103110001C00180808F8080818000000203F2000CC
:10312000000008F808000008F808001F20202020F0
:103130001F000878880000C83808000007380E0112
:103140000000F80800F80008F800033C0700073CFE
:103150000300081868808068180820302C03032CAE
:1031600030200838C800C83808000000203F200080
:10317000000010080808C838080020382621202040
:103180001800000000FE020202000000007F404024
:103190004000000C30C000000000000000010638B4
:1031A000C00000020202FE000000004040407F001C
:1031B0000000000004020202040000000000000001
:1031C00000000000000000000000808080808080FF
:1031D00080800002020400000000000000000000E7
:1031E000000000008080808000000019242222223C
:1031F0003F2008F8008080000000003F11202011CF
:103200000E000000008080800000000E11202020B1
:103210001100000000808088F800000E11202010AE
:103220003F200000808080800000001F2222222298
:103230001300008080F0888888180020203F20201C
:1032400000000000808080808000006B9494949344
:10325000600008F8008080800000203F21000020EE
:103260003F2000809898000000000020203F202090
:103270000000000000809898000000C08080807FDF
:10328000000008F8000080808000203F24022D30DC
:103290002000000808F8000000000020203F202047
:1032A00000008080808080808000203F20003F20C0
:1032B000003F8080008080800000203F21000020AF
:1032C0003F200000808080800000001F2020202000
:1032D0001F00808000808000000080FFA12020115E
:1032E0000E000000008080808000000E112020A0D1
:1032F000FF80808080008080800020203F2120008F
:103300000100000080808080800000332424242479
:103310001900008080E0808000000000001F202055
:1033200000008080000000808000001F202020100E
:103330003F20808080000080808000010E300806E1
:10334000010080800080008080800F300C030C30F2
:103350000F0000808000808080000020312E0E3120
:103360002000808080000080808080818E70180620
:10337000010000808080808080000021302C22218C
:10338000300000000000807C020200000000003FCE
:10339000404000000000FF00000000000000FF00AF
:1033A00000000002027C800000000040403F00005E
:1033B00000000006010102020404000000000000F9
:1033C00000000000E433000800000020340000008A
:1033D0001C1000081834000834000020BC04000051
:1033E0002C10000800A24A040000000000000000A9
:1033F00000000000000000000000000000000000CD
:1034000048454C4C4F574F524C44000A0A000000AC
:083410000000000000000000B4
:0400000508000105E9
:00000001FF
