:020000040800F2
:10000000880A00201D010008BD0C00083D080008FA
:10001000850B000815080008C31500080000000043
:100020000000000000000000000000008110000837
:100030001908000800000000D10F00088510000812
:1000400037010008370100083701000837010008B0
:1000500037010008370100083701000837010008A0
:100060003701000837010008370100083701000890
:100070003701000837010008370100083701000880
:100080003701000837010008370100083701000870
:100090003701000837010008370100083701000860
:1000A0003701000861110008370100083701000816
:1000B0003701000837010008370100083701000840
:1000C0003701000837010008370100083701000830
:1000D000370100083701000875110008A512000853
:1000E0003701000837010008370100080000000050
:1000F0000000000000000000000000000000000000
:1001000037010008DFF810D000F072FB004800470C
:10011000E91D0008AFF30080880A002006488047E8
:1001200006480047FEE7FEE7FEE7FEE7FEE7FEE7DC
:10013000FEE7FEE7FEE7FEE78D1000080501000878
:10014000D2B201E000F8012B491EFBD27047002219
:10015000F6E710B513460A4604461946FFF7F0FFC6
:10016000204610BD421E12F8013F002BFBD111F8B2
:10017000013B02F8013B002BF9D17047F0B480EA53
:100180000102D40F4200B2EB410F02D202460846F0
:1001900011464A0042D0C30DDDB2C1F3C752AD1AB9
:1001A000202D35DAC1F3160141F4000204B15242A8
:1001B000C5F1200602FA06F12A411044B3EBD05FE4
:1001C00023D0C4B1012DA0EBC35009DCF0BC4FF02B
:1001D000004202EAC352DBB200F5000000F07CBA34
:1001E000400000F1807000EBC350A0F1807040EA45
:1001F000D170490009E0490841EAC071A0EBC35041
:1002000000F50000400800EBC350F0BC00F05BBA02
:100210006142012202EB4101001BF6E7F0BC70478E
:1002200081F00041AAE780F00040A7E780EA0102E0
:1002300010B502F00043400022D04A001FD0010E4A
:1002400001EB1261C0F35600C2F3560240F4000005
:1002500042F40002A0FB022000047F39140400D005
:10026000401C50EA124001D44000491EC2B20C06A4
:1002700004EBD010401C4008802A02D003E000208C
:1002800010BD20F00100002900DA0020184310BD45
:100290002DE9FE4F804681EA0300C00F0C46009016
:1002A00021F0004123F00045B8EB0200A94105D23E
:1002B0004046214690461C460B46024623F000402D
:1002C000104347D0270DC7F30A00C3F30A51029029
:1002D000401A019040286BDAC3F3130040F4801BEE
:1002E0000098924620B10023D2EB030A63EB0B0B7C
:1002F00001985946C0F14002504600F0B3F9064655
:100300000D4650465946019A00F0CBF910EB080013
:100310006141002487EA115284EAE7731A4340D00E
:10032000009A62B3019A012A4FEA075215DC001BBA
:1003300061EB02014FF0004202EA0752CDE90042B0
:10034000001C41F5801132462B4600F002FA03B042
:10035000BDE8F08F40462146F9E7001B61EB020142
:10036000001C41F5801300185B412018A2F500170E
:1003700047EB030140EAD570B6196D4111E06D08F5
:100380004FEA360645EAC0754FEA0752001B61EB9B
:100390000201001C41F5801149084FEA30000019A4
:1003A000514132462B4603B0BDE8F04F00F0C2B9D0
:1003B0000098012240000023D0EB020263EBE073BF
:1003C000009821464FEAE074B8EB000061EB0401AD
:1003D000E9E783F000435BE781F0004158E72DE94E
:1003E000FE4F81EA030404F0004421F00041009430
:1003F0004FF0000B23F0004350EA01045ED052EAB4
:1004000003045BD0C3F30A54C1F30A552C44A4F28D
:10041000F3340194A0FB0254C1F3130141F48011A1
:10042000C3F3130343F4801301FB024400FB034EA8
:10043000840A970A44EA815447EA8357A4FB076871
:1004400002958D0A05FB07854FEA932C04FB0C549B
:100450002705029D4FEA065847EA1637B5EB08050F
:100460006EEB070C870E920E47EA811742EA831261
:10047000A7FB0201B6EB0B0164EB00042B0D43EA72
:100480000C335E1844EB1C50DA465146E7FB020180
:10049000C5F313044FEA0B3343EA14534FEA043213
:1004A000019C43EA0603A4F10C040294009CCDE9EC
:1004B00000B400F04EF903B0BDE8F08F0020014613
:1004C000F9E7C10F80EAE0700844CA0796230021CB
:1004D00000F002B90EB5C10F80EAE0700844CA0707
:1004E000002140F233438DE80E000A460B4600F02F
:1004F00030F903B000BD00F0004220F00040C10D13
:10050000C0F3160040F400007F2901DA0020704794
:10051000962903DCC1F19601C84001E09639884074
:10052000002AF4D04042704770B5C1F30A5201F07E
:1005300000450024C1F3130140F2FF3341F4801160
:100540009A4201DA002070BD40F233439A42A2F28F
:10055000334203DC524200F094F800E090402C4318
:10056000F1D0404270BD00F0004230F000400AD0AF
:10057000C10D01F56071C0F3160042EA0151C208D5
:1005800040071143704700200146704730B5041EF4
:1005900071F1000404DB4FF00044404264EB0101C0
:1005A000141E73F1000405DB1C464FF00043524259
:1005B00063EB04038B4208BF824230BD30B5041E9A
:1005C00071F1000404DB4FF00044404264EB010190
:1005D000141E73F1000405DB1C464FF00043524229
:1005E00063EB0403994208BF904230BD01F0004321
:1005F00030B421F0004150EA010206D00A0DA2F504
:100600006072C1F31301002A02DC30BC0020704785
:10061000440F44EAC104C100E01830BC00EBC250F2
:1006200000F051B8002801DBC0F10040002901DBD7
:10063000C1F100418842704730B50B4601460020A9
:100640002022012409E021FA02F59D4205D303FA94
:1006500002F5491B04FA02F52844151EA2F1010215
:10066000F1DC30BD202A04DB203A00FA02F1002040
:1006700070479140C2F1200320FA03F319439040E0
:100680007047202A04DB203A21FA02F0002170474B
:1006900021FA02F3D040C2F12002914008431946EA
:1006A0007047202A06DBCB17203A41FA02F043EAD2
:1006B000E07306E041FA02F3D040C2F1200291401B
:1006C0000843194670470029A8BF7047401C4900DD
:1006D00008BF20F00100704710B4B0FA80FC00FAA7
:1006E0000CF050EA010404BF10BC704749B1CCF1D2
:1006F000200421FA04F411FA0CF118BF012121435E
:100700000843A3EB0C01CB1D4FEA00614FEA102018
:1007100042BF002010BC704700EBC35010440029BA
:10072000A4BF10BC7047401C490008BF20F0010066
:1007300010BC704710B5141E73F1000408DA401C99
:1007400041F1000192185B411A4301D120F00100F0
:1007500010BD2DE9F04D92469B4611B1B1FA81F2E0
:1007600002E0B0FA80F220329046FFF77BFF0446A9
:100770000F4640EA0A0041EA0B0153465A46084335
:1007800013D0114653EA010019D0C8F14002504677
:10079000FFF777FF05460E46504659464246FFF79B
:1007A00061FF084305D0012004E020463946BDE83A
:1007B000F08D0020054346EAE0762C4337430A9843
:1007C0006305E40AA0EB08000022FD0A44EA47544E
:1007D0000A3002D500200146E9E7010510196941F8
:1007E000DDE9084500196941BDE8F04DA2E70000C8
:1007F000064C074D06E0E06840F0010394E807006E
:1008000098471034AC42F6D3FFF780FCC84100088B
:10081000E841000800BFFEE700BFFEE770B50546EF
:1008200000246C6A0021284602F08EFEB4F5004FC9
:1008300002DBA4F57F44FF3C204670BD00BFFEE70D
:100840002DE9F05F82464FF0520B5846FFF742FE0B
:100850008046484A484BFFF7C2FD04460D465046C5
:10086000FFF738FE064622462B46FFF7A7FE15D8AF
:100870005846FFF72FFE0646404A414BFFF7AFFDB3
:1008800004460D465046FFF725FE804622462B467D
:10089000FFF77CFE02D80020BDE8F09F5846FFF726
:1008A00019FE8046334A344BFFF799FD04460D4646
:1008B0005046FFF70FFE064622462B46FFF766FE20
:1008C00016D25846FFF706FE06464FF066322D4B0D
:1008D000FFF785FD04460D465046FFF7FBFD8046B9
:1008E00022462B46FFF76AFE02D84FF0FF30D3E7CF
:1008F0005846FFF7EFFD06461E4A234BFFF76FFDF4
:10090000804689465046FFF7E5FD044642464B4681
:10091000FFF754FE14D25846FFF7DCFD8046174A15
:10092000174BFFF75CFD04460D465046FFF7D2FD1E
:10093000064622462B46FFF729FE01D80120ABE7E9
:100940005846FFF7C7FD80464FF066320D4BFFF764
:1009500046FD04460D465046FFF7BCFD06462246BE
:100960002B46FFF713FE02D26FF0010094E702203E
:1009700092E70000CDCCCCCCCCCCEC3F9A999999A5
:100980009999F13F6666E63FCCCCF43F2DE9F05FE4
:1009900082464FF0520B5846FFF79CFD8046714A45
:1009A000714BFFF71CFD04460D465046FFF792FDC4
:1009B000064622462B46FFF701FE15D85846FFF79C
:1009C00089FD8046694A6A4BFFF709FD04460D46DA
:1009D0005046FFF77FFD064622462B46FFF7D6FD21
:1009E00002D80020BDE8F09F5846FFF773FD80460F
:1009F0005C4A5D4BFFF7F3FC04460D465046FFF79B
:100A000069FD064622462B46FFF7C0FD16D2584622
:100A1000FFF760FD80464FF03332564BFFF7DFFCA7
:100A200004460D465046FFF755FD064622462B4626
:100A3000FFF7C4FD02D84FF0FF30D3E75846FFF769
:100A400049FD0646494A4A4BFFF7C9FC804689469C
:100A50005046FFF73FFD044642464B46FFF7AEFDCA
:100A600015D25846FFF736FD80464FF06632424BAE
:100A7000FFF7B5FC04460D465046FFF72BFD064632
:100A800022462B46FFF782FD01D80120AAE75846EF
:100A9000FFF720FD06464FF03332364BFFF79FFC41
:100AA00004460D465046FFF715FD804622462B466C
:100AB000FFF76CFD15D25846FFF70CFD804600226B
:100AC0002E4BFFF78CFC04460D465046FFF702FD07
:100AD000064622462B46FFF771FD02D86FF0010053
:100AE00080E75846FFF7F6FC80464FF06632224B0F
:100AF000FFF775FC04460D465046FFF7EBFC064633
:100B000022462B46FFF75AFD14D25846FFF7E2FC67
:100B1000064600221A4BFFF762FC04460D4650467B
:100B2000FFF7D8FC804622462B46FFF72FFD01D861
:100B3000022057E75846FFF7CDFC804600220F4BB6
:100B4000FFF74DFC04460D465046FFF7C3FC064632
:100B500022462B46FFF71AFD02D26FF0020041E752
:100B600003203FE7CDCCCCCCCCCCEC3F9A999999E3
:100B70009999F13F3333E33F6666F63F0000E03F6B
:100B80000000F83F00BFFEE770B504460D4616466C
:100B9000002C0ADDA2B20021224802F01CFC4FF416
:100BA0008051214800F0CCFF0AE0604282B200216F
:100BB0001C4802F010FC4FF480511B4800F0C2FFAB
:100BC000002D0ADDAAB20121164802F004FC4FF400
:100BD0000051154800F0B4FF0AE0684282B20121DA
:100BE000104802F0F8FB4FF400510F4800F0AAFF44
:100BF000002E0ADDB2B202210A4802F0ECFB4FF4EB
:100C00008041094800F09CFF0AE0704282B2022154
:100C1000044802F0E0FB4FF48041034800F092FFEB
:100C200070BD0000002C0140000C014010B540F2E6
:100C3000036002F0CFF94FF48053032210211D48C6
:100C400000F087FF4FF4005303221021194800F0F1
:100C500080FF4FF4804303221021164800F079FFF3
:100C60004FF4805013491431086040000860400080
:100C7000086040F2026002F0ADF94FF4C06002F08B
:100C8000A9F94FF48073032218210B4800F061FF8B
:100C90004FF4007303221821074800F05AFF4FF465
:100CA000806303221821044800F053FF02F0D4FBB4
:100CB00010BD0000000C01400008014000BFFEE72D
:100CC00010B5002807DA0A07140E054A00F00F03D2
:100CD0001B1FD45403E00A07130E024A135410BD1D
:100CE00018ED00E000E400E070B5002415E004F128
:100CF000B001C8B200F000F9012000F0FDF81020AA
:100D000000F0FAF8002504E0002000F02BF9681C40
:100D1000C5B2842DF8DB601CC4B2082CE7DB70BDC3
:100D200010B540F2046002F055F940F2026002F0A2
:100D300051F94FF40043032210214B4800F009FF02
:100D40004FF40041484800F0FBFE4FF4804303227B
:100D50001021454800F0FDFE4FF48041424800F06C
:100D6000EFFE4FF40053032210213F4800F0F1FE44
:100D70004FF400513C4800F0E3FE01230322102110
:100D80003A4800F0E6FE0121384800F0D9FE4FF461
:100D90000041354800F0D6FE4FF40051324800F0D3
:100DA000CFFE322000F0E6FD4FF400512E4800F057
:100DB000C9FEAE2000F0A0F8002000F09DF8102041
:100DC00000F09AF8402000F097F8812000F094F8A5
:100DD000CF2000F091F8A12000F08EF8C82000F09C
:100DE0008BF8A62000F088F8A82000F085F83F20B6
:100DF00000F082F8D32000F07FF8002000F07CF8AB
:100E0000D52000F079F8802000F076F8D92000F0A5
:100E100073F8F12000F070F8DA2000F06DF812207D
:100E200000F06AF8DB2000F067F8402000F064F87A
:100E3000202000F061F8022000F05EF88D2000F024
:100E40005BF8142000F058F8A42000F055F8A62014
:100E500000F052F8AF2000F04FF8FFF745FF0021F7
:100E6000084600F037F810BD0010014000080140AE
:100E70002DE9F0470446884615464FF00009002644
:100E8000002720E0E85D203800F0FF097E2C04DD1B
:100E9000002408F1010000F0FF084146204600F060
:100EA00019F8002609E009EB4901094A02EB410162
:100EB000885D00F057F8701CC6B2062EF3DBA01D4B
:100EC000C4B2781CC7B2E85D0028DBD1BDE8F0876A
:100ED000B039000870B504460D4605F1B001C8B23E
:100EE00000F00AF8102141EA141000F005F804F0AF
:100EF0000F0000F001F870BD70B50446082501210F
:100F0000164800F01DFE2903154800F019FE0120C7
:100F100000F062FF1CE004F0800028B14FF4804133
:100F20000F4800F00FFE04E04FF480410C4800F041
:100F300007FE4FF400410A4800F004FE012000F0D3
:100F40004BFF4FF40041064800F0FAFD6006040E26
:100F5000281EA5F10101CDB2DDD170BD0008014010
:100F60000010014070B5044608250121164800F024
:100F7000E9FD2903154800F0E3FD012000F02CFFF6
:100F80001CE004F0800028B14FF480410F4800F0CD
:100F9000D9FD04E04FF480410C4800F0D1FD4FF43E
:100FA00000410A4800F0CEFD012000F015FF4FF48B
:100FB0000041064800F0C4FD6006040E281EA5F19D
:100FC0000101CDB2DDD170BD00080140001001402B
:100FD00000BFFEE710B50446052C49D2DFE804F057
:100FE00003101D2A39000121234800F008FE30B902
:100FF0000121214800F003FE08B9012010BD37E0AF
:1010000002211D4800F0FBFD30B902211A4800F012
:10101000F6FD08B90120F1E72AE00421164800F0A6
:10102000EEFD30B90421144800F0E9FD08B90120B3
:10103000E4E71DE04FF40061104800F0E0FD38B92E
:101040004FF400610D4800F0DAFD08B90120D5E742
:101050000EE04FF48051094800F0D1FD38B94FF44B
:101060008051064800F0CBFD08B90120C6E700BF5B
:1010700000BF0020C2E70000000C01400008014052
:1010800000BFFEE710B500F07FFC10BD08B530488A
:10109000006840F001002E49086000BF2C4800683D
:1010A00000F002000028F9D000BF2948406840F055
:1010B0008000274948600020009002E00098401C12
:1010C000009000985028F9D32148406840F09000E3
:1010D0001F4948600020009002E00098401C0090EA
:1010E00000985028F9D300BF1948406820F0030049
:1010F00017494860084600681649084014490860C6
:10110000084640681449084011494860084600688C
:10111000104908400E4908600846006820F4802005
:101120000860084640680D4908400949486008467B
:10113000006808490840064908604FF41F008860AD
:1011400001F0F4FF00214FF0006001F0F1F908BD5B
:1011500000100240FFFFF6FE0C00FFE8FFFF00F763
:1011600010B50121024802F064FA00F023FE10BD20
:10117000002C014010B51C491C4802F0D5FBB0B151
:101180001A4802F03DFBC1B2194802880088401C91
:10119000174B18801748815418460088164909785B
:1011A000884204D140F20531104802F0A3FB1349F4
:1011B0000E4802F0B9FBA8B1114802780078401C33
:1011C0000F4B18700F48815C084802F01EFB0C485A
:1011D00000780D490978884204D140F2073103486C
:1011E00002F088FB10BD000005030500004400402C
:1011F0004E000020E80500204C00002007030700F7
:101200004D000020400000204B00002010B5044697
:1012100040F2026001F0DEFE40F2117001F0DAFEF1
:101220000423032218211D4800F093FC0823032205
:1012300004211A4800F08DFC194802F0EBFA21460F
:10124000174802F095FA0021154802F0A9FB002189
:10125000134802F095FB0021114802F081FB0021A8
:101260000F4802F03DFB00210D4802F02FFB082142
:101270000B4802F08DFB0421094802F079FB084875
:1012800002F010FB01220021262001F0F1F840F2CB
:101290000531034802F03BFB10BD0000000801408F
:1012A0000044004070B5FF24FD25FE262349244854
:1012B00002F03AFB002840D0214802F0A1FA21496F
:1012C000214A126841F822001F480068401C1E494C
:1012D00008601C480068FF2801D0002008601948F9
:1012E0004068FD2806D018480068022802D1002076
:1012F000154908601448006809281ED11148006A81
:10130000FE281AD10F488068104908600D48C0684F
:101310000F4908600B4800690E4908600948406998
:101320000D490860074880690C4908600548C06994
:101330000B49086000200449086070BD05030500E2
:101340000048004058000020040000200C0000204D
:101350001000002014000020180000201C000020B5
:101360002000002010B5044640F2036001F032FE78
:1013700040F2127001F02EFE4FF480630322182118
:101380001D4800F0E6FB4FF40063032204211A48D5
:1013900000F0DFFB194802F03DFA2146174802F041
:1013A000E7F90021154802F0FBFA0021134802F08A
:1013B000E7FA0021114802F0D3FA00210F4802F0A9
:1013C0008FFA00210D4802F081FA08210B4802F043
:1013D000DFFA0421094802F0CBFA084802F062FA69
:1013E00000221146272001F043F840F2053103485E
:1013F00002F08DFA10BD0000000C014000480040D2
:1014000070B504460D462946204602F0FEF900BF9D
:101410000721204602F04BFA0028F9D070BD70B5C4
:1014200005460C4604E021782846FFF7E9FF641CD6
:1014300014B120780028F6D170BD2DE9F04782461E
:10144000884615461F46089C2668022F03D10520B2
:101450002060BDE8F087E6B9012D10D15046FFF7B6
:10146000EFF9012808D05046FFF7EAF9401C18B1FF
:101470005046FFF7E5F910B90120206081E0022D08
:1014800002D1032020607CE0032D7AD1042020606B
:1014900077E0012E0DD115B90020206071E0022DFA
:1014A00002D1032020606CE0032D6AD1042020606B
:1014B00067E0032E1CD115B90020206061E0012DEA
:1014C00002D1012020605CE0032D02D104202060C5
:1014D00057E04046FFF75AFAB0F1000901DB4846F1
:1014E00001E0C9F1000003284BDA0220206048E047
:1014F000042E1CD115B90020206042E0012D02D13C
:10150000012020603DE0022D02D10320206038E060
:101510004046FFF73BFAB0F1000901DB484601E025
:10152000C9F1000003282CDA0220206029E0022EF5
:101530000CD115B90020206023E0012D02D101203B
:1015400020601EE0EFB9042020601AE0052E18D1BB
:1015500015B90020206014E0012D02D10120206087
:101560000FE0022D02D1032020600AE0032D06D1F6
:101570004046FFF70BFA10B90220206001E004207A
:10158000206000BF65E770B504460D462846FFF7AA
:1015900057F9002803DA4FF0FF30206001E0012006
:1015A000206070BD70B504460D462846FFF7EEF981
:1015B000002803DA4FF0FF30206001E001202060B6
:1015C00070BD00BFFEE700000FB4084B10B504A9C2
:1015D00002AA039800F01CF8044602A9002000F0BB
:1015E000B8F9204610BC5DF814FB00005319000840
:1015F00002E008C8121F08C1002AFAD170477047DC
:10160000002001E001C1121F002AFBD17047000039
:101610002DE9FF4F8BB088460546002606E02528B9
:101620000BD0DDE90D1290476D1C761C2878002840
:10163000F5D10FB03046BDE8F08F0024A146A24698
:101640000122AE4900E0044315F8013F203B02FAB5
:1016500003F00842F7D128782A2810D06FF02F0223
:101660002878A0F13001092915D809EB890102EB8E
:10167000410144F0020400EB01096D1CF0E758F849
:10168000041B5FEA010903D544F40054C9F10009C1
:1016900044F002046D1C28782E2817D115F8010F8C
:1016A00044F004042A280ED06FF02F022878A0F10D
:1016B000300109290AD80AEB8A0102EB410100EB4B
:1016C000010A6D1CF2E758F804AB6D1C28786C28F1
:1016D0000FD006DC4C2817D068280DD06A2814D10A
:1016E00004E0742810D07A280FD10DE044F40014DF
:1016F0000AE044F4801401E044F440146978814223
:1017000002D104F580146D1C6D1C2878692865D001
:1017100006DC00288DD0632827D0642806D15DE040
:101720006E2808D073282AD0752877D0DDE90D12ED
:101730009047761CE0E0C4F30250022809D0032849
:101740000DD0D8F8001004280DD00E6008F1040860
:10175000D2E0D8F80010F217C1E90062F6E7D8F835
:1017600000100E80F2E70E70F0E718F8041B8DF8F9
:10177000001000208DF80100EB46012003E058F82E
:1017800004BB4FF0FF3061074FF0000701D40AE0BF
:101790007F1C57450DDA8742FADB1BF8071000293A
:1017A000F6D106E07F1C8742FCDB1BF807100029FE
:1017B000F8D1DDE90D23A9EB07008146214600F0B1
:1017C000B1F83044C61904E0DDE90D121BF8010B35
:1017D00090477F1EF8D22146484688E058F8040B0F
:1017E000C4F302514FF00A0B032900D100B20429BF
:1017F00000D140B2002802DA40422D2102E021054A
:1018000005D52B218DF82410012104E006E0E10725
:1018100010D02021F6E708AF089113E058F8040B28
:10182000C4F302514FF00A0B032900D180B20429FE
:1018300000D1C0B20021EEE75946FEF7FDFE30317F
:1018400007F8011D0028F7D1ADEB070000F1200BD0
:10185000600702D524F4803401E04FF0010ADA4534
:1018600002DDAAEB0B0000E00020824600EB0B013A
:1018700008980144A9EB01000A90E00306D4DDE9D1
:101880000D2321460A9800F04DF806444FF0000958
:1018900008E009A911F80900DDE90D12904709F1E6
:1018A0000109761C08998945F3DBE0030CD5DDE9D5
:1018B0000D2321460A9800F035F8064404E0DDE9DE
:1018C0000D1230209047761CBAF10001AAF1010AEE
:1018D000F5DC05E0DDE90D1217F8010B9047761CE9
:1018E000BBF10001ABF1010BF4DC0A982146DDE904
:1018F0000D2300F005F806446D1C97E60928010049
:101900002DE9F041044600251E461746880404D4FC
:1019100005E039462020B0476D1C641EF9D52846E5
:10192000BDE8F0812DE9F041044600251E469046B1
:10193000C80301D5302700E02027880404D505E03E
:1019400041463846B0476D1C641EF9D52846BDE8AF
:10195000F0810A68531C0B6010707047024600202B
:1019600000BF03E0002342F82030401C8842F9DB2E
:10197000704700000349086000BF02490968002958
:10198000FBD17047240000200448006820B10348C0
:101990000068401E014908607047000024000020D4
:1019A0001FB54FF4E06001F015FB40F2026001F05A
:1019B00011FB40F2036001F00DFB01211C4800F017
:1019C00027F94FF400430322042140F2026000F0A3
:1019D000C0F808230322042140F2036000F0B9F8A4
:1019E0004FF0804001F0B2FD0020ADF80000ADF8EE
:1019F0000200ADF804004FF6FF7002900020ADF831
:101A00000C008DF80E0069464FF0804001F014FE86
:101A1000022300221946580701F08AFE4FF0804049
:101A200001F0B0FB4FF0804001F0FEFD1FBD000053
:101A3000000318001FB540F2017001F0CBFA40F22C
:101A4000036001F0C7FA40F2036001F0C3FA01211C
:101A5000194800F0DDF810230322042140F203604E
:101A600000F077F820230322042140F2036000F005
:101A700070F8124801F06AFD0020ADF80000ADF8E2
:101A80000200ADF804004FF6FF7002900020ADF8A0
:101A90000C008DF80E006946084801F0CDFD0223C8
:101AA00000221946054801F043FE044801F06AFB94
:101AB000024801F0B9FD1FBD00081A0000040040F3
:101AC0001FB540F2027001F085FA40F2036001F0A8
:101AD00081FA40F2036001F07DFA402303220421E1
:101AE00040F2036000F035F880230322042140F225
:101AF000036000F02EF8114801F028FD0020ADF839
:101B00000000ADF80200ADF804004FF6FF7002903F
:101B10000020ADF80C008DF80E006946074801F072
:101B20008BFD022300221946044801F001FE034800
:101B300001F028FB014801F077FD1FBD00080040BF
:101B400041617047016170470AB1016100E0416184
:101B50007047F0B5044616460025002201F00F0537
:101B600001F0100707B1354300201EE00127874030
:101B70001F40C7B122684FEA800C0F2707FA0CF705
:101B8000BA43870005FA07F73A43282904D1012709
:101B900087401F40676105E0482903D1012787403E
:101BA0001F4027612260471CB8B20828DED30820F6
:101BB00022E0012787401F40E7B16268A0F10807D3
:101BC0004FEA870C0F2707FA0CF7BA43A0F1080772
:101BD000BF0005FA07F73A43282904D101278740B7
:101BE0001F40676105E0482903D1012787401F4056
:101BF00027616260471CB8B21028DAD3F0BD0246F4
:101C00009068084008B1012070470020FCE7000000
:101C1000F0B50A46002300240021002500F000460C
:101C2000B6F1004F02D11D4EF16901E01B4E716803
:101C3000C0F3034583B200F44016B6F5401F08D147
:101C400021F07061154E766826F07066134F7E6045
:101C500012E000F48016B6F5801F06D1032606FABE
:101C600005F4A14341F0706106E0460D360103FA28
:101C700006F6B14341F0706122B1460D360103FA18
:101C800006F6314300F00046B6F1004F02D1034E94
:101C9000F16101E0014E7160F0BD00000000014003
:101CA0002DE9F04104460D4617460026B04644B9DA
:101CB00030223046761C2A540020A8552846BDE81C
:101CC000F081002C04DA0A2F02D14FF0010864429F
:101CD00011E094FBF7F107FB1140092802DD00F148
:101CE000570101E000F13001CBB23146761C6B5454
:101CF00094FBF7F400BF002CEBD1B8F1000F03D038
:101D00002D223046761C2A540020A85531462846FC
:101D100001F090F92846D2E710B540F2036001F0D7
:101D200059F90123032204211648FFF712FF40F25C
:101D3000036001F04FF90223032204211148FFF749
:101D400008FF40F2036001F045F90423032219461D
:101D50000C48FFF7FEFE40F2036001F03BF94FF440
:101D60000063032204210848FFF7F3FE40F20260FB
:101D700001F030F94FF48053032204210248FFF7A9
:101D8000E8FE10BD000C01400008014010B540F213
:101D9000036001F01FF94FF40043032210210448AF
:101DA000FFF7D7FE4FF400410148FFF7CBFE10BD0F
:101DB000000C014010B54FF400410648FFF71FFF2B
:101DC000C0F10100C4B222464FF400410148FFF7C0
:101DD000BBFE10BD000C014000E000BF011EA0F1E1
:101DE0000100FAD170470000ADF59A6D01F0A2F93B
:101DF000002001F051F801F09DF94FF4C06001F0AE
:101E0000E9F8FFF7CDFDFFF715FEFFF759FEFFF7E5
:101E1000BDFFFFF781FFFEF783FF6420FFF7AAFDF8
:101E2000FEF762FFFEF702FFFEF77AFFFEA2002137
:101E30000A20FFF71DF83220FFF79CFD4FF4E13038
:101E4000FFF790FA4FF41650FFF7E0F90024002650
:101E50000020CDF8A804CDF8A404824681460025D0
:101E6000CDF8A004CDF89C04CDF89804CDF89404E6
:101E7000CDF89004C821F2A8FEF769F9C821C0A8DE
:101E8000FEF765F9C8218EA8FEF761F9C8215CA8A4
:101E9000FEF75DF900205B905A9059900120589010
:101EA000579000BF00BF00BF002056904FF48071D4
:101EB00016A8FEF74CF99FE20020FFF78BF80128E7
:101EC0000ED1DDF89C04FEF74EFBDC4ADC4BCDE97D
:101ED0000401FEF7DDF90746FEF788FBCDF89C0408
:101EE0000120FFF777F8012802D10020CDF89C04EB
:101EF0000220FFF76FF801280ED1DDF89C04FEF7F1
:101F000032FBCE4ACE4BCDE90401FEF762FA07461A
:101F1000FEF76CFBCDF89C04FFF74CFF0021DDF8C9
:101F20009C04FEF77FFB03D22820CDF8A00405E037
:101F3000DDF89C04FEF7DFFACDF8A0044FF08040F6
:101F4000FEF76CFC8246BF48FEF768FC8146BE483F
:101F5000FEF764FC0546BD480468BD480668BD48F8
:101F60000068CDF8A804BC480068CDF8A40456A8C1
:101F7000009031462046DDF8A434DDF8A824FFF7B0
:101F80005CFA5698012835D1214658A8FFF7FBFA8C
:101F9000314657A8FFF706FBDDF8A004FEF79AFAD2
:101FA00000224FF08043CDE90401FEF718FA0746FE
:101FB000FEF7BAFA834659A85BA90DF59262CDE9FE
:101FC0000404CDE902210DF59360C0A9F2AB5A4695
:101FD000CDE900102946504600F0B6FA0020CDF8B1
:101FE000940432218EA8FFF7B9FC32215CA8FFF7D8
:101FF000B5FC4DE1569850BB314657A8FFF7D2FAD1
:102000005898FEF767FACDE90401DDF8A004FEF761
:1020100061FA8A4A914BCDE90001FEF7E0F9CDE97A
:102020000201DDE90423FEF7DAF90746FEF77CFA40
:1020300083460DF59260011D0A1D5B46CDE9002126
:1020400002902A464946504600F0E0FD20E15698AD
:10205000032829D1214658A8FFF795FA314657A8F9
:10206000FFF7A0FADDF8A004FEF734FA07460022D5
:102070007B4BFEF7B4F9CDE90401FEF755FA834630
:102080000DF592600DF593635A462946CDE900049B
:10209000504600F051FB32218EA8FFF75FFC322141
:1020A0005CA8FFF75BFCF3E0569804280FD12146AB
:1020B00058A8FFF768FA6B48CDF898044FF41670EB
:1020C000CDF8940440F21450CDF89004E0E0569816
:1020D00002287CD1214658A8FFF755FA314657A867
:1020E000FFF760FA3046FEF751FC28BBDDF8A0048C
:1020F000FEF7F0F900225C4BCDE90401FEF76FF921
:102100000746FEF711FA8346002059A95BAA0DF590
:102110009263CDE90232CDE904100DF59360C0A9B8
:10212000F2AB5A46CDE900102946504600F008FCB3
:102130000020CDF894045DE03046FEF727FC401CFB
:1021400020B13046FEF722FC012824D13046FEF7AC
:102150001DFC0746FEF7BEF9CDE90201DDF8A0043B
:10216000FEF7B8F907464FF03332404BFEF737F928
:10217000CDE90001DDE90223FEF731F9CDE90401E3
:10218000FEF7D2F983465AAB0DF2944259464846BF
:1021900000F0CAFC2EE03046FEF7F8FB801C20B1B0
:1021A0003046FEF7F3FB022824D13046FEF7EEFB63
:1021B0000746FEF78FF9CDE90201DDF8A004FEF72E
:1021C00089F907462A4A2B4BFEF709F900E01AE085
:1021D000CDE90001DDE90223FEF701F9CDE90401B3
:1021E000FEF7A2F983465AAB0DF29442594648468F
:1021F00000F09AFC32218EA8FFF7B0FB32215CA8D8
:10220000FFF7ACFB44E05698052841D14FF47A70B3
:10221000CDF898040020CDF894041748CDF8900428
:10222000DDF890242AE000002D2D2D4B494C4C4523
:102230005220524F424F542D2D2D00009A999999BA
:102240009999B93F00040040000800400C000020AC
:102250001000002014000020180000209999D93F98
:102260000000F03F0CFEFFFF0000F83F3333F33F68
:10227000CDCCCCCCCCCCE43F18FCFFFFDDF89414E3
:10228000DDF89804FEF780FC40F2DC50FFF772FBAB
:10229000DDF89024DDF89414DDF89804FEF774FC62
:1022A0004B46524655A10DF2AC400095FFF78CF914
:1022B0000DF2AC4202210020FEF7DAFD324653A1B6
:1022C0000DF2AC40FFF780F90DF2AC420421002082
:1022D000FEF7CEFD50A10DF2AC40569BDDF8A824D0
:1022E000FFF772F90DF2AC4206210020FEF7C0FDA7
:1022F0004DA116A8FDF736FF0A2206A94C48006832
:10230000FFF7CEFC0746394616A8FDF72BFF49A17B
:1023100016A8FDF727FF0A2206A95698FFF7C0FC6A
:102320000746394616A8FDF71DFF44A116A8FDF77C
:1023300019FF0A2206A9DDF89804FFF7B1FC074649
:10234000394616A8FDF70EFF3EA116A8FDF70AFFB5
:102350000A2206A9DDF89404FFF7A2FC07463946D5
:1023600016A8FDF7FFFE39A116A8FDF7FBFE0A220D
:1023700006A9DDF89004FFF793FC0746394616A836
:10238000FDF7F0FE33A116A8FDF7ECFE0A2206A920
:102390005046FFF785FC0746394616A8FDF7E2FED2
:1023A0002EA116A8FDF7DEFE0A2206A94846FFF771
:1023B00077FC0746394616A8FDF7D4FE29A116A8D2
:1023C000FDF7D0FE0A2206A92846FFF769FC07465A
:1023D000394616A8FDF7C6FE24A116A8FDF7C2FED1
:1023E00016A800F037FEFFF7E5FC0220FFF7C2FA5F
:1023F00008A000788DF858005EE50000454E433A8D
:102400002025642C2025642C2025640067617465D8
:102410003A202564000000007374617475733A20DB
:1024200025642C20256400007B2261223A200000D4
:102430000C000020202C2267223A2000202C226849
:10244000223A2000202C2269223A2000202C226AE5
:10245000223A2000202C226B223A2000202C226CD1
:10246000223A2000202C226D223A20007D0A000012
:102470002DE9F04103460D46164600240027A046EC
:102480002448006800F4E060B0F5A06F15D006DCC9
:10249000B0F5407F18D0B0F5806F19D110E0B0F5DD
:1024A000C06F06D0B0F5E06F12D100274FF00408DE
:1024B00015E001274FF0030811E00227B8460EE0AF
:1024C00003274FF001080AE004274FF0000806E058
:1024D0004FF4A06000F022F80227B84600BF00BF0A
:1024E000C7F1040005FA00F4C8F104010F20C84048
:1024F0003040044324010848C45403F01F01012064
:1025000088405911890001F1E021C1F80001BDE8BE
:10251000F08100000CED00E000E400E0024901431E
:10252000024A1160704700000000FA050CED00E05F
:10253000034A0A400243034B1A60BFF34F8F7047B0
:1025400080FFFF1F08ED00E02DE9FF4F97B0044624
:102550000D46DDF894B0299EC82E00D150263220B9
:10256000169072481590724814907048139000208D
:10257000129011906F48109041F294100F90DBF878
:1025800000702698D0F800806442A6F15000FDF754
:1025900098FF68490590FDF749FE07901998FDF7E7
:1025A00090FF06900799FDF73BFE0890FDF7A3FF0B
:1025B0000E90A6F15000FDF784FF5E490590FDF7EF
:1025C00035FE07901998FDF77CFF06900799FDF7F7
:1025D000D5FD0890FDF78FFF0D900E98A0EB040934
:1025E0000D98A0EB050A322249461A9800F036FCF5
:1025F00032225146249800F031FC32211A9800F022
:102600003CFC0C903221249800F037FC0B9027986A
:102610000068201A0A9028980068281A09900A98D9
:10262000FDF74FFF00210590FDF700FE07900C9885
:10263000FDF747FF00210390FDF7F8FD05904846A0
:10264000FDF73FFF39490190FDF7F0FD0390199820
:10265000FDF737FF36490190FDF7E8FD0290039939
:10266000FDF78CFD04900599FDF788FD069007990C
:10267000FDF784FD0890FDF73EFF07460998FDF73A
:1026800020FF00210590FDF7D1FD07900B98FDF785
:1026900018FF00210390FDF7C9FD05905046FDF796
:1026A00010FF22490190FDF7C1FD03901998FDF735
:1026B00008FF1F490190FDF7B9FD02900399FDF74E
:1026C0005DFD04900599FDF759FD06900799FDF70A
:1026D00055FD0890FDF70FFF804641F294108742A8
:1026E00000DD00E03846074641F29410804500DDE9
:1026F00000E040468046002F01DA002000E0384626
:102700000746B8F1000F01DA002000E0404680469D
:102710007842CBF800002698C0F800802798046023
:10272000289805601BB0BDE8F08F00000000E04075
:1027300000004442000040402DE9FF4F97B004469E
:102740000D461E46259FC82F00D1502732201690D7
:10275000734815907348149071481390002012909C
:102760001190714810904FF4FA600F90D6F80080E5
:102770002498D0F800906442A7F15000FDF7A1FE24
:1027800069490590FDF752FD07901998FDF799FEEC
:1027900006900799FDF744FD0890FDF7ACFE0E90FA
:1027A000A7F15000FDF78DFE5F490590FDF73EFD56
:1027B00007901998FDF785FE06900799FDF7DEFC56
:1027C0000890FDF798FE0D900E98A0EB040A0D9866
:1027D000A0EB050B32225146544800F03FFB322259
:1027E0005946534800F03AFB3221504800F045FB6F
:1027F0000C9032214E4800F040FB0B904D48006891
:10280000201A0A904C480068281A09900A98FDF787
:1028100058FE00210590FDF709FD07900C98FDF783
:1028200050FE00210390FDF701FD05905046FDF795
:1028300048FE3B490190FDF7F9FC03901998FDF71C
:1028400040FE38490190FDF7F1FC02900399FDF735
:1028500095FC04900599FDF791FC06900799FDF70A
:102860008DFC0890FDF747FE80460998FDF729FE8C
:1028700000210590FDF7DAFC07900B98FDF721FE8B
:1028800000210390FDF7D2FC05905846FDF719FE94
:1028900023490190FDF7CAFC03901998FDF711FE3A
:1028A00020490190FDF7C2FC02900399FDF766FCF8
:1028B00004900599FDF762FC06900799FDF75EFC10
:1028C0000890FDF718FE8146B8F5FA6F02DD4FF467
:1028D000FA6000E040468046B9F5FA6F02DD4FF439
:1028E000FA6000E04846814618F5FA6F01DA1348AD
:1028F00000E04046804619F5FA6F01DA0F4800E023
:1029000048468146C8F1000030602498C0F8009025
:1029100008480460084805601BB0BDE8F08F00005F
:102920000000E040000060423333333F900300205A
:1029300058040020340000203800002030F8FFFF49
:102940002DE9F04F99B004460D4690469946DDE9D1
:1029500023AB322018906F4817906F4816906F483D
:1029600015900020149013906D48129040F6B830E6
:102970001190DAF80060DBF8007064422798FDF7E8
:10298000A0FD67490590FDF751FC07904046FDF713
:1029900098FD06900799FDF7F1FB0890FDF7ABFD58
:1029A0000E902798FDF78DFD5D490590FDF73EFCE3
:1029B00007904046FDF785FD06900799FDF730FC2E
:1029C0000890FDF798FD0D900E98001B10900D9843
:1029D000401B0F9032224846109900F03FFA3222F5
:1029E0000F99229800F03AFA3221484600F045FA51
:1029F0000C903221229800F040FA0B902598006844
:102A0000201A0A9026980068281A09900A98FDF75B
:102A100058FD00210590FDF709FC07900C98FDF783
:102A200050FD00210390FDF701FC05901098FDF783
:102A300048FD3A490190FDF7F9FB03904046FDF748
:102A400040FD35490190FDF7F1FB02900399FDF738
:102A500095FB04900599FDF791FB06900799FDF70A
:102A60008DFB0890FDF747FD06460998FDF729FD07
:102A700000210590FDF7DAFB07900B98FDF721FD8B
:102A800000210390FDF7D2FB05900F98FDF719FD8B
:102A900022490190FDF7CAFB03904046FDF711FD66
:102AA0001D490190FDF7C2FB02900399FDF766FBFB
:102AB00004900599FDF762FB06900799FDF75EFB10
:102AC0000890FDF718FD074640F6B830864200DD55
:102AD00000E03046064640F6B830874200DD00E0B0
:102AE000384607460F48864200DA00E03046064680
:102AF0000C48874200DA00E0384607467042CAF8C0
:102B00000000CBF80070259804602698056019B085
:102B1000BDE8F08F0000204100004843000048421B
:102B2000CDCCCC3E48F4FFFF2DE9F04F8FB00446EA
:102B30000D4616461F4632200E902F480D902F4806
:102B40000C902F480B9000200A90099040F6B83066
:102B50000890D6F80080A5EB04093222494629489E
:102B600000F07CF93221274800F087F90790386897
:102B7000A4EB000A5046FDF7A4FC83460021FDF7B4
:102B800055FB05900798FDF79CFC83460021FDF757
:102B90004DFB03904846FDF794FC19490090FDF762
:102BA00045FB01902846FDF78CFC14490090FDF789
:102BB0003DFB83460199FDF7E1FA02900399FDF789
:102BC000DDFA04900599FDF7D9FA0690FDF793FC1C
:102BD000804640F6B830804500DD00E04046804643
:102BE0000948804500DA00E040468046C6F800808B
:102BF0003C600FB0BDE8F08F00002041000048426B
:102C00000000F0417000002048F4FFFF2DE9F04F74
:102C100099B005460E4617461C46DDF888B03220AE
:102C20001890844817908448169084481590002086
:102C30001490139040F6B8301290DBF8008023987F
:102C4000D0F800902498D0F800A0601B1190A01B31
:102C50001090E01B0F9032227948119900F0FEF895
:102C600032227848109900F0F9F8322276480F990C
:102C700000F0F4F83221724800F0FFF80E90322193
:102C8000704800F0FAF80D9032216F4800F0F5F826
:102C90000C906E480068281A0B906D480068301A36
:102CA0000A906C480068381A09900B98FDF709FCE7
:102CB00000210590FDF7BAFA07900E98FDF701FC88
:102CC00000210390FDF7B2FA05901198FDF7F9FB8A
:102CD0005A490190FDF7AAFA03902046FDF7F1FB4F
:102CE00055490190FDF7A2FA02900399FDF746FAC3
:102CF00004900599FDF742FA06900799FDF73EFA10
:102D00000890FDF7F8FB80460A98FDF7DAFB0021F2
:102D10000590FDF78BFA07900D98FDF7D2FB002187
:102D20000390FDF783FA05901098FDF7CAFB43491D
:102D30000190FDF77BFA03902046FDF7C2FB3E4968
:102D40000190FDF773FA02900399FDF717FA0490CA
:102D50000599FDF713FA06900799FDF70FFA089009
:102D6000FDF7C9FB81460998FDF7ABFB00210590F3
:102D7000FDF75CFA07900C98FDF7A3FB0021039088
:102D8000FDF754FA05900F98FDF79BFB2B49019036
:102D9000FDF74CFA03902046FDF793FB264901907E
:102DA000FDF744FA02900399FDF7E8F904900599BC
:102DB000FDF7E4F906900799FDF7E0F90890FDF7B3
:102DC0009AFB824640F6B830804500DD00E0404680
:102DD000804640F6B830814500DD00E04846814637
:102DE00040F6B830824500DD00E0504682461A4881
:102DF000804500DA00E0404680461748814500DA09
:102E000000E0484681461448824500DA00E050461A
:102E10008246CBF800802398C0F800902498C0F830
:102E200000A00A4805600A4806600A48076019B011
:102E3000BDE8F08F00002041000048420000F04152
:102E40003801002000020020C802002028000020D5
:102E50002C0000203000002048F4FFFF10B50B4686
:102E60000021511E05E04C1E50F8244040F821403E
:102E7000491E0029F7DC036010BD10B502460B4661
:102E80000020002100BF03E052F821402044491CEB
:102E90009942F9DB10BD0000044A516821F0F001AD
:102EA00041EA0002014B5A607047000000100240E6
:102EB0002DE9F04F8BB00746002009903EA090E826
:102EC000004CC068CDE905BECDF810A007900FF208
:102ED000EC0ADAE9000ACDE9020A0FF2E00ADAE9BF
:102EE000000ACDE9000A38484068C0F381000A9022
:102EF0000A9820B1012804D0022829D103E03349DF
:102F000028E0324926E03048406800F48038B8F5BF
:102F1000803F09D12D4C2C48406800F40039B9F5A8
:102F2000003F02D1641000E0294C27484068C0F3FC
:102F300083422548406800F0006008B142F010026A
:102F40000F2A01D2921C00E0521C04FB02F101E0A6
:102F50001E4900BF00BF1C484068C0F3031504A809
:102F6000465D21FA06F318484068C0F3022502A81E
:102F7000465D23FA06FC14484068C0F3C2251DF8DC
:102F8000056023FA06F0089037B1012F06D0022F12
:102F900006D0032F0AD106E0099108E0099306E064
:102FA000CDF824C003E00898099000E000BF00BFFE
:102FB00009980BB0BDE8F08F000000000000000091
:102FC00001020304060708090010024000127A00FB
:102FD00000093D00064A02EB9011096800F01F034A
:102FE00001229A401143024B03EB9012116070478B
:102FF00000100240064A02EB9011096800F01F031E
:1030000001229A409143024B03EB901211607047EA
:1030100000100240064A02EB9011096800F01F03FD
:1030200001229A401143024B03EB9012116070474A
:103030000010024030B50B4600215A1E06E0445CE9
:10304000855C45548454491C521E00BF9142F6DBF6
:1030500030BD000010B5044621460248FEF7DFF9F6
:1030600010BD000000440040002000212C4A1268DE
:1030700042F480322A4B1A6000BF401C284A126872
:1030800002F4003119B94FF6FF729042F5D1244A8B
:10309000126802F400320AB900BFFEE7204A526803
:1030A0001F4B5A601A4652685A601A46526842F4D8
:1030B00080625A601A46526822F440325A601A46B8
:1030C000526842F440325A601A465268154B1A4010
:1030D000134B5A601A465268134B1A43104B5A60EE
:1030E0001A46126842F080721A6000BF0C4A1268D9
:1030F00002F00072002AF9D0094A526822F0030255
:10310000074B5A601A46526842F002025A6000BFEA
:10311000034A526802F00C02082AF9D170470000F5
:1031200000100240FFFFC3F70000040810B5FFF7CE
:103130009BFF10BD10B5124800684FF47A71B0FBC8
:10314000F1F4601EB0F1807F01D301200FE0601E1A
:103150004FF0E02148610F214FF0FF30FDF7B0FD47
:1031600000204FF0E021886107200861002008B1AD
:1031700000BFFEE70021481EFDF7A2FD10BD0000C4
:1031800000000020016841F08001016070470000EC
:1031900010B531B101293FD002297DD003297CD15E
:1031A000BFE0036A23F001030362836923F0030392
:1031B0008361036A148823430362036A23F00203D2
:1031C0000362036A9488234303626A4B984202D0E5
:1031D000694B98421FD1036A23F004030362036A18
:1031E000548823430362036A23F008030362036ADB
:1031F000D48823430362436823F4807343604368A5
:10320000148923434360436823F400734360436895
:10321000548923434360ABE0036A23F01003036245
:10322000836923F440738361036A148843EA0413B7
:103230000362036A23F020030362036A948843EA6B
:10324000041303624B4B984202D04B4B984226D159
:10325000036A23F040030362036A548843EA0413B9
:103260000362036A23F080030362036AD48843EA9B
:1032700004130362436823F4806343604368148942
:1032800043EA84034360436823F400634360436874
:10329000548943EA840301E002E068E0436067E0A8
:1032A000036A23F480730362C36923F00303C361D9
:1032B000036A148843EA04230362036A23F4007355
:1032C0000362036A948843EA04230362294B984209
:1032D00002D0294B984223D1036A23F4806303620E
:1032E000036A548843EA04230362036A23F40063F5
:1032F0000362036AD48843EA04230362436823F425
:10330000805343604368148943EA0413436043686D
:1033100023F4005343604368548943EA0413436031
:1033200026E0036A23F480530362C36923F44073E5
:10333000C361036A148843EA04330362036A23F413
:1033400000530362036A948843EA04330362094B1F
:10335000984202D0084B984208D1436823F4804336
:1033600043604368148943EA8413436000E000BF6C
:1033700000BF10BD002C01400034014031B10129D3
:103380000CD0022913D0032922D118E0836923F03D
:10339000700383618369134383611AE0836923F4B3
:1033A000E0438361836943EA0223836111E0C369D7
:1033B00023F07003C361C3691343C36109E0C369A8
:1033C00023F4E043C361C36943EA0223C36100E01D
:1033D00000BF00BF704731B1012906D0022906D0D5
:1033E000032908D105E0426306E0826304E0C2637A
:1033F00002E0026400E000BF00BF704731B1012964
:103400000CD0022913D0032922D118E0836923F0BC
:10341000080383618369134383611AE0836923F49A
:1034200000638361836943EA0223836111E0C36916
:1034300023F00803C361C3691343C36109E0C3698F
:1034400023F40063C361C36943EA0223C36100E05C
:1034500000BF00BF7047000000B587B040F20B60AE
:10346000FFF7B8FD374800F071F80020ADF8000014
:10347000ADF80200ADF8040041F61F4002900020B4
:10348000ADF80C008DF80E0069462E4800F0D4F817
:103490000020ADF814000120ADF810000020ADF8B8
:1034A0001600ADF81200ADF81800ADF81A0004AA25
:1034B00000212448FFF76CFE04AA01212148FFF7F0
:1034C00067FE04AA02211F48FFF762FE40F2F312D2
:1034D00000211C48FFF77FFF602200211948FFF7F9
:1034E0004DFF002211461748FFF788FF40F2F31204
:1034F00001211448FFF76FFF602201211148FFF7F7
:103500003DFF002201210F48FFF778FF40F2F31240
:1035100002210C48FFF75FFF602202210948FFF7F4
:103520002DFF002202210748FFF768FF0548FFF73B
:1035300029FE0121034800F0EFF8024800F074F87A
:1035400007B000BD002C01404162704710B5044631
:103550003349601A8C4244D00CDCB4F1804F1CD04B
:103560003048204410B3B0F5806F28D0B0F5006F1C
:1035700052D12DE0B0F5806F3CD0B0F58E3F03D036
:10358000B0F5923F48D13EE040F20B30FFF742FDEC
:1035900040F20B30FFF72EFD3FE04FF48060FFF765
:1035A00039FD4FF48060FFF725FD36E040F2014021
:1035B000FFF730FD40F20140FFF71CFD2DE040F227
:1035C0000240FFF727FD40F20240FFF713FD24E021
:1035D00040F20340FFF71EFD40F20340FFF70AFDF3
:1035E0001BE040F20440FFF715FD40F20440FFF7F6
:1035F00001FD12E040F20540FFF70CFD40F20540EE
:10360000FFF7F8FC09E040F20D30FFF703FD40F250
:103610000D30FFF7EFFC00E000BF00BF10BD000061
:103620000010004000FCFFBF016841F00101016093
:103630007047CA43026170470A888262294A9042F1
:1036400020D0B0F1804F1DD0274A90421AD0274A8F
:10365000904217D0264A904214D0264A904211D068
:10366000254A90420ED0254A90420BD0244A9042DF
:1036700008D0244A904205D0234A904202D0234ADF
:1036800090420FD1026822F07002026002688B78CB
:1036900003F060031A43026002680B7903F0100321
:1036A0001A4302608A68C262194A90420CD0194AD1
:1036B000904209D0026822F44072026002688B894D
:1036C00003F440731A430260064A904202D0094A4A
:1036D000904201D18A7B0263426942F00102426159
:1036E00070470000002C014000040040000800402A
:1036F000000C004000340140004C014000500140EB
:103700000054014000180040001C00400020004010
:103710000010004000140040012904D1426C42F422
:103720000042426403E0426C22F40042426470476B
:1037300030B5846824F00704846084680C43846096
:10374000846940F20335AC438461846940F2011519
:103750002C438461046A24F00A040462046A24F09D
:10376000A0040462046A42EA03152C43046230BDDB
:103770002DE9F04704460D460027B846B946002615
:103780001D49601A8C421CD006DC1C48204470B1D4
:10379000B0F5806F1FD10FE0B0F5806F16D0B0F597
:1037A0006C4F18D10320FFF783FB074614E002207B
:1037B000FFF77EFB07460FE00220FFF779FB074685
:1037C0000AE00220FFF774FB074605E00220FFF73E
:1037D0006FFB074600E000BF00BF07EB5500B0FBE2
:1037E000F5F64FF6F07006EA000806F00F0948EA11
:1037F0000900A060BDE8F087004C004000BCFFBF9E
:1038000001464868C0F308007047C1F308024260EF
:103810007047000010B504462049601A8C4228D039
:1038200006DC1F48204490B1B0F5806F33D117E01B
:10383000B0F5806F26D0B0F56C4F2CD140F20E3031
:10384000FFF7E8FB40F20E30FFF7D4FB24E040F234
:103850001140FFF7DFFB40F21140FFF7CBFB1BE00D
:1038600040F21240FFF7D6FB40F21240FFF7C2FBD6
:1038700012E040F21340FFF7CDFB40F21340FFF798
:10388000B9FB09E040F21440FFF7C4FB40F21440DA
:10389000FFF7B0FB00E000BF00BF10BD004C0040D0
:1038A00000BCFFBFC16841F40051C160704710B552
:1038B000024602EB9110006801F01F040123A340AF
:1038C000184008B1012010BD0020FCE7426922F435
:1038D00000724261426901F400731A434261704709
:1038E000426922F480724261426901F480731A4392
:1038F0004261704710B5C1F38912825801F01F046C
:103900000123A3409A43C1F38913C25010BD10B5DF
:10391000C1F38912825801F01F040123A3401A4306
:10392000C1F38913C25010BD70B5024600230024B4
:10393000C1F38910105801F01F060125B54000EAB7
:10394000050302EB91500068C1F304460125B54020
:1039500000EA050414B10BB1012070BD0020FCE7A2
:10396000C26822F4C062C260C2680A43C260704783
:103970000A460021C16821F004011143C16070476B
:10398000026922F44052026102690A4302617047EF
:103990000A460021C16821F008011143C160704747
:1039A000C26822F48052C260C2680A43C260704793
:1039B0000000000000000000002F000000000700D1
:1039C000070000147F147F1400242A7F2A1200624B
:1039D00064081323003649552250000005030000F7
:1039E00000001C224100000041221C000014083E7F
:1039F00008140008083E0808000000A06000000845
:103A00000808080800006060000000201008040298
:103A1000003E5149453E0000427F40000042615156
:103A20004946002141454B31001814127F100027F0
:103A300045454539003C4A494930000171090503B3
:103A400000364949493600064949291E00003636E4
:103A50000000000056360000000814224100001447
:103A60001414141400004122140800020151090624
:103A700000324959513E007C1211127C007F4949A5
:103A80004936003E41414122007F4141221C007FD6
:103A900049494941007F09090901003E4149497AE4
:103AA000007F0808087F0000417F4100002040415E
:103AB0003F01007F08142241007F40404040007FCA
:103AC000020C027F007F0408107F003E4141413E0E
:103AD000007F09090906003E4151215E007F091956
:103AE00029460046494949310001017F0101003F53
:103AF0004040403F001F2040201F003F4038403FD3
:103B00000063140814630007087008070061514936
:103B1000454300007F41410000552A552A550000C9
:103B200041417F0000040201020400404040404047
:103B3000000001020400002054545478007F4844DF
:103B4000443800384444442000384444487F003816
:103B50005454541800087E0901020018A4A4A47C3F
:103B6000007F080404780000447D40000040808409
:103B70007D00007F102844000000417F4000007C51
:103B800004180478007C080404780038444444385D
:103B900000FC242424180018242418FC007C0804A9
:103BA000040800485454542000043F444020003C82
:103BB0004040207C001C2040201C003C4030403C09
:103BC000004428102844001CA0A0A07C0044645499
:103BD0004C441414141414140000000000000000DD
:103BE0000000000000000000000000F800000000DD
:103BF000000000333000000000100C06100C06001E
:103C0000000000000000000040C07840C078400084
:103C1000043F04043F040400007088FC08300000E6
:103C2000001820FF211E0000F008F000E01800003E
:103C300000211C031E211E0000F0088870000000F7
:103C40001E2123241927211010160E000000000049
:103C50000000000000000000000000E01804020066
:103C6000000000071820400000020418E0000000D7
:103C70000040201807000000404080F080404000D5
:103C80000202010F01020200000000F0000000002B
:103C90000101011F010101000000000000000000FF
:103CA00080B0700000000000000000000000000074
:103CB00000010101010101010000000000000000FD
:103CC0000030300000000000000000008060180498
:103CD000006018060100000000E010080810E00075
:103CE000000F102020100F00001010F8000000003E
:103CF0000020203F20200000007008080888700085
:103D00000030282422213000003008888848300004
:103D10000018202020110E000000C02010F8000024
:103D200000070424243F240000F8088888080800BD
:103D30000019212020110E0000E0108888180000D2
:103D4000000F112020110E0000380808C8380800A4
:103D50000000003F00000000007088080888700024
:103D6000001C222121221C0000E010080810E000A5
:103D70000000312222110F00000000C0C00000002E
:103D80000000003030000000000000800000000053
:103D9000000080600000000000008040201008004B
:103DA0000001020408102000404040404040400014
:103DB00004040404040404000008102040800000EF
:103DC0000020100804020100007048080808F000F4
:103DD0000000003036010000C030C828E810E000C4
:103DE0000718272423140B000000C038E00000004F
:103DF000203C23020227382008F8888888700000B9
:103E0000203F202020110E00C0300808080838008C
:103E1000071820202010080008F808080810E00003
:103E2000203F202020100F0008F88888E8081000A4
:103E3000203F20202320180008F88888E808100078
:103E4000203F200003000000C030080808380000B0
:103E500007182020221E020008F808000008F808B1
:103E6000203F210101213F20000808F80808000038
:103E70000020203F2020000000000808F80808006B
:103E8000C08080807F00000008F888C028180800E3
:103E9000203F20012638200008F80800000000001C
:103EA000203F20202020300008F8F800F8F8080013
:103EB000203F003F003F200008F830C00008F8080D
:103EC000203F200007183F00E01008080810E0001D
:103ED0000F10202020100F0008F808080808F00034
:103EE000203F210101010000E01008080810E00057
:103EF0000F18242438504F0008F8888888887000EC
:103F0000203F2000030C302000708808080838008B
:103F10000038202121221C00180808F80808180081
:103F20000000203F2000000008F808000008F80802
:103F3000001F202020201F000878880000C83808B3
:103F4000000007380E010000F80800F80008F8002B
:103F5000033C0700073C03000818688080681808C5
:103F600020302C03032C30200838C800C838080043
:103F70000000203F2000000010080808C838080092
:103F80002038262120201800000000FE0202020036
:103F90000000007F40404000000C30C000000000E6
:103FA000000000010638C00000020202FE0000000E
:103FB000004040407F0000000000040202020400B4
:103FC00000000000000000000000000000000000F1
:103FD00080808080808080800002020400000000D9
:103FE00000000000000000000000808080800000D1
:103FF0000019242222223F2008F8008080000000BF
:10400000003F112020110E00000000808080000081
:10401000000E112020201100000000808088F80090
:10402000000E112020103F200000808080800000C2
:10403000001F222222221300008080F08888881826
:104040000020203F20200000000080808080800031
:10405000006B94949493600008F8008080800000C6
:10406000203F210000203F200080989800000000A1
:104070000020203F202000000000008098980000D1
:1040800000C08080807F000008F8000080808000F1
:10409000203F24022D302000000808F80000000016
:1040A0000020203F202000008080808080808000D1
:1040B000203F20003F20003F808000808080000063
:1040C000203F210000203F200000808080800000F1
:1040D000001F202020201F00808000808000000022
:1040E00080FFA12020110E00000000808080800051
:1040F000000E112020A0FF80808080008080800042
:1041000020203F212000010000008080808080006E
:104110000033242424241900008080E080800000E3
:104120000000001F20200000808000000080800030
:10413000001F202020103F20808080000080808091
:1041400000010E3008060100808000800080808021
:104150000F300C030C300F00008080008080800046
:104160000020312E0E312000808080000080808071
:1041700080818E7018060100008080808080800021
:104180000021302C2221300000000000807C02023F
:1041900000000000003F404000000000FF00000061
:1041A00000000000FF0000000002027C8000000010
:1041B0000040403F0000000000060101020204042C
:1041C0000000000000000000E8410008000000209E
:1041D00058000000F0150008404200085800002078
:1041E000300A00000016000800A24A040000000087
:1041F00000000000000000000000000000000000BF
:1042000000000000000000000000000000000000AE
:10421000000000000000000000000000000000009E
:10422000000000000000000048454C4C4F574F5222
:104230004C44000A0A0000000000000000000000DA
:0400000508000105E9
:00000001FF
