:020000040800F2
:10000000880A00201D010008110C00083D080008A6
:10001000D90A000815080008211500080000000092
:10002000000000000000000000000000D50F0008E4
:100030001908000800000000250F0008D90F00086B
:1000400037010008370100083701000837010008B0
:1000500037010008370100083701000837010008A0
:100060003701000837010008370100083701000890
:100070003701000837010008370100083701000880
:100080003701000837010008370100083701000870
:100090003701000837010008370100083701000860
:1000A00037010008B51000083701000837010008C3
:1000B0003701000837010008370100083701000840
:1000C0003701000837010008370100083701000830
:1000D0003701000837010008C9100008F9110008AD
:1000E0003701000837010008370100080000000050
:1000F0000000000000000000000000000000000000
:1001000037010008DFF810D000F072FB004800470C
:10011000451D0008AFF30080880A0020064880478C
:1001200006480047FEE7FEE7FEE7FEE7FEE7FEE7DC
:10013000FEE7FEE7FEE7FEE7E10F00080501000825
:10014000D2B201E000F8012B491EFBD27047002219
:10015000F6E710B513460A4604461946FFF7F0FFC6
:10016000204610BD421E12F8013F002BFBD111F8B2
:10017000013B02F8013B002BF9D17047F0B480EA53
:100180000102D40F4200B2EB410F02D202460846F0
:1001900011464A0042D0C30DDDB2C1F3C752AD1AB9
:1001A000202D35DAC1F3160141F4000204B15242A8
:1001B000C5F1200602FA06F12A411044B3EBD05FE4
:1001C00023D0C4B1012DA0EBC35009DCF0BC4FF02B
:1001D000004202EAC352DBB200F5000000F07CBA34
:1001E000400000F1807000EBC350A0F1807040EA45
:1001F000D170490009E0490841EAC071A0EBC35041
:1002000000F50000400800EBC350F0BC00F05BBA02
:100210006142012202EB4101001BF6E7F0BC70478E
:1002200081F00041AAE780F00040A7E780EA0102E0
:1002300010B502F00043400022D04A001FD0010E4A
:1002400001EB1261C0F35600C2F3560240F4000005
:1002500042F40002A0FB022000047F39140400D005
:10026000401C50EA124001D44000491EC2B20C06A4
:1002700004EBD010401C4008802A02D003E000208C
:1002800010BD20F00100002900DA0020184310BD45
:100290002DE9FE4F804681EA0300C00F0C46009016
:1002A00021F0004123F00045B8EB0200A94105D23E
:1002B0004046214690461C460B46024623F000402D
:1002C000104347D0270DC7F30A00C3F30A51029029
:1002D000401A019040286BDAC3F3130040F4801BEE
:1002E0000098924620B10023D2EB030A63EB0B0B7C
:1002F00001985946C0F14002504600F0B3F9064655
:100300000D4650465946019A00F0CBF910EB080013
:100310006141002487EA115284EAE7731A4340D00E
:10032000009A62B3019A012A4FEA075215DC001BBA
:1003300061EB02014FF0004202EA0752CDE90042B0
:10034000001C41F5801132462B4600F002FA03B042
:10035000BDE8F08F40462146F9E7001B61EB020142
:10036000001C41F5801300185B412018A2F500170E
:1003700047EB030140EAD570B6196D4111E06D08F5
:100380004FEA360645EAC0754FEA0752001B61EB9B
:100390000201001C41F5801149084FEA30000019A4
:1003A000514132462B4603B0BDE8F04F00F0C2B9D0
:1003B0000098012240000023D0EB020263EBE073BF
:1003C000009821464FEAE074B8EB000061EB0401AD
:1003D000E9E783F000435BE781F0004158E72DE94E
:1003E000FE4F81EA030404F0004421F00041009430
:1003F0004FF0000B23F0004350EA01045ED052EAB4
:1004000003045BD0C3F30A54C1F30A552C44A4F28D
:10041000F3340194A0FB0254C1F3130141F48011A1
:10042000C3F3130343F4801301FB024400FB034EA8
:10043000840A970A44EA815447EA8357A4FB076871
:1004400002958D0A05FB07854FEA932C04FB0C549B
:100450002705029D4FEA065847EA1637B5EB08050F
:100460006EEB070C870E920E47EA811742EA831261
:10047000A7FB0201B6EB0B0164EB00042B0D43EA72
:100480000C335E1844EB1C50DA465146E7FB020180
:10049000C5F313044FEA0B3343EA14534FEA043213
:1004A000019C43EA0603A4F10C040294009CCDE9EC
:1004B00000B400F04EF903B0BDE8F08F0020014613
:1004C000F9E7C10F80EAE0700844CA0796230021CB
:1004D00000F002B90EB5C10F80EAE0700844CA0707
:1004E000002140F233438DE80E000A460B4600F02F
:1004F00030F903B000BD00F0004220F00040C10D13
:10050000C0F3160040F400007F2901DA0020704794
:10051000962903DCC1F19601C84001E09639884074
:10052000002AF4D04042704770B5C1F30A5201F07E
:1005300000450024C1F3130140F2FF3341F4801160
:100540009A4201DA002070BD40F233439A42A2F28F
:10055000334203DC524200F094F800E090402C4318
:10056000F1D0404270BD00F0004230F000400AD0AF
:10057000C10D01F56071C0F3160042EA0151C208D5
:1005800040071143704700200146704730B5041EF4
:1005900071F1000404DB4FF00044404264EB0101C0
:1005A000141E73F1000405DB1C464FF00043524259
:1005B00063EB04038B4208BF824230BD30B5041E9A
:1005C00071F1000404DB4FF00044404264EB010190
:1005D000141E73F1000405DB1C464FF00043524229
:1005E00063EB0403994208BF904230BD01F0004321
:1005F00030B421F0004150EA010206D00A0DA2F504
:100600006072C1F31301002A02DC30BC0020704785
:10061000440F44EAC104C100E01830BC00EBC250F2
:1006200000F051B8002801DBC0F10040002901DBD7
:10063000C1F100418842704730B50B4601460020A9
:100640002022012409E021FA02F59D4205D303FA94
:1006500002F5491B04FA02F52844151EA2F1010215
:10066000F1DC30BD202A04DB203A00FA02F1002040
:1006700070479140C2F1200320FA03F319439040E0
:100680007047202A04DB203A21FA02F0002170474B
:1006900021FA02F3D040C2F12002914008431946EA
:1006A0007047202A06DBCB17203A41FA02F043EAD2
:1006B000E07306E041FA02F3D040C2F1200291401B
:1006C0000843194670470029A8BF7047401C4900DD
:1006D00008BF20F00100704710B4B0FA80FC00FAA7
:1006E0000CF050EA010404BF10BC704749B1CCF1D2
:1006F000200421FA04F411FA0CF118BF012121435E
:100700000843A3EB0C01CB1D4FEA00614FEA102018
:1007100042BF002010BC704700EBC35010440029BA
:10072000A4BF10BC7047401C490008BF20F0010066
:1007300010BC704710B5141E73F1000408DA401C99
:1007400041F1000192185B411A4301D120F00100F0
:1007500010BD2DE9F04D92469B4611B1B1FA81F2E0
:1007600002E0B0FA80F220329046FFF77BFF0446A9
:100770000F4640EA0A0041EA0B0153465A46084335
:1007800013D0114653EA010019D0C8F14002504677
:10079000FFF777FF05460E46504659464246FFF79B
:1007A00061FF084305D0012004E020463946BDE83A
:1007B000F08D0020054346EAE0762C4337430A9843
:1007C0006305E40AA0EB08000022FD0A44EA47544E
:1007D0000A3002D500200146E9E7010510196941F8
:1007E000DDE9084500196941BDE8F04DA2E70000C8
:1007F000064C074D06E0E06840F0010394E807006E
:1008000098471034AC42F6D3FFF780FC9C400008B8
:10081000BC40000800BFFEE700BFFEE770B505461C
:1008200000246C6A0021284602F0F8FDB4F5004F60
:1008300002DBA4F57F44FF3C204670BD00BFFEE70D
:100840002DE9F05F82464FF0520B5846FFF742FE0B
:100850008046484A484BFFF7C2FD04460D465046C5
:10086000FFF738FE064622462B46FFF7A7FE15D8AF
:100870005846FFF72FFE0646404A414BFFF7AFFDB3
:1008800004460D465046FFF725FE804622462B467D
:10089000FFF77CFE02D80020BDE8F09F5846FFF726
:1008A00019FE8046334A344BFFF799FD04460D4646
:1008B0005046FFF70FFE064622462B46FFF766FE20
:1008C00016D25846FFF706FE06464FF066322D4B0D
:1008D000FFF785FD04460D465046FFF7FBFD8046B9
:1008E00022462B46FFF76AFE02D84FF0FF30D3E7CF
:1008F0005846FFF7EFFD06461E4A234BFFF76FFDF4
:10090000804689465046FFF7E5FD044642464B4681
:10091000FFF754FE14D25846FFF7DCFD8046174A15
:10092000174BFFF75CFD04460D465046FFF7D2FD1E
:10093000064622462B46FFF729FE01D80120ABE7E9
:100940005846FFF7C7FD80464FF066320D4BFFF764
:1009500046FD04460D465046FFF7BCFD06462246BE
:100960002B46FFF713FE02D26FF0010094E702203E
:1009700092E70000CDCCCCCCCCCCEC3F9A999999A5
:100980009999F13F6666E63FCCCCF43F2DE9F05FE4
:1009900082464FF0520B5846FFF79CFD80464FF0C1
:1009A0003332484BFFF71BFD04460D465046FFF718
:1009B00091FD064622462B46FFF700FE16D8584604
:1009C000FFF788FD06464FF066323F4BFFF707FD05
:1009D00004460D465046FFF77DFD804622462B46D5
:1009E000FFF7D4FD02D80020BDE8F09F5846FFF77E
:1009F00071FD80464FF03332324BFFF7F0FC044676
:100A00000D465046FFF766FD064622462B46FFF789
:100A1000BDFD15D25846FFF75DFD06462B4A2C4B0F
:100A2000FFF7DDFC04460D465046FFF753FD8046B8
:100A300022462B46FFF7C2FD02D84FF0FF30D3E726
:100A40005846FFF747FD06464FF066321E4BFFF74C
:100A5000C6FC804689465046FFF73CFD04464246A8
:100A60004B46FFF7ABFD15D25846FFF733FD8046E6
:100A70004FF06632174BFFF7B2FC04460D46504666
:100A8000FFF728FD064622462B46FFF77FFD01D8DB
:100A90000120A9E75846FFF71DFD80460B4A0C4B85
:100AA000FFF79DFC04460D465046FFF713FD064632
:100AB00022462B46FFF76AFD02D26FF0010093E752
:100AC000022091E73333E33F6666F63FCDCCCCCCD2
:100AD000CCCCDC3F6666FA3F00BFFEE770B504464B
:100AE0000D461646002C0ADDA2B20021224802F073
:100AF000DCFB4FF48051214800F0D0FF0AE0604257
:100B000082B200211C4802F0D0FB4FF480511B48F8
:100B100000F0C6FF002D0ADDAAB20121164802F03E
:100B2000C4FB4FF40051154800F0B8FF0AE06842DA
:100B300082B20121104802F0B8FB4FF400510F4877
:100B400000F0AEFF002E0ADDB2B202210A4802F028
:100B5000ACFB4FF48041094800F0A0FF0AE070426E
:100B600082B20221044802F0A0FB4FF48041034806
:100B700000F096FF70BD0000002C0140000C014009
:100B800010B540F2036002F08FF94FF48053032256
:100B900010211D4800F08BFF4FF400530322102159
:100BA000194800F084FF4FF48043032210211648B7
:100BB00000F07DFF4FF4805013491431086040006D
:100BC00008604000086040F2026002F06DF94FF4E6
:100BD000C06002F069F94FF48073032218210B48BA
:100BE00000F065FF4FF4007303221821074800F05E
:100BF0005EFF4FF4806303221821044800F057FF82
:100C000002F094FB10BD0000000C01400008014000
:100C100000BFFEE710B5002807DA0A07140E054AE0
:100C200000F00F031B1FD45403E00A07130E024AFF
:100C3000135410BD18ED00E000E400E070B500248E
:100C400015E004F1B001C8B200F000F9012000F095
:100C5000FDF8102000F0FAF8002504E0002000F074
:100C60002BF9681CC5B2842DF8DB601CC4B2082CBB
:100C7000E7DB70BD10B540F2046002F015F940F2F8
:100C8000026002F011F94FF40043032210214B4897
:100C900000F00DFF4FF40041484800F0FFFE4FF414
:100CA000804303221021454800F001FF4FF48041AA
:100CB000424800F0F3FE4FF40053032210213F4856
:100CC00000F0F5FE4FF400513C4800F0E7FE012330
:100CD000032210213A4800F0EAFE0121384800F0D2
:100CE000DDFE4FF40041354800F0DAFE4FF40051CC
:100CF000324800F0D3FE322000F0EAFD4FF40051FC
:100D00002E4800F0CDFEAE2000F0A0F8002000F04C
:100D10009DF8102000F09AF8402000F097F881200C
:100D200000F094F8CF2000F091F8A12000F08EF8A8
:100D3000C82000F08BF8A62000F088F8A82000F06A
:100D400085F83F2000F082F8D32000F07FF80020E3
:100D500000F07CF8D52000F079F8802000F076F8DB
:100D6000D92000F073F8F12000F070F8DA2000F0DC
:100D70006DF8122000F06AF8DB2000F067F84020E0
:100D800000F064F8202000F061F8022000F05EF826
:100D90008D2000F05BF8142000F058F8A42000F03B
:100DA00055F8A62000F052F8AF2000F04FF8FFF7FA
:100DB00045FF0021084600F037F810BD0010014043
:100DC000000801402DE9F0470446884615464FF0DB
:100DD00000090026002720E0E85D203800F0FF0928
:100DE0007E2C04DD002408F1010000F0FF084146DC
:100DF000204600F019F8002609E009EB4901094AEC
:100E000002EB4101885D00F057F8701CC6B2062E57
:100E1000F3DBA01DC4B2781CC7B2E85D0028DBD1AB
:100E2000BDE8F0878438000870B504460D4605F12A
:100E3000B001C8B200F00AF8102141EA141000F025
:100E400005F804F00F0000F001F870BD70B504461D
:100E500008250121164800F021FE2903154800F05D
:100E60001DFE012000F066FF1CE004F0800028B1A8
:100E70004FF480410F4800F013FE04E04FF480412E
:100E80000C4800F00BFE4FF400410A4800F008FE49
:100E9000012000F04FFF4FF40041064800F0FEFD36
:100EA0006006040E281EA5F10101CDB2DDD170BD92
:100EB000000801400010014070B5044608250121DA
:100EC000164800F0EDFD2903154800F0E7FD01206C
:100ED00000F030FF1CE004F0800028B14FF48041A6
:100EE0000F4800F0DDFD04E04FF480410C4800F0B5
:100EF000D5FD4FF400410A4800F0D2FD012000F07A
:100F000019FF4FF40041064800F0C8FD6006040ECA
:100F1000281EA5F10101CDB2DDD170BD0008014050
:100F20000010014000BFFEE710B50446052C49D271
:100F3000DFE804F003101D2A39000121234800F0E6
:100F40000CFE30B90121214800F007FE08B901204C
:100F500010BD37E002211D4800F0FFFD30B902212D
:100F60001A4800F0FAFD08B90120F1E72AE004214F
:100F7000164800F0F2FD30B90421144800F0EDFDF0
:100F800008B90120E4E71DE04FF40061104800F0CB
:100F9000E4FD38B94FF400610D4800F0DEFD08B9FA
:100FA0000120D5E70EE04FF48051094800F0D5FD4F
:100FB00038B94FF48051064800F0CFFD08B9012040
:100FC000C6E700BF00BF0020C2E70000000C0140E0
:100FD0000008014000BFFEE710B500F083FC10BD23
:100FE00008B53048006840F001002E49086000BF95
:100FF0002C48006800F002000028F9D000BF294802
:10100000406840F08000274948600020009002E0DE
:101010000098401C009000985028F9D3214840685F
:1010200040F090001F4948600020009002E00098C6
:10103000401C009000985028F9D300BF1948406820
:1010400020F0030017494860084600681649084028
:10105000144908600846406814490840114948602E
:1010600008460068104908400E49086008460068B4
:1010700020F480200860084640680D49084009496E
:1010800048600846006808490840064908604FF46F
:101090001F00886001F0B4FF00214FF0006001F0F4
:1010A000B1F908BD00100240FFFFF6FE0C00FFE89A
:1010B000FFFF00F710B50121024802F024FA00F00A
:1010C00027FE10BD002C014010B51C491C4802F041
:1010D00095FBB0B11A4802F0FDFAC1B21948028876
:1010E0000088401C174B1880174881541846008808
:1010F00016490978884204D140F20531104802F0BF
:1011000063FB13490E4802F079FBA8B1114802783D
:101110000078401C0F4B18700F48815C084802F0A3
:10112000DEFA0C4800780D490978884204D140F273
:101130000731034802F048FB10BD0000050305001D
:10114000004400404E000020E80500204C00002034
:10115000070307004D000020400000204B00002046
:1011600010B5044640F2026001F09EFE40F211709C
:1011700001F09AFE0423032218211D4800F097FC79
:101180000823032204211A4800F091FC194802F0B8
:10119000ABFA2146174802F055FA0021154802F033
:1011A00069FB0021134802F055FB0021114802F0B1
:1011B00041FB00210F4802F0FDFA00210D4802F02A
:1011C000EFFA08210B4802F04DFB0421094802F018
:1011D00039FB084802F0D0FA01220021262001F054
:1011E000B1F840F20531034802F0FBFA10BD0000EF
:1011F000000801400044004070B5FF24FD25FE2694
:101200002349244802F0FAFA002840D0214802F08D
:1012100061FA2149214A126841F822001F480068FA
:10122000401C1E4908601C480068FF2801D00020AF
:10123000086019484068FD2806D018480068022850
:1012400002D10020154908601448006809281ED101
:101250001148006AFE281AD10F48806810490860BA
:101260000D48C0680F4908600B4800690E490860C6
:10127000094840690D490860074880690C490860C1
:101280000548C0690B49086000200449086070BD2A
:10129000050305000048004058000020040000201D
:1012A0000C00002010000020140000201800002076
:1012B0001C0000202000002010B5044640F203600E
:1012C00001F0F2FD40F2127001F0EEFD4FF4806388
:1012D000032218211D4800F0EAFB4FF400630322AB
:1012E00004211A4800F0E3FB194802F0FDF92146F9
:1012F000174802F0A7F90021154802F0BBFA0021B7
:10130000134802F0A7FA0021114802F093FA0021D5
:101310000F4802F04FFA00210D4802F041FA08216F
:101320000B4802F09FFA0421094802F08BFA0848A2
:1013300002F022FA00221146272001F003F840F2C1
:101340000531034802F04DFA10BD0000000C0140C9
:101350000048004070B504460D462946204602F07C
:10136000BEF900BF0721204602F00BFA0028F9D091
:1013700070BD70B505460C4604E021782846FFF79D
:10138000E9FF641C14B120780028F6D170BD2DE966
:10139000F0478146884615461F46089C2668022F5E
:1013A00003D105202060BDE8F087E6B9012D10D1FA
:1013B0004846FFF745FA012808D04846FFF740FAAB
:1013C000401C18B14846FFF73BFA10B901202060D5
:1013D00086E0022D02D10320206081E0032D7FD121
:1013E000042020607CE0012E0DD115B90020206082
:1013F00076E0022D02D10320206071E0032D6FD131
:10140000042020606CE0032E1FD115B9002020605D
:1014100066E0012D02D10120206061E0032D02D1A0
:10142000042020605CE04046FFF7B0FA50B140462F
:10143000FFF7ACFA012805D04046FFF7A7FA401C99
:1014400000284DD1022020604AE0042E1ED115B99B
:101450000020206044E0012D02D1012020603FE007
:10146000022D02D1032020603AE04046FFF78EFAB9
:1014700048B14046FFF78AFA012804D04046FFF7FA
:1014800085FA401C00BB0220206029E0022E0CD10E
:1014900015B90020206023E0012D02D10120206039
:1014A0001EE08FB9042020601AE0052E18D115B96E
:1014B0000020206014E0012D02D1012020600FE007
:1014C000022D02D1032020600AE0032D06D1404600
:1014D000FFF75CFA10B90220206001E004202060D0
:1014E00000BF60E770B504460D462846FFF7A8F92F
:1014F000002803DA4FF0FF30206001E00120206077
:1015000070BD70B504460D462846FFF73FFA002827
:1015100003DA4FF0FF30206001E00120206070BD51
:1015200000BFFEE70FB4084B10B504A902AA039848
:1015300000F01CF8044602A9002000F0B8F920468B
:1015400010BC5DF814FB0000AF18000802E008C8EA
:10155000121F08C1002AFAD170477047002001E02D
:1015600001C1121F002AFBD1704700002DE9FF4F77
:101570008BB088460546002606E025280BD0DDE91D
:101580000D1290476D1C761C28780028F5D10FB0FD
:101590003046BDE8F08F0024A146A2460122AE49A4
:1015A00000E0044315F8013F203B02FA03F0084233
:1015B000F7D128782A2810D06FF02F022878A0F1D0
:1015C0003001092915D809EB890102EB410144F0EA
:1015D000020400EB01096D1CF0E758F8041B5FEAF8
:1015E000010903D544F40054C9F1000944F0020490
:1015F0006D1C28782E2817D115F8010F44F004042B
:101600002A280ED06FF02F022878A0F13001092986
:101610000AD80AEB8A0102EB410100EB010A6D1CBA
:10162000F2E758F804AB6D1C28786C280FD006DC64
:101630004C2817D068280DD06A2814D104E07428EB
:1016400010D07A280FD10DE044F400140AE044F4DD
:10165000801401E044F440146978814202D104F519
:1016600080146D1C6D1C2878692865D006DC002864
:101670008DD0632827D0642806D15DE06E2808D07D
:1016800073282AD0752877D0DDE90D129047761C93
:10169000E0E0C4F30250022809D003280DD0D8F8A6
:1016A000001004280DD00E6008F10408D2E0D8F82C
:1016B0000010F217C1E90062F6E7D8F800100E80BA
:1016C000F2E70E70F0E718F8041B8DF80010002008
:1016D0008DF80100EB46012003E058F804BB4FF001
:1016E000FF3061074FF0000701D40AE07F1C574527
:1016F0000DDA8742FADB1BF807100029F6D106E065
:101700007F1C8742FCDB1BF807100029F8D1DDE9BC
:101710000D23A9EB07008146214600F0B1F83044C3
:10172000C61904E0DDE90D121BF8010B90477F1E7E
:10173000F8D22146484688E058F8040BC4F3025119
:101740004FF00A0B032900D100B2042900D140B2A6
:10175000002802DA40422D2102E0210505D52B2187
:101760008DF82410012104E006E0E10710D02021CB
:10177000F6E708AF089113E058F8040BC4F30251E0
:101780004FF00A0B032900D180B2042900D1C0B266
:101790000021EEE75946FEF74FFF303107F8011DF3
:1017A0000028F7D1ADEB070000F1200B600702D550
:1017B00024F4803401E04FF0010ADA4502DDAAEB9F
:1017C0000B0000E00020824600EB0B01089801446A
:1017D000A9EB01000A90E00306D4DDE90D232146C0
:1017E0000A9800F04DF806444FF0000908E009A9F6
:1017F00011F80900DDE90D12904709F10109761C85
:1018000008998945F3DBE0030CD5DDE90D2321467A
:101810000A9800F035F8064404E0DDE90D123020A6
:101820009047761CBAF10001AAF1010AF5DC05E047
:10183000DDE90D1217F8010B9047761CBBF1000192
:10184000ABF1010BF4DC0A982146DDE90D2300F031
:1018500005F806446D1C97E6092801002DE9F041C2
:10186000044600251E461746880404D405E0394680
:101870002020B0476D1C641EF9D52846BDE8F081D4
:101880002DE9F041044600251E469046C80301D5C7
:10189000302700E02027880404D505E0414638467B
:1018A000B0476D1C641EF9D52846BDE8F0810A6872
:1018B000531C0B60107070470246002000BF03E00D
:1018C000002342F82030401C8842F9DB70470000BA
:1018D0000349086000BF024909680029FBD170472D
:1018E000240000200448006820B103480068401E1E
:1018F0000149086070470000240000201FB54FF424
:10190000E06001F0D1FA40F2026001F0CDFA40F25D
:10191000036001F0C9FA01211C4800F027F94FF4D7
:1019200000430322042140F2026000F0C0F80823C3
:101930000322042140F2036000F0B9F84FF0804028
:1019400001F06EFD0020ADF80000ADF80200ADF82A
:1019500004004FF6FF7002900020ADF80C008DF8E7
:101960000E0069464FF0804001F0D0FD02230022B6
:101970001946580701F046FE4FF0804001F06CFB1D
:101980004FF0804001F0BAFD1FBD000000031800B9
:101990001FB540F2017001F087FA40F2036001F0D8
:1019A00083FA40F2036001F07FFA0121194800F048
:1019B000DDF810230322042140F2036000F077F8E1
:1019C00020230322042140F2036000F070F8124843
:1019D00001F026FD0020ADF80000ADF80200ADF8E2
:1019E00004004FF6FF7002900020ADF80C008DF857
:1019F0000E006946084801F089FD022300221946BD
:101A0000054801F0FFFD044801F026FB024801F003
:101A100075FD1FBD00081A00000400401FB540F20C
:101A2000027001F041FA40F2036001F03DFA40F229
:101A3000036001F039FA40230322042140F20360DD
:101A400000F035F880230322042140F2036000F007
:101A50002EF8114801F0E4FC0020ADF80000ADF8CC
:101A60000200ADF804004FF6FF7002900020ADF8C0
:101A70000C008DF80E006946074801F047FD02236F
:101A800000221946044801F0BDFD034801F0E4FAC4
:101A9000014801F033FD1FBD00080040416170475F
:101AA000016170470AB1016100E041617047F0B522
:101AB000044616460025002201F00F0501F010072C
:101AC00007B1354300201EE0012787401F40C7B102
:101AD00022684FEA800C0F2707FA0CF7BA438700F9
:101AE00005FA07F73A43282904D1012787401F4008
:101AF000676105E0482903D1012787401F4027611E
:101B00002260471CB8B20828DED3082022E0012753
:101B100087401F40E7B16268A0F108074FEA870CD1
:101B20000F2707FA0CF7BA43A0F10807BF0005FA20
:101B300007F73A43282904D1012787401F406761EE
:101B400005E0482903D1012787401F4027616260D3
:101B5000471CB8B21028DAD3F0BD0246906808409E
:101B600008B1012070470020FCE70000F0B50A46EC
:101B7000002300240021002500F00046B6F1004FAC
:101B800002D11D4EF16901E01B4E7168C0F303459F
:101B900083B200F44016B6F5401F08D121F0706101
:101BA000154E766826F07066134F7E6012E000F4E2
:101BB0008016B6F5801F06D1032606FA05F4A14368
:101BC00041F0706106E0460D360103FA06F6B143B6
:101BD00041F0706122B1460D360103FA06F6314339
:101BE00000F00046B6F1004F02D1034EF16101E072
:101BF000014E7160F0BD0000000001402DE9F04190
:101C000004460D4617460026B04644B930223046F9
:101C1000761C2A540020A8552846BDE8F081002CE7
:101C200004DA0A2F02D14FF00108644211E094FB5C
:101C3000F7F107FB1140092802DD00F1570101E02F
:101C400000F13001CBB23146761C6B5494FBF7F4B3
:101C500000BF002CEBD1B8F1000F03D02D2230468D
:101C6000761C2A540020A8553146284601F04CF92C
:101C70002846D2E710B540F2036001F015F90123C0
:101C8000032204211648FFF712FF40F2036001F01F
:101C90000BF90223032204211148FFF708FF40F249
:101CA000036001F001F90423032219460C48FFF7F1
:101CB000FEFE40F2036001F0F7F84FF400630322E8
:101CC00004210848FFF7F3FE40F2026001F0ECF84F
:101CD0004FF48053032204210248FFF7E8FE10BDB1
:101CE000000C01400008014010B540F2036001F013
:101CF000DBF84FF40043032210210448FFF7D7FE1E
:101D00004FF400410148FFF7CBFE10BD000C01402D
:101D100010B54FF400410648FFF71FFFC0F1010066
:101D2000C4B222464FF400410148FFF7BBFE10BD8C
:101D3000000C014000E000BF011EA0F10100FAD13B
:101D400070470000ADF59A6D01F05EF9002001F0DA
:101D50000DF801F059F94FF4C06001F0A5F8FFF754
:101D6000CDFDFFF715FEFFF759FEFFF7BDFFFFF7AB
:101D700081FFFEF77FFF6420FFF7AAFDFEF75EFFFD
:101D8000FEF7FEFEFEF776FFFEA200210A20FFF717
:101D900019F83220FFF79CFD4FF4E130FFF78CFA81
:101DA0004FF41650FFF7DCF9002400260020CDF890
:101DB000A804CDF8A404824681460025CDF8A004ED
:101DC000CDF89C04CDF89804CDF89404CDF8900497
:101DD000C821F2A8FEF7BBF9C821C0A8FEF7B7F9E1
:101DE000C8218EA8FEF7B3F9C8215CA8FEF7AFF9A9
:101DF00000205B905A90599001205890579000BF56
:101E000000BF00BF002056904FF4807116A8FEF767
:101E10009EF976E20020FFF787F801280ED1DDF861
:101E20009C04FEF7A0FBDC4ADC4BCDE90401FEF785
:101E30002FFA0746FEF7DAFBCDF89C040120FFF7E6
:101E400073F8012802D10020CDF89C040220FFF78E
:101E50006BF801280ED1DDF89C04FEF784FB0746E1
:101E6000CD4ACE4BFEF7B5FACDE90401FEF7BEFB35
:101E7000CDF89C04FFF74CFF0021DDF89C04FEF731
:101E8000D1FB03D21E20CDF8A00405E0DDF89C04B0
:101E9000FEF731FBCDF8A0044FF08040FEF7BEFC0A
:101EA0008246BF48FEF7BAFC8146BE48FEF7B6FC44
:101EB0000546BD480468BD480668BD480068CDF8C1
:101EC000A804BC480068CDF8A40456A80090314688
:101ED0002046DDF8A434DDF8A824FFF758FA569818
:101EE000012834D1214658A8FFF7FCFA314657A8FB
:101EF000FFF707FBDDF8A004FEF7ECFA0022AE4B7B
:101F0000CDE90401FEF76BFA0746FEF70DFB8346A9
:101F100059A85BA90DF59262CDE90404CDE902212F
:101F20000DF59360C0A9F2AB5A46CDE900102946E1
:101F3000504600F073FA0020CDF8940432218EA8A8
:101F4000FFF7BAFC32215CA8FFF7B6FCE5E0569833
:101F5000F8B9314657A8FFF7D4FADDF8A004FEF728
:101F6000B9FA07460022944BFEF739FACDE904018D
:101F7000FEF7DAFA83460DF59260011D0A1D5B46F5
:101F8000CDE9002102902A464946504600F0A8FDBE
:101F9000C3E05698032829D1214658A8FFF7A2FA92
:101FA000314657A8FFF7ADFADDF8A004FEF792FA24
:101FB0000022814BCDE90401FEF711FA0746FEF736
:101FC000B3FA83460DF592600DF593635A462946A0
:101FD000CDE90004504600F019FB32218EA8FFF72E
:101FE0006BFC32215CA8FFF767FC96E0569804284A
:101FF0000FD1214658A8FFF775FA7048CDF898041C
:102000004FF41670CDF8940440F21450CDF89004BB
:1020100083E05698022867D1214658A8FFF762FA54
:10202000314657A8FFF76DFA3046FEF7AFFC28BBE4
:10203000DDF8A004FEF74EFA07460022604BFEF7DB
:10204000CEF9CDE90401FEF76FFA8346002059A9C5
:102050005BAA0DF59263CDE90232CDE904100DF5CE
:102060009360C0A9F2AB5A46CDE90010294650460C
:1020700000F0D0FB0020CDF894042CE03046FEF7B1
:1020800085FC401C20B13046FEF780FC012822D19F
:102090003046FEF77BFC0746FEF71CFACDE902014D
:1020A000DDF8A004FEF716FA07463B4A454BFEF75B
:1020B00096F9CDE90001DDE90223FEF790F9CDE9BB
:1020C0000401FEF731FA83465AAB0DF294425946A9
:1020D000484600F093FC32218EA8FFF7EDFB322139
:1020E0005CA8FFF7E9FB18E05698052815D14FF4D6
:1020F0007A70CDF898040020CDF894043248CDF8D9
:102100009004DDF89024DDF89414DDF89804FEF7CF
:10211000E5FC40F2DC50FFF7DBFBDDF89024DDF856
:102120009414DDF89804FEF7D9FC4B46524627A1DB
:102130000DF2AC400095FFF7F5F90DF2AC4202212B
:102140000020FEF73FFE324624A10DF2AC40FFF71F
:10215000E9F90DF2AC4204210020FEF733FE22A182
:102160000DF2AC40569BDDF8A824FFF7DBF90DF229
:10217000AC4206210020FEF725FE1FA116A8FDF7A0
:10218000F1FF3DE02D2D2D4B494C4C455220524F37
:10219000424F542D2D2D00009A9999999999B93F44
:1021A00000040040000800400C0000201000002047
:1021B00014000020180000200000F03F0CFEFFFF7C
:1021C0000000F83F9999E93F18FCFFFF454E433A5C
:1021D0002025642C2025642C20256400676174650B
:1021E0003A202564000000007374617475733A200E
:1021F00025642C20256400007B2261223A20000007
:102200000A2206A93F480068FFF7F8FC074639464E
:1022100016A8FDF7A7FF3CA116A8FDF7A3FF0A2209
:1022200006A95698FFF7EAFC0746394616A8FDF7B7
:1022300099FF37A116A8FDF795FF0A2206A9DDF838
:102240009804FFF7DBFC0746394616A8FDF78AFF1E
:1022500031A116A8FDF786FF0A2206A9DDF894042D
:10226000FFF7CCFC0746394616A8FDF77BFF2CA1EB
:1022700016A8FDF777FF0A2206A9DDF89004FFF7FC
:10228000BDFC0746394616A8FDF76CFF26A116A827
:10229000FDF768FF0A2206A95046FFF7AFFC074684
:1022A000394616A8FDF75EFF21A116A8FDF75AFFD3
:1022B0000A2206A94846FFF7A1FC0746394616A898
:1022C000FDF750FF1CA116A8FDF74CFF0A2206A936
:1022D0002846FFF793FC0746394616A8FDF742FF4C
:1022E00017A116A8FDF73EFF16A800F01DFEFFF788
:1022F0000FFD0220FFF7ECFAAFF2181000788DF80E
:10230000580087E50C000020202C2267223A20008C
:10231000202C2268223A2000202C2269223A200018
:10232000202C226A223A2000202C226B223A200004
:10233000202C226C223A2000202C226D223A2000F0
:102340007D0A00002DE9F04103460D4616460024A3
:102350000027A0462448006800F4E060B0F5A06FB4
:1023600015D006DCB0F5407F18D0B0F5806F19D1DC
:1023700010E0B0F5C06F06D0B0F5E06F12D10027C5
:102380004FF0040815E001274FF0030811E0022781
:10239000B8460EE003274FF001080AE004274FF08B
:1023A000000806E04FF4A06000F022F80227B846CB
:1023B00000BF00BFC7F1040005FA00F4C8F1040132
:1023C0000F20C8403040044324010848C45403F09F
:1023D0001F01012088405911890001F1E021C1F855
:1023E0000001BDE8F08100000CED00E000E400E039
:1023F00002490143024A1160704700000000FA05DB
:102400000CED00E0034A0A400243034B1A60BFF39D
:102410004F8F704780FFFF1F08ED00E02DE9FF4F51
:1024200097B004460D46DDF894B0299EC82E00D121
:1024300050263220169073481590734814907148B6
:1024400013900020129011904FF07F50109040F6A2
:10245000B8300F90DBF800702698D0F80080644206
:10246000A6F15000FEF72DF84FF07F510590FDF7D3
:10247000DDFE07901998FEF724F806900799FDF7FE
:10248000CFFE0890FEF737F80E90A6F15000FEF749
:1024900018F84FF07F510590FDF7C8FE0790199886
:1024A000FEF70FF806900799FDF768FE0890FEF713
:1024B00022F80D900E98A0EB04090D98A0EB050AE8
:1024C000322249461A9800F033FC322251462498B1
:1024D00000F02EFC32211A9800F039FC0C903221C9
:1024E000249800F034FC0B9027980068201A0A907A
:1024F00028980068281A09900A98FDF7E2FF002141
:102500000590FDF793FE07900C98FDF7DAFF002188
:102510000390FDF78BFE05904846FDF7D2FF394941
:102520000190FDF783FE03901998FDF7CAFF364925
:102530000190FDF77BFE02900399FDF71FFE0490CA
:102540000599FDF71BFE06900799FDF717FE089009
:10255000FDF7D1FF07460998FDF7B3FF002105906D
:10256000FDF764FE07900B98FDF7ABFF0021039089
:10257000FDF75CFE05905046FDF7A3FF2149019051
:10258000FDF754FE03901998FDF79BFF1E4901903B
:10259000FDF74CFE02900399FDF7F0FD04900599BC
:1025A000FDF7ECFD06900799FDF7E8FD0890FDF7B3
:1025B000A2FF804640F6B830874200DD00E0384692
:1025C000074640F6B830804500DD00E040468046D2
:1025D000002F01DA002000E038460746B8F1000F6E
:1025E00001DA002000E0404680467842CBF8000047
:1025F0002698C0F8008027980460289805601BB0D2
:10260000BDE8F08F0000204100008C422DE9FF4F13
:1026100097B004460D461E46259FC82F00D150276F
:102620003220169073481590734814907148139097
:10263000002012901190714810904FF4FA600F90A2
:10264000D6F800802498D0F800906442A7F150009A
:10265000FDF737FF69490590FDF7E8FD07901998E8
:10266000FDF72FFF06900799FDF7DAFD0890FDF7BB
:1026700042FF0E90A7F15000FDF723FF5F49059040
:10268000FDF7D4FD07901998FDF71BFF06900799F9
:10269000FDF774FD0890FDF72EFF0D900E98A0EB4E
:1026A000040A0D98A0EB050B32225146544800F065
:1026B0003FFB32225946534800F03AFB3221504842
:1026C00000F045FB0C9032214E4800F040FB0B908F
:1026D0004D480068201A0A904C480068281A099052
:1026E0000A98FDF7EEFE00210590FDF79FFD07908B
:1026F0000C98FDF7E6FE00210390FDF797FD05908D
:102700005046FDF7DEFE3B490190FDF78FFD03903B
:102710001998FDF7D6FE38490190FDF787FD029024
:102720000399FDF72BFD04900599FDF727FD069011
:102730000799FDF723FD0890FDF7DDFE8046099817
:10274000FDF7BFFE00210590FDF770FD07900B9887
:10275000FDF7B7FE00210390FDF768FD0590584690
:10276000FDF7AFFE23490190FDF760FD0390199836
:10277000FDF7A7FE20490190FDF758FD029003994F
:10278000FDF7FCFC04900599FDF7F8FC069007990D
:10279000FDF7F4FC0890FDF7AEFE8146B8F5FA6F40
:1027A00002DD4FF4FA6000E040468046B9F5FA6F6A
:1027B00002DD4FF4FA6000E04846814618F5FA6FF2
:1027C00001DA134800E04046804619F5FA6F01DA55
:1027D0000F4800E048468146C8F100003060249868
:1027E000C0F8009008480460084805601BB0BDE8C8
:1027F000F08F00000000E040000060423333333FC0
:1028000090030020580400203400002038000020ED
:1028100030F8FFFF2DE9F04F99B004460D46904681
:102820009946DDE923AB322018906F4817906F4826
:1028300016906F4815900020149013906D481290D8
:1028400040F6B8301190DAF80060DBF800706442AE
:102850002798FDF736FE67490590FDF7E7FC0790DE
:102860004046FDF72EFE06900799FDF787FC08907D
:10287000FDF741FE0E902798FDF723FE5D49059078
:10288000FDF7D4FC07904046FDF71BFE0690079924
:10289000FDF7C6FC0890FDF72EFE0D900E98001B6C
:1028A00010900D98401B0F9032224846109900F06E
:1028B0003FFA32220F99229800F03AFA3221484624
:1028C00000F045FA0C903221229800F040FA0B906B
:1028D00025980068201A0A9026980068281A0990FE
:1028E0000A98FDF7EEFD00210590FDF79FFC07908B
:1028F0000C98FDF7E6FD00210390FDF797FC05908D
:102900001098FDF7DEFD3A490190FDF78FFC03902A
:102910004046FDF7D6FD35490190FDF787FC029052
:102920000399FDF72BFC04900599FDF727FC069011
:102930000799FDF723FC0890FDF7DDFD0646099891
:10294000FDF7BFFD00210590FDF770FC07900B9887
:10295000FDF7B7FD00210390FDF768FC05900F9887
:10296000FDF7AFFD22490190FDF760FC0390404662
:10297000FDF7A7FD1D490190FDF758FC0290039952
:10298000FDF7FCFB04900599FDF7F8FB069007990D
:10299000FDF7F4FB0890FDF7AEFD074640F6B830B2
:1029A000864200DD00E03046064640F6B8308742F9
:1029B00000DD00E0384607460F48864200DA00E0B6
:1029C000304606460C48874200DA00E038460746A3
:1029D0007042CAF80000CBF8007025980460269871
:1029E000056019B0BDE8F08F0000204100004843A9
:1029F00000004842CDCCCC3E48F4FFFF2DE9F04F1B
:102A00008FB004460D4616461F4632200E902F48C2
:102A10000D902F480C902F480B9000200A900990A1
:102A200040F6B8300890D6F80080A5EB04093222B1
:102A30004946294800F07CF93221274800F087F9FF
:102A400007903868A4EB000A5046FDF73AFD83462C
:102A50000021FDF7EBFB05900798FDF732FD83465B
:102A60000021FDF7E3FB03904846FDF72AFD1949D5
:102A70000090FDF7DBFB01902846FDF722FD14498D
:102A80000090FDF7D3FB83460199FDF777FB029099
:102A90000399FDF773FB04900599FDF76FFB069012
:102AA000FDF729FD804640F6B830804500DD00E0A6
:102AB000404680460948804500DA00E040468046AE
:102AC000C6F800803C600FB0BDE8F08F00002041E8
:102AD000000048420000F0417000002048F4FFFF71
:102AE0002DE9F04F99B005460E4617461C46DDF815
:102AF00088B03220189084481790844816908448F3
:102B0000159000201490139040F6B8301290DBF826
:102B100000802398D0F800902498D0F800A0601B83
:102B20001190A01B1090E01B0F9032227948119950
:102B300000F0FEF832227848109900F0F9F83222BD
:102B400076480F9900F0F4F83221724800F0FFF84F
:102B50000E903221704800F0FAF80D9032216F4843
:102B600000F0F5F80C906E480068281A0B906D483C
:102B70000068301A0A906C480068381A09900B985F
:102B8000FDF79FFC00210590FDF750FB07900E9884
:102B9000FDF797FC00210390FDF748FB0590119885
:102BA000FDF78FFC5A490190FDF740FB039020464A
:102BB000FDF787FC55490190FDF738FB029003991A
:102BC000FDF7DCFA04900599FDF7D8FA069007990D
:102BD000FDF7D4FA0890FDF78EFC80460A98FDF7C1
:102BE00070FC00210590FDF721FB07900D98FDF783
:102BF00068FC00210390FDF719FB05901098FDF784
:102C000060FC43490190FDF711FB03902046FDF75E
:102C100058FC3E490190FDF709FB02900399FDF72E
:102C2000ADFA04900599FDF7A9FA06900799FDF70A
:102C3000A5FA0890FDF75FFC81460998FDF741FC75
:102C400000210590FDF7F2FA07900C98FDF739FC8A
:102C500000210390FDF7EAFA05900F98FDF731FC8B
:102C60002B490190FDF7E2FA03902046FDF729FC7D
:102C700026490190FDF7DAFA02900399FDF77EFAF2
:102C800004900599FDF77AFA06900799FDF776FA10
:102C90000890FDF730FC824640F6B830804500DDF4
:102CA00000E04046804640F6B830814500DD00E057
:102CB0004846814640F6B830824500DD00E0504687
:102CC00082461A48804500DA00E0404680461748B0
:102CD000814500DA00E0484681461448824500DA22
:102CE00000E050468246CBF800802398C0F8009060
:102CF0002498C0F800A00A4805600A4806600A48FF
:102D0000076019B0BDE8F08F000020410000484284
:102D10000000F0413801002000020020C80200201D
:102D2000280000202C0000203000002048F4FFFF85
:102D300010B50B460021511E05E04C1E50F82440F2
:102D400040F82140491E0029F7DC036010BD10B592
:102D500002460B460020002100BF03E052F821404C
:102D60002044491C9942F9DB10BD0000044A516817
:102D700021F0F00141EA0002014B5A607047000067
:102D8000001002402DE9F04F8BB00746002009905B
:102D90003EA090E8004CC068CDE905BECDF810A07B
:102DA00007900FF2EC0ADAE9000ACDE9020A0FF205
:102DB000E00ADAE9000ACDE9000A38484068C0F3C1
:102DC00081000A900A9820B1012804D0022829D154
:102DD00003E0334928E0324926E03048406800F4F7
:102DE0008038B8F5803F09D12D4C2C48406800F45C
:102DF0000039B9F5003F02D1641000E0294C2748A2
:102E00004068C0F383422548406800F0006008B184
:102E100042F010020F2A01D2921C00E0521C04FB67
:102E200002F101E01E4900BF00BF1C484068C0F32A
:102E3000031504A8465D21FA06F318484068C0F35C
:102E4000022502A8465D23FA06FC14484068C0F338
:102E5000C2251DF8056023FA06F0089037B1012F4E
:102E600006D0022F06D0032F0AD106E0099108E010
:102E7000099306E0CDF824C003E00898099000E02B
:102E800000BF00BF09980BB0BDE8F08F0000000044
:102E900000000000010203040607080900100240B8
:102EA00000127A0000093D00064A02EB9011096801
:102EB00000F01F0301229A401143024B03EB9012D2
:102EC0001160704700100240064A02EB9011096839
:102ED00000F01F0301229A409143024B03EB901232
:102EE0001160704700100240064A02EB9011096819
:102EF00000F01F0301229A401143024B03EB901292
:102F0000116070470010024030B50B4600215A1E78
:102F100006E0445C855C45548454491C521E00BF45
:102F20009142F6DB30BD000010B504462146024850
:102F3000FEF71FFA10BD00000044004000200021F1
:102F40002C4A126842F480322A4B1A6000BF401C9F
:102F5000284A126802F4003119B94FF6FF72904204
:102F6000F5D1244A126802F400320AB900BFFEE724
:102F7000204A52681F4B5A601A4652685A601A46D5
:102F8000526842F480625A601A46526822F4403213
:102F90005A601A46526842F440325A601A465268E1
:102FA000154B1A40134B5A601A465268134B1A437A
:102FB000104B5A601A46126842F080721A6000BFC5
:102FC0000C4A126802F00072002AF9D0094A5268CD
:102FD00022F00302074B5A601A46526842F002027E
:102FE0005A6000BF034A526802F00C02082AF9D165
:102FF0007047000000100240FFFFC3F70000040804
:1030000010B5FFF79BFF10BD10B5124800684FF4D4
:103010007A71B0FBF1F4601EB0F1807F01D3012022
:103020000FE0601E4FF0E02148610F214FF0FF30AC
:10303000FDF7F0FD00204FF0E021886107200861D6
:10304000002008B100BFFEE70021481EFDF7E2FDA9
:1030500010BD000000000020016841F08001016007
:103060007047000010B531B101293FD002297DD051
:1030700003297CD1BFE0036A23F001030362836963
:1030800023F003038361036A148823430362036A02
:1030900023F002030362036A9488234303626A4BAA
:1030A000984202D0694B98421FD1036A23F004036F
:1030B0000362036A548823430362036A23F008030C
:1030C0000362036AD48823430362436823F4807352
:1030D00043604368148923434360436823F40073C7
:1030E00043604368548923434360ABE0036A23F0A1
:1030F00010030362836923F440738361036A1488B5
:1031000043EA04130362036A23F020030362036AA1
:10311000948843EA041303624B4B984202D04B4B12
:10312000984226D1036A23F040030362036A54885D
:1031300043EA04130362036A23F080030362036A11
:10314000D48843EA04130362436823F48063436032
:103150004368148943EA84034360436823F40063AB
:1031600043604368548943EA840301E002E068E075
:10317000436067E0036A23F480730362C36923F04A
:103180000303C361036A148843EA04230362036AE6
:1031900023F400730362036A948843EA04230362FE
:1031A000294B984202D0294B984223D1036A23F439
:1031B00080630362036A548843EA04230362036A58
:1031C00023F400630362036AD48843EA042303629E
:1031D000436823F4805343604368148943EA04132B
:1031E0004360436823F4005343604368548943EACF
:1031F0000413436026E0036A23F480530362C36927
:1032000023F44073C361036A148843EA04330362FE
:10321000036A23F400530362036A948843EA043385
:103220000362094B984202D0084B984208D1436888
:1032300023F4804343604368148943EA8413436062
:1032400000E000BF00BF10BD002C01400034014071
:1032500031B101290CD0022913D0032922D118E061
:10326000836923F0700383618369134383611AE0E8
:10327000836923F4E0438361836943EA0223836122
:1032800011E0C36923F07003C361C3691343C361D1
:1032900009E0C36923F4E043C361C36943EA02233D
:1032A000C36100E000BF00BF704731B1012906D003
:1032B000022906D0032908D105E0426306E08263B3
:1032C00004E0C26302E0026400E000BF00BF704798
:1032D00031B101290CD0022913D0032922D118E0E1
:1032E000836923F0080383618369134383611AE0D0
:1032F000836923F400638361836943EA0223836162
:1033000011E0C36923F00803C361C3691343C361B8
:1033100009E0C36923F40063C361C36943EA02237C
:10332000C36100E000BF00BF7047000000B587B078
:1033300040F20B60FFF7B8FD374800F071F800204D
:10334000ADF80000ADF80200ADF8040041F61F40F2
:1033500002900020ADF80C008DF80E0069462E4852
:1033600000F0D4F80020ADF814000120ADF81000F2
:103370000020ADF81600ADF81200ADF81800ADF859
:103380001A0004AA00212448FFF76CFE04AA0121B8
:103390002148FFF767FE04AA02211F48FFF762FEDB
:1033A00040F2F31200211C48FFF77FFF602200214A
:1033B0001948FFF74DFF002211461748FFF788FF15
:1033C00040F2F31201211448FFF76FFF6022012140
:1033D0001148FFF73DFF002201210F48FFF778FF5A
:1033E00040F2F31202210C48FFF75FFF6022022136
:1033F0000948FFF72DFF002202210748FFF768FF69
:103400000548FFF729FE0121034800F0EFF80248C4
:1034100000F074F807B000BD002C01404162704715
:1034200010B504463349601A8C4244D00CDCB4F128
:10343000804F1CD03048204410B3B0F5806F28D0A6
:10344000B0F5006F52D12DE0B0F5806F3CD0B0F5F3
:103450008E3F03D0B0F5923F48D13EE040F20B30B2
:10346000FFF742FD40F20B30FFF72EFD3FE04FF437
:103470008060FFF739FD4FF48060FFF725FD36E0EF
:1034800040F20140FFF730FD40F20140FFF71CFD24
:103490002DE040F20240FFF727FD40F20240FFF727
:1034A00013FD24E040F20340FFF71EFD40F203400D
:1034B000FFF70AFD1BE040F20440FFF715FD40F264
:1034C0000440FFF701FD12E040F20540FFF70CFD5C
:1034D00040F20540FFF7F8FC09E040F20D30FFF73D
:1034E00003FD40F20D30FFF7EFFC00E000BF00BF2E
:1034F00010BD00000010004000FCFFBF016841F05B
:10350000010101607047CA43026170470A88826204
:10351000294A904220D0B0F1804F1DD0274A9042D6
:103520001AD0274A904217D0264A904214D0264AF1
:10353000904211D0254A90420ED0254A90420BD09D
:10354000244A904208D0244A904205D0234A90420F
:1035500002D0234A90420FD1026822F0700202602A
:1035600002688B7803F060031A43026002680B79EB
:1035700003F010031A4302608A68C262194A90423B
:103580000CD0194A904209D0026822F440720260BD
:1035900002688B8903F440731A430260064A904222
:1035A00002D0094A904201D18A7B0263426942F00B
:1035B0000102426170470000002C014000040040FD
:1035C00000080040000C004000340140004C014065
:1035D000005001400054014000180040001C004011
:1035E000002000400010004000140040012904D1D8
:1035F000426C42F40042426403E0426C22F4004216
:103600004264704730B5846824F00704846084689D
:103610000C438460846940F20335AC43846184695F
:1036200040F201152C438461046A24F00A04046208
:10363000046A24F0A0040462046A42EA03152C43DD
:10364000046230BD2DE9F04704460D460027B84618
:10365000B94600261D49601A8C421CD006DC1C4865
:10366000204470B1B0F5806F1FD10FE0B0F5806FCE
:1036700016D0B0F56C4F18D10320FFF783FB074637
:1036800014E00220FFF77EFB07460FE00220FFF761
:1036900079FB07460AE00220FFF774FB074605E0C6
:1036A0000220FFF76FFB074600E000BF00BF07EBFB
:1036B0005500B0FBF5F64FF6F07006EA000806F08C
:1036C0000F0948EA0900A060BDE8F087004C0040FF
:1036D00000BCFFBF01464868C0F308007047C1F353
:1036E000080242607047000010B504462049601A85
:1036F0008C4228D006DC1F48204490B1B0F5806F82
:1037000033D117E0B0F5806F26D0B0F56C4F2CD1D7
:1037100040F20E30FFF7E8FB40F20E30FFF7D4FB2B
:1037200024E040F21140FFF7DFFB40F21140FFF7C9
:10373000CBFB1BE040F21240FFF7D6FB40F21240F9
:10374000FFF7C2FB12E040F21340FFF7CDFB40F25F
:103750001340FFF7B9FB09E040F21440FFF7C4FB48
:1037600040F21440FFF7B0FB00E000BF00BF10BD07
:10377000004C004000BCFFBFC16841F40051C16073
:10378000704710B5024602EB9110006801F01F046B
:103790000123A340184008B1012010BD0020FCE720
:1037A000426922F400724261426901F400731A43D3
:1037B00042617047426922F480724261426901F4B9
:1037C00080731A434261704710B5C1F38912825861
:1037D00001F01F040123A3409A43C1F38913C2508F
:1037E00010BD10B5C1F38912825801F01F040123E6
:1037F000A3401A43C1F38913C25010BD70B50246ED
:1038000000230024C1F38910105801F01F06012580
:10381000B54000EA050302EB91500068C1F304468D
:103820000125B54000EA050414B10BB1012070BDBB
:103830000020FCE7C26822F4C062C260C2680A438A
:10384000C26070470A460021C16821F0040111439B
:10385000C1607047026922F44052026102690A4362
:10386000026170470A460021C16821F00801114336
:10387000C1607047C26822F48052C260C2680A43C5
:10388000C26070470000000000000000002F000030
:1038900000000700070000147F147F1400242A7F13
:1038A0002A12006264081323003649552250000092
:1038B0000503000000001C224100000041221C0002
:1038C0000014083E08140008083E0808000000A084
:1038D0006000000808080808000060600000002080
:1038E00010080402003E5149453E0000427F40005E
:1038F000004261514946002141454B3100181412E4
:103900007F10002745454539003C4A4949300001B0
:103910007109050300364949493600064949291EFF
:103920000000363600000000563600000008142261
:103930004100001414141414000041221408000261
:103940000151090600324959513E007C1211127C86
:10395000007F49494936003E41414122007F4141B3
:10396000221C007F49494941007F09090901003EA5
:103970004149497A007F0808087F0000417F4100E3
:10398000002040413F01007F08142241007F404059
:103990004040007F020C027F007F0408107F003E41
:1039A0004141413E007F09090906003E4151215E27
:1039B000007F091929460046494949310001017F24
:1039C0000101003F4040403F001F2040201F003FBA
:1039D0004038403F0063140814630007087008076C
:1039E00000615149454300007F41410000552A557F
:1039F0002A55000041417F000004020102040040FA
:103A0000404040400000010204000020545454781B
:103A1000007F48444438003844444420003844443B
:103A2000487F00385454541800087E0901020018D9
:103A3000A4A4A47C007F080404780000447D400016
:103A4000004080847D00007F102844000000417FFA
:103A50004000007C04180478007C080404780038D6
:103A60004444443800FC242424180018242418FC5E
:103A7000007C0804040800485454542000043F44C7
:103A80004020003C4040207C001C2040201C003C8A
:103A90004030403C004428102844001CA0A0A07CDA
:103AA000004464544C441414141414140000000012
:103AB000000000000000000000000000000000F80E
:103AC00000000000000000333000000000100C0671
:103AD000100C0600000000000000000040C078400C
:103AE000C0784000043F04043F040400007088FCD8
:103AF00008300000001820FF211E0000F008F00030
:103B0000E018000000211C031E211E0000F00888A0
:103B1000700000001E2123241927211010160E000A
:103B2000000000000000000000000000000000E0B5
:103B300018040200000000071820400000020418CA
:103B4000E00000000040201807000000404080F026
:103B5000804040000202010F01020200000000F05C
:103B6000000000000101011F010101000000000030
:103B70000000000080B070000000000000000000A5
:103B8000000000000001010101010101000000002E
:103B900000000000003030000000000000000000C5
:103BA00080601804006018060100000000E01008A2
:103BB0000810E000000F102020100F00001010F877
:103BC000000000000020203F2020000000700808B6
:103BD0000888700000302824222130000030088836
:103BE000884830000018202020110E000000C0205E
:103BF00010F8000000070424243F240000F808887F
:103C0000880808000019212020110E0000E010880B
:103C100088180000000F112020110E00003808083D
:103C2000C83808000000003F00000000007088084D
:103C300008887000001C222121221C0000E01008CE
:103C40000810E0000000312222110F00000000C027
:103C5000C0000000000000303000000000000080C4
:103C600000000000000080600000000000008040B4
:103C700020100800000102040810200040404040CD
:103C80004040400004040404040404000008102020
:103C90004080000000201008040201000070480865
:103CA0000808F0000000003036010000C030C828CD
:103CB000E810E0000718272423140B000000C03888
:103CC000E0000000203C23020227382008F8888802
:103CD00088700000203F202020110E00C03008080E
:103CE00008083800071820202010080008F80808E5
:103CF0000810E000203F202020100F0008F88888DE
:103D0000E8081000203F20202320180008F88888A9
:103D1000E8081000203F200003000000C030080821
:103D20000838000007182020221E020008F80800AA
:103D30000008F808203F210101213F20000808F871
:103D4000080800000020203F202000000000080894
:103D5000F8080800C08080807F00000008F888C054
:103D600028180800203F20012638200008F8080005
:103D700000000000203F20202020300008F8F8003C
:103D8000F8F80800203F003F003F200008F830C04E
:103D90000008F808203F200007183F00E01008083E
:103DA0000810E0000F10202020100F0008F808086D
:103DB0000808F000203F210101010000E010080880
:103DC0000810E0000F18242438504F0008F88888A5
:103DD00088887000203F2000030C30200070880885
:103DE000080838000038202121221C00180808F893
:103DF000080818000000203F2000000008F8080014
:103E00000008F808001F202020201F0008788800E4
:103E100000C83808000007380E010000F80800F854
:103E20000008F800033C0700073C030008186880FE
:103E30008068180820302C03032C30200838C80074
:103E4000C83808000000203F2000000010080808C3
:103E5000C83808002038262120201800000000FE65
:103E6000020202000000007F40404000000C30C011
:103E700000000000000000010638C000000202023D
:103E8000FE000000004040407F00000000000402EF
:103E9000020204000000000000000000000000001A
:103EA000000000008080808080808080000202040A
:103EB0000000000000000000000000000000808002
:103EC000808000000019242222223F2008F8008070
:103ED00080000000003F112020110E000000008033
:103EE00080800000000E11202020110000000080C2
:103EF0008088F800000E112020103F2000008080F4
:103F000080800000001F222222221300008080F007
:103F1000888888180020203F202000000000808032
:103F200080808000006B94949493600008F8008077
:103F300080800000203F210000203F2000809898D2
:103F4000000000000020203F202000000000008032
:103F50009898000000C08080807F000008F8000072
:103F600080808000203F24022D302000000808F8C7
:103F7000000000000020203F202000008080808082
:103F800080808000203F20003F20003F8080008014
:103F900080800000203F210000203F200000808022
:103FA00080800000001F202020201F0080800080D3
:103FB0008000000080FFA12020110E000000008082
:103FC00080808000000E112020A0FF808080800073
:103FD0008080800020203F212000010000008080A0
:103FE000808080000033242424241900008080E095
:103FF000808000000000001F202000008080000062
:1040000000808000001F202020103F208080800042
:104010000080808000010E30080601008080008052
:10402000008080800F300C030C300F000080800077
:10403000808080000020312E0E31200080808000A2
:104040000080808080818E70180601000080808052
:10405000808080000021302C2221300000000000F0
:10406000807C020200000000003F40400000000091
:10407000FF00000000000000FF0000000002027CC2
:10408000800000000040403F0000000000060101E9
:10409000020204040000000000000000BC40000810
:1040A00000000020580000004C15000814410008D2
:1040B00058000020300A00005C15000800A24A04E5
:1040C00000000000000000000000000000000000F0
:1040D00000000000000000000000000000000000E0
:1040E00000000000000000000000000000000000D0
:1040F00000000000000000000000000048454C4C9B
:104100004F574F524C44000A0A00000000000000C4
:0441100000000000AB
:0400000508000105E9
:00000001FF
